{
	"contracts/MyToken.sol": {
		"MyToken": {
			"abi": [
				{
					"inputs": [
						{
							"internalType": "string",
							"name": "name",
							"type": "string"
						},
						{
							"internalType": "string",
							"name": "symbol",
							"type": "string"
						}
					],
					"stateMutability": "nonpayable",
					"type": "constructor"
				},
				{
					"anonymous": false,
					"inputs": [
						{
							"indexed": true,
							"internalType": "address",
							"name": "owner",
							"type": "address"
						},
						{
							"indexed": true,
							"internalType": "address",
							"name": "spender",
							"type": "address"
						},
						{
							"indexed": false,
							"internalType": "uint256",
							"name": "value",
							"type": "uint256"
						}
					],
					"name": "Approval",
					"type": "event"
				},
				{
					"anonymous": false,
					"inputs": [
						{
							"indexed": true,
							"internalType": "address",
							"name": "from",
							"type": "address"
						},
						{
							"indexed": true,
							"internalType": "address",
							"name": "to",
							"type": "address"
						},
						{
							"indexed": false,
							"internalType": "uint256",
							"name": "value",
							"type": "uint256"
						}
					],
					"name": "Transfer",
					"type": "event"
				},
				{
					"inputs": [
						{
							"internalType": "address",
							"name": "owner",
							"type": "address"
						},
						{
							"internalType": "address",
							"name": "spender",
							"type": "address"
						}
					],
					"name": "allowance",
					"outputs": [
						{
							"internalType": "uint256",
							"name": "",
							"type": "uint256"
						}
					],
					"stateMutability": "view",
					"type": "function"
				},
				{
					"inputs": [
						{
							"internalType": "address",
							"name": "spender",
							"type": "address"
						},
						{
							"internalType": "uint256",
							"name": "amount",
							"type": "uint256"
						}
					],
					"name": "approve",
					"outputs": [
						{
							"internalType": "bool",
							"name": "",
							"type": "bool"
						}
					],
					"stateMutability": "nonpayable",
					"type": "function"
				},
				{
					"inputs": [
						{
							"internalType": "address",
							"name": "account",
							"type": "address"
						}
					],
					"name": "balanceOf",
					"outputs": [
						{
							"internalType": "uint256",
							"name": "",
							"type": "uint256"
						}
					],
					"stateMutability": "view",
					"type": "function"
				},
				{
					"inputs": [
						{
							"internalType": "uint256",
							"name": "amount",
							"type": "uint256"
						}
					],
					"name": "burn",
					"outputs": [],
					"stateMutability": "nonpayable",
					"type": "function"
				},
				{
					"inputs": [],
					"name": "decimals",
					"outputs": [
						{
							"internalType": "uint8",
							"name": "",
							"type": "uint8"
						}
					],
					"stateMutability": "view",
					"type": "function"
				},
				{
					"inputs": [
						{
							"internalType": "address",
							"name": "spender",
							"type": "address"
						},
						{
							"internalType": "uint256",
							"name": "subtractedValue",
							"type": "uint256"
						}
					],
					"name": "decreaseAllowance",
					"outputs": [
						{
							"internalType": "bool",
							"name": "",
							"type": "bool"
						}
					],
					"stateMutability": "nonpayable",
					"type": "function"
				},
				{
					"inputs": [
						{
							"internalType": "address",
							"name": "spender",
							"type": "address"
						},
						{
							"internalType": "uint256",
							"name": "addedValue",
							"type": "uint256"
						}
					],
					"name": "increaseAllowance",
					"outputs": [
						{
							"internalType": "bool",
							"name": "",
							"type": "bool"
						}
					],
					"stateMutability": "nonpayable",
					"type": "function"
				},
				{
					"inputs": [
						{
							"internalType": "address",
							"name": "account",
							"type": "address"
						},
						{
							"internalType": "uint256",
							"name": "amount",
							"type": "uint256"
						}
					],
					"name": "mint",
					"outputs": [],
					"stateMutability": "nonpayable",
					"type": "function"
				},
				{
					"inputs": [],
					"name": "name",
					"outputs": [
						{
							"internalType": "string",
							"name": "",
							"type": "string"
						}
					],
					"stateMutability": "view",
					"type": "function"
				},
				{
					"inputs": [],
					"name": "owner",
					"outputs": [
						{
							"internalType": "address",
							"name": "",
							"type": "address"
						}
					],
					"stateMutability": "view",
					"type": "function"
				},
				{
					"inputs": [],
					"name": "symbol",
					"outputs": [
						{
							"internalType": "string",
							"name": "",
							"type": "string"
						}
					],
					"stateMutability": "view",
					"type": "function"
				},
				{
					"inputs": [],
					"name": "totalSupply",
					"outputs": [
						{
							"internalType": "uint256",
							"name": "",
							"type": "uint256"
						}
					],
					"stateMutability": "view",
					"type": "function"
				},
				{
					"inputs": [
						{
							"internalType": "address",
							"name": "to",
							"type": "address"
						},
						{
							"internalType": "uint256",
							"name": "amount",
							"type": "uint256"
						}
					],
					"name": "transfer",
					"outputs": [
						{
							"internalType": "bool",
							"name": "",
							"type": "bool"
						}
					],
					"stateMutability": "nonpayable",
					"type": "function"
				},
				{
					"inputs": [
						{
							"internalType": "address",
							"name": "from",
							"type": "address"
						},
						{
							"internalType": "address",
							"name": "to",
							"type": "address"
						},
						{
							"internalType": "uint256",
							"name": "amount",
							"type": "uint256"
						}
					],
					"name": "transferFrom",
					"outputs": [
						{
							"internalType": "bool",
							"name": "",
							"type": "bool"
						}
					],
					"stateMutability": "nonpayable",
					"type": "function"
				}
			],
			"devdoc": {
				"kind": "dev",
				"methods": {
					"allowance(address,address)": {
						"details": "See {IERC20-allowance}."
					},
					"approve(address,uint256)": {
						"details": "See {IERC20-approve}. NOTE: If `amount` is the maximum `uint256`, the allowance is not updated on `transferFrom`. This is semantically equivalent to an infinite approval. Requirements: - `spender` cannot be the zero address."
					},
					"balanceOf(address)": {
						"details": "See {IERC20-balanceOf}."
					},
					"decimals()": {
						"details": "Returns the number of decimals used to get its user representation. For example, if `decimals` equals `2`, a balance of `505` tokens should be displayed to a user as `5.05` (`505 / 10 ** 2`). Tokens usually opt for a value of 18, imitating the relationship between Ether and Wei. This is the default value returned by this function, unless it's overridden. NOTE: This information is only used for _display_ purposes: it in no way affects any of the arithmetic of the contract, including {IERC20-balanceOf} and {IERC20-transfer}."
					},
					"decreaseAllowance(address,uint256)": {
						"details": "Atomically decreases the allowance granted to `spender` by the caller. This is an alternative to {approve} that can be used as a mitigation for problems described in {IERC20-approve}. Emits an {Approval} event indicating the updated allowance. Requirements: - `spender` cannot be the zero address. - `spender` must have allowance for the caller of at least `subtractedValue`."
					},
					"increaseAllowance(address,uint256)": {
						"details": "Atomically increases the allowance granted to `spender` by the caller. This is an alternative to {approve} that can be used as a mitigation for problems described in {IERC20-approve}. Emits an {Approval} event indicating the updated allowance. Requirements: - `spender` cannot be the zero address."
					},
					"name()": {
						"details": "Returns the name of the token."
					},
					"symbol()": {
						"details": "Returns the symbol of the token, usually a shorter version of the name."
					},
					"totalSupply()": {
						"details": "See {IERC20-totalSupply}."
					},
					"transfer(address,uint256)": {
						"details": "See {IERC20-transfer}. Requirements: - `to` cannot be the zero address. - the caller must have a balance of at least `amount`."
					},
					"transferFrom(address,address,uint256)": {
						"details": "See {IERC20-transferFrom}. Emits an {Approval} event indicating the updated allowance. This is not required by the EIP. See the note at the beginning of {ERC20}. NOTE: Does not update the allowance if the current allowance is the maximum `uint256`. Requirements: - `from` and `to` cannot be the zero address. - `from` must have a balance of at least `amount`. - the caller must have allowance for ``from``'s tokens of at least `amount`."
					}
				},
				"version": 1
			},
			"evm": {
				"assembly": "    /* \"contracts/MyToken.sol\":119:622  contract MyToken is ERC20 {\r... */\n  mstore(0x40, 0x80)\n    /* \"contracts/MyToken.sol\":181:302  constructor(string memory name, string memory symbol) ERC20(name, symbol) {\r... */\n  callvalue\n  dup1\n  iszero\n  tag_1\n  jumpi\n  0x00\n  dup1\n  revert\ntag_1:\n  pop\n  mload(0x40)\n  sub(codesize, bytecodeSize)\n  dup1\n  bytecodeSize\n  dup4\n  codecopy\n  dup2\n  dup2\n  add\n  0x40\n  mstore\n  dup2\n  add\n  swap1\n  tag_2\n  swap2\n  swap1\n  tag_3\n  jump\t// in\ntag_2:\n    /* \"contracts/MyToken.sol\":241:245  name */\n  dup2\n    /* \"contracts/MyToken.sol\":247:253  symbol */\n  dup2\n    /* \"@openzeppelin/contracts/token/ERC20/ERC20.sol\":2054:2059  name_ */\n  dup2\n    /* \"@openzeppelin/contracts/token/ERC20/ERC20.sol\":2046:2051  _name */\n  0x03\n    /* \"@openzeppelin/contracts/token/ERC20/ERC20.sol\":2046:2059  _name = name_ */\n  swap1\n  dup1\n  mload\n  swap1\n  0x20\n  add\n  swap1\n  tag_7\n  swap3\n  swap2\n  swap1\n  tag_8\n  jump\t// in\ntag_7:\n  pop\n    /* \"@openzeppelin/contracts/token/ERC20/ERC20.sol\":2079:2086  symbol_ */\n  dup1\n    /* \"@openzeppelin/contracts/token/ERC20/ERC20.sol\":2069:2076  _symbol */\n  0x04\n    /* \"@openzeppelin/contracts/token/ERC20/ERC20.sol\":2069:2086  _symbol = symbol_ */\n  swap1\n  dup1\n  mload\n  swap1\n  0x20\n  add\n  swap1\n  tag_9\n  swap3\n  swap2\n  swap1\n  tag_8\n  jump\t// in\ntag_9:\n  pop\n    /* \"@openzeppelin/contracts/token/ERC20/ERC20.sol\":1980:2093  constructor(string memory name_, string memory symbol_) {... */\n  pop\n  pop\n    /* \"contracts/MyToken.sol\":274:284  msg.sender */\n  caller\n    /* \"contracts/MyToken.sol\":266:271  owner */\n  0x05\n  0x00\n    /* \"contracts/MyToken.sol\":266:284  owner = msg.sender */\n  0x0100\n  exp\n  dup2\n  sload\n  dup2\n  0xffffffffffffffffffffffffffffffffffffffff\n  mul\n  not\n  and\n  swap1\n  dup4\n  0xffffffffffffffffffffffffffffffffffffffff\n  and\n  mul\n  or\n  swap1\n  sstore\n  pop\n    /* \"contracts/MyToken.sol\":181:302  constructor(string memory name, string memory symbol) ERC20(name, symbol) {\r... */\n  pop\n  pop\n    /* \"contracts/MyToken.sol\":119:622  contract MyToken is ERC20 {\r... */\n  jump(tag_11)\ntag_8:\n  dup3\n  dup1\n  sload\n  tag_12\n  swap1\n  tag_13\n  jump\t// in\ntag_12:\n  swap1\n  0x00\n  mstore\n  keccak256(0x00, 0x20)\n  swap1\n  0x1f\n  add\n  0x20\n  swap1\n  div\n  dup2\n  add\n  swap3\n  dup3\n  tag_15\n  jumpi\n  0x00\n  dup6\n  sstore\n  jump(tag_14)\ntag_15:\n  dup3\n  0x1f\n  lt\n  tag_16\n  jumpi\n  dup1\n  mload\n  not(0xff)\n  and\n  dup4\n  dup1\n  add\n  or\n  dup6\n  sstore\n  jump(tag_14)\ntag_16:\n  dup3\n  dup1\n  add\n  0x01\n  add\n  dup6\n  sstore\n  dup3\n  iszero\n  tag_14\n  jumpi\n  swap2\n  dup3\n  add\ntag_17:\n  dup3\n  dup2\n  gt\n  iszero\n  tag_18\n  jumpi\n  dup3\n  mload\n  dup3\n  sstore\n  swap2\n  0x20\n  add\n  swap2\n  swap1\n  0x01\n  add\n  swap1\n  jump(tag_17)\ntag_18:\ntag_14:\n  pop\n  swap1\n  pop\n  tag_19\n  swap2\n  swap1\n  tag_20\n  jump\t// in\ntag_19:\n  pop\n  swap1\n  jump\t// out\ntag_20:\ntag_21:\n  dup1\n  dup3\n  gt\n  iszero\n  tag_22\n  jumpi\n  0x00\n  dup2\n  0x00\n  swap1\n  sstore\n  pop\n  0x01\n  add\n  jump(tag_21)\ntag_22:\n  pop\n  swap1\n  jump\t// out\n    /* \"#utility.yul\":7:360   */\ntag_24:\n  0x00\n    /* \"#utility.yul\":121:186   */\n  tag_26\n    /* \"#utility.yul\":136:185   */\n  tag_27\n    /* \"#utility.yul\":178:184   */\n  dup5\n    /* \"#utility.yul\":136:185   */\n  tag_28\n  jump\t// in\ntag_27:\n    /* \"#utility.yul\":121:186   */\n  tag_29\n  jump\t// in\ntag_26:\n    /* \"#utility.yul\":112:186   */\n  swap1\n  pop\n    /* \"#utility.yul\":209:215   */\n  dup3\n    /* \"#utility.yul\":202:207   */\n  dup2\n    /* \"#utility.yul\":195:216   */\n  mstore\n    /* \"#utility.yul\":247:251   */\n  0x20\n    /* \"#utility.yul\":240:245   */\n  dup2\n    /* \"#utility.yul\":236:252   */\n  add\n    /* \"#utility.yul\":285:288   */\n  dup5\n    /* \"#utility.yul\":276:282   */\n  dup5\n    /* \"#utility.yul\":271:274   */\n  dup5\n    /* \"#utility.yul\":267:283   */\n  add\n    /* \"#utility.yul\":264:289   */\n  gt\n    /* \"#utility.yul\":261:263   */\n  iszero\n  tag_30\n  jumpi\n    /* \"#utility.yul\":302:303   */\n  0x00\n    /* \"#utility.yul\":299:300   */\n  dup1\n    /* \"#utility.yul\":292:304   */\n  revert\n    /* \"#utility.yul\":261:263   */\ntag_30:\n    /* \"#utility.yul\":315:354   */\n  tag_31\n    /* \"#utility.yul\":347:353   */\n  dup5\n    /* \"#utility.yul\":342:345   */\n  dup3\n    /* \"#utility.yul\":337:340   */\n  dup6\n    /* \"#utility.yul\":315:354   */\n  tag_32\n  jump\t// in\ntag_31:\n    /* \"#utility.yul\":102:360   */\n  pop\n  swap4\n  swap3\n  pop\n  pop\n  pop\n  jump\t// out\n    /* \"#utility.yul\":380:668   */\ntag_33:\n  0x00\n    /* \"#utility.yul\":496:499   */\n  dup3\n    /* \"#utility.yul\":489:493   */\n  0x1f\n    /* \"#utility.yul\":481:487   */\n  dup4\n    /* \"#utility.yul\":477:494   */\n  add\n    /* \"#utility.yul\":473:500   */\n  slt\n    /* \"#utility.yul\":463:465   */\n  tag_35\n  jumpi\n    /* \"#utility.yul\":514:515   */\n  0x00\n    /* \"#utility.yul\":511:512   */\n  dup1\n    /* \"#utility.yul\":504:516   */\n  revert\n    /* \"#utility.yul\":463:465   */\ntag_35:\n    /* \"#utility.yul\":547:553   */\n  dup2\n    /* \"#utility.yul\":541:554   */\n  mload\n    /* \"#utility.yul\":572:662   */\n  tag_36\n    /* \"#utility.yul\":658:661   */\n  dup5\n    /* \"#utility.yul\":650:656   */\n  dup3\n    /* \"#utility.yul\":643:647   */\n  0x20\n    /* \"#utility.yul\":635:641   */\n  dup7\n    /* \"#utility.yul\":631:648   */\n  add\n    /* \"#utility.yul\":572:662   */\n  tag_24\n  jump\t// in\ntag_36:\n    /* \"#utility.yul\":563:662   */\n  swap2\n  pop\n    /* \"#utility.yul\":453:668   */\n  pop\n  swap3\n  swap2\n  pop\n  pop\n  jump\t// out\n    /* \"#utility.yul\":674:1326   */\ntag_3:\n  0x00\n  dup1\n    /* \"#utility.yul\":830:832   */\n  0x40\n    /* \"#utility.yul\":818:827   */\n  dup4\n    /* \"#utility.yul\":809:816   */\n  dup6\n    /* \"#utility.yul\":805:828   */\n  sub\n    /* \"#utility.yul\":801:833   */\n  slt\n    /* \"#utility.yul\":798:800   */\n  iszero\n  tag_38\n  jumpi\n    /* \"#utility.yul\":846:847   */\n  0x00\n    /* \"#utility.yul\":843:844   */\n  dup1\n    /* \"#utility.yul\":836:848   */\n  revert\n    /* \"#utility.yul\":798:800   */\ntag_38:\n    /* \"#utility.yul\":910:911   */\n  0x00\n    /* \"#utility.yul\":899:908   */\n  dup4\n    /* \"#utility.yul\":895:912   */\n  add\n    /* \"#utility.yul\":889:913   */\n  mload\n    /* \"#utility.yul\":940:958   */\n  0xffffffffffffffff\n    /* \"#utility.yul\":932:938   */\n  dup2\n    /* \"#utility.yul\":929:959   */\n  gt\n    /* \"#utility.yul\":926:928   */\n  iszero\n  tag_39\n  jumpi\n    /* \"#utility.yul\":972:973   */\n  0x00\n    /* \"#utility.yul\":969:970   */\n  dup1\n    /* \"#utility.yul\":962:974   */\n  revert\n    /* \"#utility.yul\":926:928   */\ntag_39:\n    /* \"#utility.yul\":1000:1074   */\n  tag_40\n    /* \"#utility.yul\":1066:1073   */\n  dup6\n    /* \"#utility.yul\":1057:1063   */\n  dup3\n    /* \"#utility.yul\":1046:1055   */\n  dup7\n    /* \"#utility.yul\":1042:1064   */\n  add\n    /* \"#utility.yul\":1000:1074   */\n  tag_33\n  jump\t// in\ntag_40:\n    /* \"#utility.yul\":990:1074   */\n  swap3\n  pop\n    /* \"#utility.yul\":860:1084   */\n  pop\n    /* \"#utility.yul\":1144:1146   */\n  0x20\n    /* \"#utility.yul\":1133:1142   */\n  dup4\n    /* \"#utility.yul\":1129:1147   */\n  add\n    /* \"#utility.yul\":1123:1148   */\n  mload\n    /* \"#utility.yul\":1175:1193   */\n  0xffffffffffffffff\n    /* \"#utility.yul\":1167:1173   */\n  dup2\n    /* \"#utility.yul\":1164:1194   */\n  gt\n    /* \"#utility.yul\":1161:1163   */\n  iszero\n  tag_41\n  jumpi\n    /* \"#utility.yul\":1207:1208   */\n  0x00\n    /* \"#utility.yul\":1204:1205   */\n  dup1\n    /* \"#utility.yul\":1197:1209   */\n  revert\n    /* \"#utility.yul\":1161:1163   */\ntag_41:\n    /* \"#utility.yul\":1235:1309   */\n  tag_42\n    /* \"#utility.yul\":1301:1308   */\n  dup6\n    /* \"#utility.yul\":1292:1298   */\n  dup3\n    /* \"#utility.yul\":1281:1290   */\n  dup7\n    /* \"#utility.yul\":1277:1299   */\n  add\n    /* \"#utility.yul\":1235:1309   */\n  tag_33\n  jump\t// in\ntag_42:\n    /* \"#utility.yul\":1225:1309   */\n  swap2\n  pop\n    /* \"#utility.yul\":1094:1319   */\n  pop\n    /* \"#utility.yul\":788:1326   */\n  swap3\n  pop\n  swap3\n  swap1\n  pop\n  jump\t// out\n    /* \"#utility.yul\":1332:1615   */\ntag_29:\n  0x00\n    /* \"#utility.yul\":1398:1400   */\n  0x40\n    /* \"#utility.yul\":1392:1401   */\n  mload\n    /* \"#utility.yul\":1382:1401   */\n  swap1\n  pop\n    /* \"#utility.yul\":1440:1444   */\n  dup2\n    /* \"#utility.yul\":1432:1438   */\n  dup2\n    /* \"#utility.yul\":1428:1445   */\n  add\n    /* \"#utility.yul\":1547:1553   */\n  dup2\n    /* \"#utility.yul\":1535:1545   */\n  dup2\n    /* \"#utility.yul\":1532:1554   */\n  lt\n    /* \"#utility.yul\":1511:1529   */\n  0xffffffffffffffff\n    /* \"#utility.yul\":1499:1509   */\n  dup3\n    /* \"#utility.yul\":1496:1530   */\n  gt\n    /* \"#utility.yul\":1493:1555   */\n  or\n    /* \"#utility.yul\":1490:1492   */\n  iszero\n  tag_44\n  jumpi\n    /* \"#utility.yul\":1558:1576   */\n  tag_45\n  tag_46\n  jump\t// in\ntag_45:\n    /* \"#utility.yul\":1490:1492   */\ntag_44:\n    /* \"#utility.yul\":1598:1608   */\n  dup1\n    /* \"#utility.yul\":1594:1596   */\n  0x40\n    /* \"#utility.yul\":1587:1609   */\n  mstore\n    /* \"#utility.yul\":1372:1615   */\n  pop\n  swap2\n  swap1\n  pop\n  jump\t// out\n    /* \"#utility.yul\":1621:1953   */\ntag_28:\n  0x00\n    /* \"#utility.yul\":1773:1791   */\n  0xffffffffffffffff\n    /* \"#utility.yul\":1765:1771   */\n  dup3\n    /* \"#utility.yul\":1762:1792   */\n  gt\n    /* \"#utility.yul\":1759:1761   */\n  iszero\n  tag_48\n  jumpi\n    /* \"#utility.yul\":1795:1813   */\n  tag_49\n  tag_46\n  jump\t// in\ntag_49:\n    /* \"#utility.yul\":1759:1761   */\ntag_48:\n    /* \"#utility.yul\":1880:1884   */\n  0x1f\n    /* \"#utility.yul\":1876:1885   */\n  not\n    /* \"#utility.yul\":1869:1873   */\n  0x1f\n    /* \"#utility.yul\":1861:1867   */\n  dup4\n    /* \"#utility.yul\":1857:1874   */\n  add\n    /* \"#utility.yul\":1853:1886   */\n  and\n    /* \"#utility.yul\":1845:1886   */\n  swap1\n  pop\n    /* \"#utility.yul\":1941:1945   */\n  0x20\n    /* \"#utility.yul\":1935:1939   */\n  dup2\n    /* \"#utility.yul\":1931:1946   */\n  add\n    /* \"#utility.yul\":1923:1946   */\n  swap1\n  pop\n    /* \"#utility.yul\":1688:1953   */\n  swap2\n  swap1\n  pop\n  jump\t// out\n    /* \"#utility.yul\":1959:2266   */\ntag_32:\n    /* \"#utility.yul\":2027:2028   */\n  0x00\n    /* \"#utility.yul\":2037:2150   */\ntag_51:\n    /* \"#utility.yul\":2051:2057   */\n  dup4\n    /* \"#utility.yul\":2048:2049   */\n  dup2\n    /* \"#utility.yul\":2045:2058   */\n  lt\n    /* \"#utility.yul\":2037:2150   */\n  iszero\n  tag_53\n  jumpi\n    /* \"#utility.yul\":2136:2137   */\n  dup1\n    /* \"#utility.yul\":2131:2134   */\n  dup3\n    /* \"#utility.yul\":2127:2138   */\n  add\n    /* \"#utility.yul\":2121:2139   */\n  mload\n    /* \"#utility.yul\":2117:2118   */\n  dup2\n    /* \"#utility.yul\":2112:2115   */\n  dup5\n    /* \"#utility.yul\":2108:2119   */\n  add\n    /* \"#utility.yul\":2101:2140   */\n  mstore\n    /* \"#utility.yul\":2073:2075   */\n  0x20\n    /* \"#utility.yul\":2070:2071   */\n  dup2\n    /* \"#utility.yul\":2066:2076   */\n  add\n    /* \"#utility.yul\":2061:2076   */\n  swap1\n  pop\n    /* \"#utility.yul\":2037:2150   */\n  jump(tag_51)\ntag_53:\n    /* \"#utility.yul\":2168:2174   */\n  dup4\n    /* \"#utility.yul\":2165:2166   */\n  dup2\n    /* \"#utility.yul\":2162:2175   */\n  gt\n    /* \"#utility.yul\":2159:2161   */\n  iszero\n  tag_54\n  jumpi\n    /* \"#utility.yul\":2248:2249   */\n  0x00\n    /* \"#utility.yul\":2239:2245   */\n  dup5\n    /* \"#utility.yul\":2234:2237   */\n  dup5\n    /* \"#utility.yul\":2230:2246   */\n  add\n    /* \"#utility.yul\":2223:2250   */\n  mstore\n    /* \"#utility.yul\":2159:2161   */\ntag_54:\n    /* \"#utility.yul\":2008:2266   */\n  pop\n  pop\n  pop\n  pop\n  jump\t// out\n    /* \"#utility.yul\":2272:2592   */\ntag_13:\n  0x00\n    /* \"#utility.yul\":2353:2354   */\n  0x02\n    /* \"#utility.yul\":2347:2351   */\n  dup3\n    /* \"#utility.yul\":2343:2355   */\n  div\n    /* \"#utility.yul\":2333:2355   */\n  swap1\n  pop\n    /* \"#utility.yul\":2400:2401   */\n  0x01\n    /* \"#utility.yul\":2394:2398   */\n  dup3\n    /* \"#utility.yul\":2390:2402   */\n  and\n    /* \"#utility.yul\":2421:2439   */\n  dup1\n    /* \"#utility.yul\":2411:2413   */\n  tag_56\n  jumpi\n    /* \"#utility.yul\":2477:2481   */\n  0x7f\n    /* \"#utility.yul\":2469:2475   */\n  dup3\n    /* \"#utility.yul\":2465:2482   */\n  and\n    /* \"#utility.yul\":2455:2482   */\n  swap2\n  pop\n    /* \"#utility.yul\":2411:2413   */\ntag_56:\n    /* \"#utility.yul\":2539:2541   */\n  0x20\n    /* \"#utility.yul\":2531:2537   */\n  dup3\n    /* \"#utility.yul\":2528:2542   */\n  lt\n    /* \"#utility.yul\":2508:2526   */\n  dup2\n    /* \"#utility.yul\":2505:2543   */\n  eq\n    /* \"#utility.yul\":2502:2504   */\n  iszero\n  tag_57\n  jumpi\n    /* \"#utility.yul\":2558:2576   */\n  tag_58\n  tag_59\n  jump\t// in\ntag_58:\n    /* \"#utility.yul\":2502:2504   */\ntag_57:\n    /* \"#utility.yul\":2323:2592   */\n  pop\n  swap2\n  swap1\n  pop\n  jump\t// out\n    /* \"#utility.yul\":2598:2778   */\ntag_59:\n    /* \"#utility.yul\":2646:2723   */\n  0x4e487b7100000000000000000000000000000000000000000000000000000000\n    /* \"#utility.yul\":2643:2644   */\n  0x00\n    /* \"#utility.yul\":2636:2724   */\n  mstore\n    /* \"#utility.yul\":2743:2747   */\n  0x22\n    /* \"#utility.yul\":2740:2741   */\n  0x04\n    /* \"#utility.yul\":2733:2748   */\n  mstore\n    /* \"#utility.yul\":2767:2771   */\n  0x24\n    /* \"#utility.yul\":2764:2765   */\n  0x00\n    /* \"#utility.yul\":2757:2772   */\n  revert\n    /* \"#utility.yul\":2784:2964   */\ntag_46:\n    /* \"#utility.yul\":2832:2909   */\n  0x4e487b7100000000000000000000000000000000000000000000000000000000\n    /* \"#utility.yul\":2829:2830   */\n  0x00\n    /* \"#utility.yul\":2822:2910   */\n  mstore\n    /* \"#utility.yul\":2929:2933   */\n  0x41\n    /* \"#utility.yul\":2926:2927   */\n  0x04\n    /* \"#utility.yul\":2919:2934   */\n  mstore\n    /* \"#utility.yul\":2953:2957   */\n  0x24\n    /* \"#utility.yul\":2950:2951   */\n  0x00\n    /* \"#utility.yul\":2943:2958   */\n  revert\n    /* \"contracts/MyToken.sol\":119:622  contract MyToken is ERC20 {\r... */\ntag_11:\n  dataSize(sub_0)\n  dup1\n  dataOffset(sub_0)\n  0x00\n  codecopy\n  0x00\n  return\nstop\n\nsub_0: assembly {\n        /* \"contracts/MyToken.sol\":119:622  contract MyToken is ERC20 {\r... */\n      mstore(0x40, 0x80)\n      callvalue\n      dup1\n      iszero\n      tag_1\n      jumpi\n      0x00\n      dup1\n      revert\n    tag_1:\n      pop\n      jumpi(tag_2, lt(calldatasize, 0x04))\n      shr(0xe0, calldataload(0x00))\n      dup1\n      0x42966c68\n      gt\n      tag_17\n      jumpi\n      dup1\n      0x95d89b41\n      gt\n      tag_18\n      jumpi\n      dup1\n      0x95d89b41\n      eq\n      tag_13\n      jumpi\n      dup1\n      0xa457c2d7\n      eq\n      tag_14\n      jumpi\n      dup1\n      0xa9059cbb\n      eq\n      tag_15\n      jumpi\n      dup1\n      0xdd62ed3e\n      eq\n      tag_16\n      jumpi\n      jump(tag_2)\n    tag_18:\n      dup1\n      0x42966c68\n      eq\n      tag_10\n      jumpi\n      dup1\n      0x70a08231\n      eq\n      tag_11\n      jumpi\n      dup1\n      0x8da5cb5b\n      eq\n      tag_12\n      jumpi\n      jump(tag_2)\n    tag_17:\n      dup1\n      0x23b872dd\n      gt\n      tag_19\n      jumpi\n      dup1\n      0x23b872dd\n      eq\n      tag_6\n      jumpi\n      dup1\n      0x313ce567\n      eq\n      tag_7\n      jumpi\n      dup1\n      0x39509351\n      eq\n      tag_8\n      jumpi\n      dup1\n      0x40c10f19\n      eq\n      tag_9\n      jumpi\n      jump(tag_2)\n    tag_19:\n      dup1\n      0x06fdde03\n      eq\n      tag_3\n      jumpi\n      dup1\n      0x095ea7b3\n      eq\n      tag_4\n      jumpi\n      dup1\n      0x18160ddd\n      eq\n      tag_5\n      jumpi\n    tag_2:\n      0x00\n      dup1\n      revert\n        /* \"@openzeppelin/contracts/token/ERC20/ERC20.sol\":2158:2256  function name() public view virtual override returns (string memory) {... */\n    tag_3:\n      tag_20\n      tag_21\n      jump\t// in\n    tag_20:\n      mload(0x40)\n      tag_22\n      swap2\n      swap1\n      tag_23\n      jump\t// in\n    tag_22:\n      mload(0x40)\n      dup1\n      swap2\n      sub\n      swap1\n      return\n        /* \"@openzeppelin/contracts/token/ERC20/ERC20.sol\":4444:4641  function approve(address spender, uint256 amount) public virtual override returns (bool) {... */\n    tag_4:\n      tag_24\n      0x04\n      dup1\n      calldatasize\n      sub\n      dup2\n      add\n      swap1\n      tag_25\n      swap2\n      swap1\n      tag_26\n      jump\t// in\n    tag_25:\n      tag_27\n      jump\t// in\n    tag_24:\n      mload(0x40)\n      tag_28\n      swap2\n      swap1\n      tag_29\n      jump\t// in\n    tag_28:\n      mload(0x40)\n      dup1\n      swap2\n      sub\n      swap1\n      return\n        /* \"@openzeppelin/contracts/token/ERC20/ERC20.sol\":3255:3361  function totalSupply() public view virtual override returns (uint256) {... */\n    tag_5:\n      tag_30\n      tag_31\n      jump\t// in\n    tag_30:\n      mload(0x40)\n      tag_32\n      swap2\n      swap1\n      tag_33\n      jump\t// in\n    tag_32:\n      mload(0x40)\n      dup1\n      swap2\n      sub\n      swap1\n      return\n        /* \"@openzeppelin/contracts/token/ERC20/ERC20.sol\":5203:5459  function transferFrom(address from, address to, uint256 amount) public virtual override returns (bool) {... */\n    tag_6:\n      tag_34\n      0x04\n      dup1\n      calldatasize\n      sub\n      dup2\n      add\n      swap1\n      tag_35\n      swap2\n      swap1\n      tag_36\n      jump\t// in\n    tag_35:\n      tag_37\n      jump\t// in\n    tag_34:\n      mload(0x40)\n      tag_38\n      swap2\n      swap1\n      tag_29\n      jump\t// in\n    tag_38:\n      mload(0x40)\n      dup1\n      swap2\n      sub\n      swap1\n      return\n        /* \"@openzeppelin/contracts/token/ERC20/ERC20.sol\":3104:3195  function decimals() public view virtual override returns (uint8) {... */\n    tag_7:\n      tag_39\n      tag_40\n      jump\t// in\n    tag_39:\n      mload(0x40)\n      tag_41\n      swap2\n      swap1\n      tag_42\n      jump\t// in\n    tag_41:\n      mload(0x40)\n      dup1\n      swap2\n      sub\n      swap1\n      return\n        /* \"@openzeppelin/contracts/token/ERC20/ERC20.sol\":5854:6088  function increaseAllowance(address spender, uint256 addedValue) public virtual returns (bool) {... */\n    tag_8:\n      tag_43\n      0x04\n      dup1\n      calldatasize\n      sub\n      dup2\n      add\n      swap1\n      tag_44\n      swap2\n      swap1\n      tag_26\n      jump\t// in\n    tag_44:\n      tag_45\n      jump\t// in\n    tag_43:\n      mload(0x40)\n      tag_46\n      swap2\n      swap1\n      tag_29\n      jump\t// in\n    tag_46:\n      mload(0x40)\n      dup1\n      swap2\n      sub\n      swap1\n      return\n        /* \"contracts/MyToken.sol\":425:530  function mint(address account, uint256 amount) public onlyOwner {\r... */\n    tag_9:\n      tag_47\n      0x04\n      dup1\n      calldatasize\n      sub\n      dup2\n      add\n      swap1\n      tag_48\n      swap2\n      swap1\n      tag_26\n      jump\t// in\n    tag_48:\n      tag_49\n      jump\t// in\n    tag_47:\n      stop\n        /* \"contracts/MyToken.sol\":538:619  function burn(uint256 amount) public {\r... */\n    tag_10:\n      tag_50\n      0x04\n      dup1\n      calldatasize\n      sub\n      dup2\n      add\n      swap1\n      tag_51\n      swap2\n      swap1\n      tag_52\n      jump\t// in\n    tag_51:\n      tag_53\n      jump\t// in\n    tag_50:\n      stop\n        /* \"@openzeppelin/contracts/token/ERC20/ERC20.sol\":3419:3544  function balanceOf(address account) public view virtual override returns (uint256) {... */\n    tag_11:\n      tag_54\n      0x04\n      dup1\n      calldatasize\n      sub\n      dup2\n      add\n      swap1\n      tag_55\n      swap2\n      swap1\n      tag_56\n      jump\t// in\n    tag_55:\n      tag_57\n      jump\t// in\n    tag_54:\n      mload(0x40)\n      tag_58\n      swap2\n      swap1\n      tag_33\n      jump\t// in\n    tag_58:\n      mload(0x40)\n      dup1\n      swap2\n      sub\n      swap1\n      return\n        /* \"contracts/MyToken.sol\":152:172  address public owner */\n    tag_12:\n      tag_59\n      tag_60\n      jump\t// in\n    tag_59:\n      mload(0x40)\n      tag_61\n      swap2\n      swap1\n      tag_62\n      jump\t// in\n    tag_61:\n      mload(0x40)\n      dup1\n      swap2\n      sub\n      swap1\n      return\n        /* \"@openzeppelin/contracts/token/ERC20/ERC20.sol\":2369:2471  function symbol() public view virtual override returns (string memory) {... */\n    tag_13:\n      tag_63\n      tag_64\n      jump\t// in\n    tag_63:\n      mload(0x40)\n      tag_65\n      swap2\n      swap1\n      tag_23\n      jump\t// in\n    tag_65:\n      mload(0x40)\n      dup1\n      swap2\n      sub\n      swap1\n      return\n        /* \"@openzeppelin/contracts/token/ERC20/ERC20.sol\":6575:7002  function decreaseAllowance(address spender, uint256 subtractedValue) public virtual returns (bool) {... */\n    tag_14:\n      tag_66\n      0x04\n      dup1\n      calldatasize\n      sub\n      dup2\n      add\n      swap1\n      tag_67\n      swap2\n      swap1\n      tag_26\n      jump\t// in\n    tag_67:\n      tag_68\n      jump\t// in\n    tag_66:\n      mload(0x40)\n      tag_69\n      swap2\n      swap1\n      tag_29\n      jump\t// in\n    tag_69:\n      mload(0x40)\n      dup1\n      swap2\n      sub\n      swap1\n      return\n        /* \"@openzeppelin/contracts/token/ERC20/ERC20.sol\":3740:3929  function transfer(address to, uint256 amount) public virtual override returns (bool) {... */\n    tag_15:\n      tag_70\n      0x04\n      dup1\n      calldatasize\n      sub\n      dup2\n      add\n      swap1\n      tag_71\n      swap2\n      swap1\n      tag_26\n      jump\t// in\n    tag_71:\n      tag_72\n      jump\t// in\n    tag_70:\n      mload(0x40)\n      tag_73\n      swap2\n      swap1\n      tag_29\n      jump\t// in\n    tag_73:\n      mload(0x40)\n      dup1\n      swap2\n      sub\n      swap1\n      return\n        /* \"@openzeppelin/contracts/token/ERC20/ERC20.sol\":3987:4136  function allowance(address owner, address spender) public view virtual override returns (uint256) {... */\n    tag_16:\n      tag_74\n      0x04\n      dup1\n      calldatasize\n      sub\n      dup2\n      add\n      swap1\n      tag_75\n      swap2\n      swap1\n      tag_76\n      jump\t// in\n    tag_75:\n      tag_77\n      jump\t// in\n    tag_74:\n      mload(0x40)\n      tag_78\n      swap2\n      swap1\n      tag_33\n      jump\t// in\n    tag_78:\n      mload(0x40)\n      dup1\n      swap2\n      sub\n      swap1\n      return\n        /* \"@openzeppelin/contracts/token/ERC20/ERC20.sol\":2158:2256  function name() public view virtual override returns (string memory) {... */\n    tag_21:\n        /* \"@openzeppelin/contracts/token/ERC20/ERC20.sol\":2212:2225  string memory */\n      0x60\n        /* \"@openzeppelin/contracts/token/ERC20/ERC20.sol\":2244:2249  _name */\n      0x03\n        /* \"@openzeppelin/contracts/token/ERC20/ERC20.sol\":2237:2249  return _name */\n      dup1\n      sload\n      tag_80\n      swap1\n      tag_81\n      jump\t// in\n    tag_80:\n      dup1\n      0x1f\n      add\n      0x20\n      dup1\n      swap2\n      div\n      mul\n      0x20\n      add\n      mload(0x40)\n      swap1\n      dup2\n      add\n      0x40\n      mstore\n      dup1\n      swap3\n      swap2\n      swap1\n      dup2\n      dup2\n      mstore\n      0x20\n      add\n      dup3\n      dup1\n      sload\n      tag_82\n      swap1\n      tag_81\n      jump\t// in\n    tag_82:\n      dup1\n      iszero\n      tag_83\n      jumpi\n      dup1\n      0x1f\n      lt\n      tag_84\n      jumpi\n      0x0100\n      dup1\n      dup4\n      sload\n      div\n      mul\n      dup4\n      mstore\n      swap2\n      0x20\n      add\n      swap2\n      jump(tag_83)\n    tag_84:\n      dup3\n      add\n      swap2\n      swap1\n      0x00\n      mstore\n      keccak256(0x00, 0x20)\n      swap1\n    tag_85:\n      dup2\n      sload\n      dup2\n      mstore\n      swap1\n      0x01\n      add\n      swap1\n      0x20\n      add\n      dup1\n      dup4\n      gt\n      tag_85\n      jumpi\n      dup3\n      swap1\n      sub\n      0x1f\n      and\n      dup3\n      add\n      swap2\n    tag_83:\n      pop\n      pop\n      pop\n      pop\n      pop\n      swap1\n      pop\n        /* \"@openzeppelin/contracts/token/ERC20/ERC20.sol\":2158:2256  function name() public view virtual override returns (string memory) {... */\n      swap1\n      jump\t// out\n        /* \"@openzeppelin/contracts/token/ERC20/ERC20.sol\":4444:4641  function approve(address spender, uint256 amount) public virtual override returns (bool) {... */\n    tag_27:\n        /* \"@openzeppelin/contracts/token/ERC20/ERC20.sol\":4527:4531  bool */\n      0x00\n        /* \"@openzeppelin/contracts/token/ERC20/ERC20.sol\":4543:4556  address owner */\n      dup1\n        /* \"@openzeppelin/contracts/token/ERC20/ERC20.sol\":4559:4571  _msgSender() */\n      tag_87\n        /* \"@openzeppelin/contracts/token/ERC20/ERC20.sol\":4559:4569  _msgSender */\n      tag_88\n        /* \"@openzeppelin/contracts/token/ERC20/ERC20.sol\":4559:4571  _msgSender() */\n      jump\t// in\n    tag_87:\n        /* \"@openzeppelin/contracts/token/ERC20/ERC20.sol\":4543:4571  address owner = _msgSender() */\n      swap1\n      pop\n        /* \"@openzeppelin/contracts/token/ERC20/ERC20.sol\":4581:4613  _approve(owner, spender, amount) */\n      tag_89\n        /* \"@openzeppelin/contracts/token/ERC20/ERC20.sol\":4590:4595  owner */\n      dup2\n        /* \"@openzeppelin/contracts/token/ERC20/ERC20.sol\":4597:4604  spender */\n      dup6\n        /* \"@openzeppelin/contracts/token/ERC20/ERC20.sol\":4606:4612  amount */\n      dup6\n        /* \"@openzeppelin/contracts/token/ERC20/ERC20.sol\":4581:4589  _approve */\n      tag_90\n        /* \"@openzeppelin/contracts/token/ERC20/ERC20.sol\":4581:4613  _approve(owner, spender, amount) */\n      jump\t// in\n    tag_89:\n        /* \"@openzeppelin/contracts/token/ERC20/ERC20.sol\":4630:4634  true */\n      0x01\n        /* \"@openzeppelin/contracts/token/ERC20/ERC20.sol\":4623:4634  return true */\n      swap2\n      pop\n      pop\n        /* \"@openzeppelin/contracts/token/ERC20/ERC20.sol\":4444:4641  function approve(address spender, uint256 amount) public virtual override returns (bool) {... */\n      swap3\n      swap2\n      pop\n      pop\n      jump\t// out\n        /* \"@openzeppelin/contracts/token/ERC20/ERC20.sol\":3255:3361  function totalSupply() public view virtual override returns (uint256) {... */\n    tag_31:\n        /* \"@openzeppelin/contracts/token/ERC20/ERC20.sol\":3316:3323  uint256 */\n      0x00\n        /* \"@openzeppelin/contracts/token/ERC20/ERC20.sol\":3342:3354  _totalSupply */\n      sload(0x02)\n        /* \"@openzeppelin/contracts/token/ERC20/ERC20.sol\":3335:3354  return _totalSupply */\n      swap1\n      pop\n        /* \"@openzeppelin/contracts/token/ERC20/ERC20.sol\":3255:3361  function totalSupply() public view virtual override returns (uint256) {... */\n      swap1\n      jump\t// out\n        /* \"@openzeppelin/contracts/token/ERC20/ERC20.sol\":5203:5459  function transferFrom(address from, address to, uint256 amount) public virtual override returns (bool) {... */\n    tag_37:\n        /* \"@openzeppelin/contracts/token/ERC20/ERC20.sol\":5300:5304  bool */\n      0x00\n        /* \"@openzeppelin/contracts/token/ERC20/ERC20.sol\":5316:5331  address spender */\n      dup1\n        /* \"@openzeppelin/contracts/token/ERC20/ERC20.sol\":5334:5346  _msgSender() */\n      tag_93\n        /* \"@openzeppelin/contracts/token/ERC20/ERC20.sol\":5334:5344  _msgSender */\n      tag_88\n        /* \"@openzeppelin/contracts/token/ERC20/ERC20.sol\":5334:5346  _msgSender() */\n      jump\t// in\n    tag_93:\n        /* \"@openzeppelin/contracts/token/ERC20/ERC20.sol\":5316:5346  address spender = _msgSender() */\n      swap1\n      pop\n        /* \"@openzeppelin/contracts/token/ERC20/ERC20.sol\":5356:5394  _spendAllowance(from, spender, amount) */\n      tag_94\n        /* \"@openzeppelin/contracts/token/ERC20/ERC20.sol\":5372:5376  from */\n      dup6\n        /* \"@openzeppelin/contracts/token/ERC20/ERC20.sol\":5378:5385  spender */\n      dup3\n        /* \"@openzeppelin/contracts/token/ERC20/ERC20.sol\":5387:5393  amount */\n      dup6\n        /* \"@openzeppelin/contracts/token/ERC20/ERC20.sol\":5356:5371  _spendAllowance */\n      tag_95\n        /* \"@openzeppelin/contracts/token/ERC20/ERC20.sol\":5356:5394  _spendAllowance(from, spender, amount) */\n      jump\t// in\n    tag_94:\n        /* \"@openzeppelin/contracts/token/ERC20/ERC20.sol\":5404:5431  _transfer(from, to, amount) */\n      tag_96\n        /* \"@openzeppelin/contracts/token/ERC20/ERC20.sol\":5414:5418  from */\n      dup6\n        /* \"@openzeppelin/contracts/token/ERC20/ERC20.sol\":5420:5422  to */\n      dup6\n        /* \"@openzeppelin/contracts/token/ERC20/ERC20.sol\":5424:5430  amount */\n      dup6\n        /* \"@openzeppelin/contracts/token/ERC20/ERC20.sol\":5404:5413  _transfer */\n      tag_97\n        /* \"@openzeppelin/contracts/token/ERC20/ERC20.sol\":5404:5431  _transfer(from, to, amount) */\n      jump\t// in\n    tag_96:\n        /* \"@openzeppelin/contracts/token/ERC20/ERC20.sol\":5448:5452  true */\n      0x01\n        /* \"@openzeppelin/contracts/token/ERC20/ERC20.sol\":5441:5452  return true */\n      swap2\n      pop\n      pop\n        /* \"@openzeppelin/contracts/token/ERC20/ERC20.sol\":5203:5459  function transferFrom(address from, address to, uint256 amount) public virtual override returns (bool) {... */\n      swap4\n      swap3\n      pop\n      pop\n      pop\n      jump\t// out\n        /* \"@openzeppelin/contracts/token/ERC20/ERC20.sol\":3104:3195  function decimals() public view virtual override returns (uint8) {... */\n    tag_40:\n        /* \"@openzeppelin/contracts/token/ERC20/ERC20.sol\":3162:3167  uint8 */\n      0x00\n        /* \"@openzeppelin/contracts/token/ERC20/ERC20.sol\":3186:3188  18 */\n      0x12\n        /* \"@openzeppelin/contracts/token/ERC20/ERC20.sol\":3179:3188  return 18 */\n      swap1\n      pop\n        /* \"@openzeppelin/contracts/token/ERC20/ERC20.sol\":3104:3195  function decimals() public view virtual override returns (uint8) {... */\n      swap1\n      jump\t// out\n        /* \"@openzeppelin/contracts/token/ERC20/ERC20.sol\":5854:6088  function increaseAllowance(address spender, uint256 addedValue) public virtual returns (bool) {... */\n    tag_45:\n        /* \"@openzeppelin/contracts/token/ERC20/ERC20.sol\":5942:5946  bool */\n      0x00\n        /* \"@openzeppelin/contracts/token/ERC20/ERC20.sol\":5958:5971  address owner */\n      dup1\n        /* \"@openzeppelin/contracts/token/ERC20/ERC20.sol\":5974:5986  _msgSender() */\n      tag_100\n        /* \"@openzeppelin/contracts/token/ERC20/ERC20.sol\":5974:5984  _msgSender */\n      tag_88\n        /* \"@openzeppelin/contracts/token/ERC20/ERC20.sol\":5974:5986  _msgSender() */\n      jump\t// in\n    tag_100:\n        /* \"@openzeppelin/contracts/token/ERC20/ERC20.sol\":5958:5986  address owner = _msgSender() */\n      swap1\n      pop\n        /* \"@openzeppelin/contracts/token/ERC20/ERC20.sol\":5996:6060  _approve(owner, spender, allowance(owner, spender) + addedValue) */\n      tag_101\n        /* \"@openzeppelin/contracts/token/ERC20/ERC20.sol\":6005:6010  owner */\n      dup2\n        /* \"@openzeppelin/contracts/token/ERC20/ERC20.sol\":6012:6019  spender */\n      dup6\n        /* \"@openzeppelin/contracts/token/ERC20/ERC20.sol\":6049:6059  addedValue */\n      dup6\n        /* \"@openzeppelin/contracts/token/ERC20/ERC20.sol\":6021:6046  allowance(owner, spender) */\n      tag_102\n        /* \"@openzeppelin/contracts/token/ERC20/ERC20.sol\":6031:6036  owner */\n      dup6\n        /* \"@openzeppelin/contracts/token/ERC20/ERC20.sol\":6038:6045  spender */\n      dup10\n        /* \"@openzeppelin/contracts/token/ERC20/ERC20.sol\":6021:6030  allowance */\n      tag_77\n        /* \"@openzeppelin/contracts/token/ERC20/ERC20.sol\":6021:6046  allowance(owner, spender) */\n      jump\t// in\n    tag_102:\n        /* \"@openzeppelin/contracts/token/ERC20/ERC20.sol\":6021:6059  allowance(owner, spender) + addedValue */\n      tag_103\n      swap2\n      swap1\n      tag_104\n      jump\t// in\n    tag_103:\n        /* \"@openzeppelin/contracts/token/ERC20/ERC20.sol\":5996:6004  _approve */\n      tag_90\n        /* \"@openzeppelin/contracts/token/ERC20/ERC20.sol\":5996:6060  _approve(owner, spender, allowance(owner, spender) + addedValue) */\n      jump\t// in\n    tag_101:\n        /* \"@openzeppelin/contracts/token/ERC20/ERC20.sol\":6077:6081  true */\n      0x01\n        /* \"@openzeppelin/contracts/token/ERC20/ERC20.sol\":6070:6081  return true */\n      swap2\n      pop\n      pop\n        /* \"@openzeppelin/contracts/token/ERC20/ERC20.sol\":5854:6088  function increaseAllowance(address spender, uint256 addedValue) public virtual returns (bool) {... */\n      swap3\n      swap2\n      pop\n      pop\n      jump\t// out\n        /* \"contracts/MyToken.sol\":425:530  function mint(address account, uint256 amount) public onlyOwner {\r... */\n    tag_49:\n        /* \"contracts/MyToken.sol\":364:369  owner */\n      0x05\n      0x00\n      swap1\n      sload\n      swap1\n      0x0100\n      exp\n      swap1\n      div\n      0xffffffffffffffffffffffffffffffffffffffff\n      and\n        /* \"contracts/MyToken.sol\":350:369  msg.sender == owner */\n      0xffffffffffffffffffffffffffffffffffffffff\n      and\n        /* \"contracts/MyToken.sol\":350:360  msg.sender */\n      caller\n        /* \"contracts/MyToken.sol\":350:369  msg.sender == owner */\n      0xffffffffffffffffffffffffffffffffffffffff\n      and\n      eq\n        /* \"contracts/MyToken.sol\":342:397  require(msg.sender == owner, \"Caller is not the owner\") */\n      tag_106\n      jumpi\n      mload(0x40)\n      0x08c379a000000000000000000000000000000000000000000000000000000000\n      dup2\n      mstore\n      0x04\n      add\n      tag_107\n      swap1\n      tag_108\n      jump\t// in\n    tag_107:\n      mload(0x40)\n      dup1\n      swap2\n      sub\n      swap1\n      revert\n    tag_106:\n        /* \"contracts/MyToken.sol\":500:522  _mint(account, amount) */\n      tag_110\n        /* \"contracts/MyToken.sol\":506:513  account */\n      dup3\n        /* \"contracts/MyToken.sol\":515:521  amount */\n      dup3\n        /* \"contracts/MyToken.sol\":500:505  _mint */\n      tag_111\n        /* \"contracts/MyToken.sol\":500:522  _mint(account, amount) */\n      jump\t// in\n    tag_110:\n        /* \"contracts/MyToken.sol\":425:530  function mint(address account, uint256 amount) public onlyOwner {\r... */\n      pop\n      pop\n      jump\t// out\n        /* \"contracts/MyToken.sol\":538:619  function burn(uint256 amount) public {\r... */\n    tag_53:\n        /* \"contracts/MyToken.sol\":586:611  _burn(msg.sender, amount) */\n      tag_113\n        /* \"contracts/MyToken.sol\":592:602  msg.sender */\n      caller\n        /* \"contracts/MyToken.sol\":604:610  amount */\n      dup3\n        /* \"contracts/MyToken.sol\":586:591  _burn */\n      tag_114\n        /* \"contracts/MyToken.sol\":586:611  _burn(msg.sender, amount) */\n      jump\t// in\n    tag_113:\n        /* \"contracts/MyToken.sol\":538:619  function burn(uint256 amount) public {\r... */\n      pop\n      jump\t// out\n        /* \"@openzeppelin/contracts/token/ERC20/ERC20.sol\":3419:3544  function balanceOf(address account) public view virtual override returns (uint256) {... */\n    tag_57:\n        /* \"@openzeppelin/contracts/token/ERC20/ERC20.sol\":3493:3500  uint256 */\n      0x00\n        /* \"@openzeppelin/contracts/token/ERC20/ERC20.sol\":3519:3528  _balances */\n      dup1\n        /* \"@openzeppelin/contracts/token/ERC20/ERC20.sol\":3519:3537  _balances[account] */\n      0x00\n        /* \"@openzeppelin/contracts/token/ERC20/ERC20.sol\":3529:3536  account */\n      dup4\n        /* \"@openzeppelin/contracts/token/ERC20/ERC20.sol\":3519:3537  _balances[account] */\n      0xffffffffffffffffffffffffffffffffffffffff\n      and\n      0xffffffffffffffffffffffffffffffffffffffff\n      and\n      dup2\n      mstore\n      0x20\n      add\n      swap1\n      dup2\n      mstore\n      0x20\n      add\n      0x00\n      keccak256\n      sload\n        /* \"@openzeppelin/contracts/token/ERC20/ERC20.sol\":3512:3537  return _balances[account] */\n      swap1\n      pop\n        /* \"@openzeppelin/contracts/token/ERC20/ERC20.sol\":3419:3544  function balanceOf(address account) public view virtual override returns (uint256) {... */\n      swap2\n      swap1\n      pop\n      jump\t// out\n        /* \"contracts/MyToken.sol\":152:172  address public owner */\n    tag_60:\n      0x05\n      0x00\n      swap1\n      sload\n      swap1\n      0x0100\n      exp\n      swap1\n      div\n      0xffffffffffffffffffffffffffffffffffffffff\n      and\n      dup2\n      jump\t// out\n        /* \"@openzeppelin/contracts/token/ERC20/ERC20.sol\":2369:2471  function symbol() public view virtual override returns (string memory) {... */\n    tag_64:\n        /* \"@openzeppelin/contracts/token/ERC20/ERC20.sol\":2425:2438  string memory */\n      0x60\n        /* \"@openzeppelin/contracts/token/ERC20/ERC20.sol\":2457:2464  _symbol */\n      0x04\n        /* \"@openzeppelin/contracts/token/ERC20/ERC20.sol\":2450:2464  return _symbol */\n      dup1\n      sload\n      tag_117\n      swap1\n      tag_81\n      jump\t// in\n    tag_117:\n      dup1\n      0x1f\n      add\n      0x20\n      dup1\n      swap2\n      div\n      mul\n      0x20\n      add\n      mload(0x40)\n      swap1\n      dup2\n      add\n      0x40\n      mstore\n      dup1\n      swap3\n      swap2\n      swap1\n      dup2\n      dup2\n      mstore\n      0x20\n      add\n      dup3\n      dup1\n      sload\n      tag_118\n      swap1\n      tag_81\n      jump\t// in\n    tag_118:\n      dup1\n      iszero\n      tag_119\n      jumpi\n      dup1\n      0x1f\n      lt\n      tag_120\n      jumpi\n      0x0100\n      dup1\n      dup4\n      sload\n      div\n      mul\n      dup4\n      mstore\n      swap2\n      0x20\n      add\n      swap2\n      jump(tag_119)\n    tag_120:\n      dup3\n      add\n      swap2\n      swap1\n      0x00\n      mstore\n      keccak256(0x00, 0x20)\n      swap1\n    tag_121:\n      dup2\n      sload\n      dup2\n      mstore\n      swap1\n      0x01\n      add\n      swap1\n      0x20\n      add\n      dup1\n      dup4\n      gt\n      tag_121\n      jumpi\n      dup3\n      swap1\n      sub\n      0x1f\n      and\n      dup3\n      add\n      swap2\n    tag_119:\n      pop\n      pop\n      pop\n      pop\n      pop\n      swap1\n      pop\n        /* \"@openzeppelin/contracts/token/ERC20/ERC20.sol\":2369:2471  function symbol() public view virtual override returns (string memory) {... */\n      swap1\n      jump\t// out\n        /* \"@openzeppelin/contracts/token/ERC20/ERC20.sol\":6575:7002  function decreaseAllowance(address spender, uint256 subtractedValue) public virtual returns (bool) {... */\n    tag_68:\n        /* \"@openzeppelin/contracts/token/ERC20/ERC20.sol\":6668:6672  bool */\n      0x00\n        /* \"@openzeppelin/contracts/token/ERC20/ERC20.sol\":6684:6697  address owner */\n      dup1\n        /* \"@openzeppelin/contracts/token/ERC20/ERC20.sol\":6700:6712  _msgSender() */\n      tag_123\n        /* \"@openzeppelin/contracts/token/ERC20/ERC20.sol\":6700:6710  _msgSender */\n      tag_88\n        /* \"@openzeppelin/contracts/token/ERC20/ERC20.sol\":6700:6712  _msgSender() */\n      jump\t// in\n    tag_123:\n        /* \"@openzeppelin/contracts/token/ERC20/ERC20.sol\":6684:6712  address owner = _msgSender() */\n      swap1\n      pop\n        /* \"@openzeppelin/contracts/token/ERC20/ERC20.sol\":6722:6746  uint256 currentAllowance */\n      0x00\n        /* \"@openzeppelin/contracts/token/ERC20/ERC20.sol\":6749:6774  allowance(owner, spender) */\n      tag_124\n        /* \"@openzeppelin/contracts/token/ERC20/ERC20.sol\":6759:6764  owner */\n      dup3\n        /* \"@openzeppelin/contracts/token/ERC20/ERC20.sol\":6766:6773  spender */\n      dup7\n        /* \"@openzeppelin/contracts/token/ERC20/ERC20.sol\":6749:6758  allowance */\n      tag_77\n        /* \"@openzeppelin/contracts/token/ERC20/ERC20.sol\":6749:6774  allowance(owner, spender) */\n      jump\t// in\n    tag_124:\n        /* \"@openzeppelin/contracts/token/ERC20/ERC20.sol\":6722:6774  uint256 currentAllowance = allowance(owner, spender) */\n      swap1\n      pop\n        /* \"@openzeppelin/contracts/token/ERC20/ERC20.sol\":6812:6827  subtractedValue */\n      dup4\n        /* \"@openzeppelin/contracts/token/ERC20/ERC20.sol\":6792:6808  currentAllowance */\n      dup2\n        /* \"@openzeppelin/contracts/token/ERC20/ERC20.sol\":6792:6827  currentAllowance >= subtractedValue */\n      lt\n      iszero\n        /* \"@openzeppelin/contracts/token/ERC20/ERC20.sol\":6784:6869  require(currentAllowance >= subtractedValue, \"ERC20: decreased allowance below zero\") */\n      tag_125\n      jumpi\n      mload(0x40)\n      0x08c379a000000000000000000000000000000000000000000000000000000000\n      dup2\n      mstore\n      0x04\n      add\n      tag_126\n      swap1\n      tag_127\n      jump\t// in\n    tag_126:\n      mload(0x40)\n      dup1\n      swap2\n      sub\n      swap1\n      revert\n    tag_125:\n        /* \"@openzeppelin/contracts/token/ERC20/ERC20.sol\":6903:6963  _approve(owner, spender, currentAllowance - subtractedValue) */\n      tag_128\n        /* \"@openzeppelin/contracts/token/ERC20/ERC20.sol\":6912:6917  owner */\n      dup3\n        /* \"@openzeppelin/contracts/token/ERC20/ERC20.sol\":6919:6926  spender */\n      dup7\n        /* \"@openzeppelin/contracts/token/ERC20/ERC20.sol\":6947:6962  subtractedValue */\n      dup7\n        /* \"@openzeppelin/contracts/token/ERC20/ERC20.sol\":6928:6944  currentAllowance */\n      dup5\n        /* \"@openzeppelin/contracts/token/ERC20/ERC20.sol\":6928:6962  currentAllowance - subtractedValue */\n      sub\n        /* \"@openzeppelin/contracts/token/ERC20/ERC20.sol\":6903:6911  _approve */\n      tag_90\n        /* \"@openzeppelin/contracts/token/ERC20/ERC20.sol\":6903:6963  _approve(owner, spender, currentAllowance - subtractedValue) */\n      jump\t// in\n    tag_128:\n        /* \"@openzeppelin/contracts/token/ERC20/ERC20.sol\":6991:6995  true */\n      0x01\n        /* \"@openzeppelin/contracts/token/ERC20/ERC20.sol\":6984:6995  return true */\n      swap3\n      pop\n      pop\n      pop\n        /* \"@openzeppelin/contracts/token/ERC20/ERC20.sol\":6575:7002  function decreaseAllowance(address spender, uint256 subtractedValue) public virtual returns (bool) {... */\n      swap3\n      swap2\n      pop\n      pop\n      jump\t// out\n        /* \"@openzeppelin/contracts/token/ERC20/ERC20.sol\":3740:3929  function transfer(address to, uint256 amount) public virtual override returns (bool) {... */\n    tag_72:\n        /* \"@openzeppelin/contracts/token/ERC20/ERC20.sol\":3819:3823  bool */\n      0x00\n        /* \"@openzeppelin/contracts/token/ERC20/ERC20.sol\":3835:3848  address owner */\n      dup1\n        /* \"@openzeppelin/contracts/token/ERC20/ERC20.sol\":3851:3863  _msgSender() */\n      tag_130\n        /* \"@openzeppelin/contracts/token/ERC20/ERC20.sol\":3851:3861  _msgSender */\n      tag_88\n        /* \"@openzeppelin/contracts/token/ERC20/ERC20.sol\":3851:3863  _msgSender() */\n      jump\t// in\n    tag_130:\n        /* \"@openzeppelin/contracts/token/ERC20/ERC20.sol\":3835:3863  address owner = _msgSender() */\n      swap1\n      pop\n        /* \"@openzeppelin/contracts/token/ERC20/ERC20.sol\":3873:3901  _transfer(owner, to, amount) */\n      tag_131\n        /* \"@openzeppelin/contracts/token/ERC20/ERC20.sol\":3883:3888  owner */\n      dup2\n        /* \"@openzeppelin/contracts/token/ERC20/ERC20.sol\":3890:3892  to */\n      dup6\n        /* \"@openzeppelin/contracts/token/ERC20/ERC20.sol\":3894:3900  amount */\n      dup6\n        /* \"@openzeppelin/contracts/token/ERC20/ERC20.sol\":3873:3882  _transfer */\n      tag_97\n        /* \"@openzeppelin/contracts/token/ERC20/ERC20.sol\":3873:3901  _transfer(owner, to, amount) */\n      jump\t// in\n    tag_131:\n        /* \"@openzeppelin/contracts/token/ERC20/ERC20.sol\":3918:3922  true */\n      0x01\n        /* \"@openzeppelin/contracts/token/ERC20/ERC20.sol\":3911:3922  return true */\n      swap2\n      pop\n      pop\n        /* \"@openzeppelin/contracts/token/ERC20/ERC20.sol\":3740:3929  function transfer(address to, uint256 amount) public virtual override returns (bool) {... */\n      swap3\n      swap2\n      pop\n      pop\n      jump\t// out\n        /* \"@openzeppelin/contracts/token/ERC20/ERC20.sol\":3987:4136  function allowance(address owner, address spender) public view virtual override returns (uint256) {... */\n    tag_77:\n        /* \"@openzeppelin/contracts/token/ERC20/ERC20.sol\":4076:4083  uint256 */\n      0x00\n        /* \"@openzeppelin/contracts/token/ERC20/ERC20.sol\":4102:4113  _allowances */\n      0x01\n        /* \"@openzeppelin/contracts/token/ERC20/ERC20.sol\":4102:4120  _allowances[owner] */\n      0x00\n        /* \"@openzeppelin/contracts/token/ERC20/ERC20.sol\":4114:4119  owner */\n      dup5\n        /* \"@openzeppelin/contracts/token/ERC20/ERC20.sol\":4102:4120  _allowances[owner] */\n      0xffffffffffffffffffffffffffffffffffffffff\n      and\n      0xffffffffffffffffffffffffffffffffffffffff\n      and\n      dup2\n      mstore\n      0x20\n      add\n      swap1\n      dup2\n      mstore\n      0x20\n      add\n      0x00\n      keccak256\n        /* \"@openzeppelin/contracts/token/ERC20/ERC20.sol\":4102:4129  _allowances[owner][spender] */\n      0x00\n        /* \"@openzeppelin/contracts/token/ERC20/ERC20.sol\":4121:4128  spender */\n      dup4\n        /* \"@openzeppelin/contracts/token/ERC20/ERC20.sol\":4102:4129  _allowances[owner][spender] */\n      0xffffffffffffffffffffffffffffffffffffffff\n      and\n      0xffffffffffffffffffffffffffffffffffffffff\n      and\n      dup2\n      mstore\n      0x20\n      add\n      swap1\n      dup2\n      mstore\n      0x20\n      add\n      0x00\n      keccak256\n      sload\n        /* \"@openzeppelin/contracts/token/ERC20/ERC20.sol\":4095:4129  return _allowances[owner][spender] */\n      swap1\n      pop\n        /* \"@openzeppelin/contracts/token/ERC20/ERC20.sol\":3987:4136  function allowance(address owner, address spender) public view virtual override returns (uint256) {... */\n      swap3\n      swap2\n      pop\n      pop\n      jump\t// out\n        /* \"@openzeppelin/contracts/utils/Context.sol\":640:736  function _msgSender() internal view virtual returns (address) {... */\n    tag_88:\n        /* \"@openzeppelin/contracts/utils/Context.sol\":693:700  address */\n      0x00\n        /* \"@openzeppelin/contracts/utils/Context.sol\":719:729  msg.sender */\n      caller\n        /* \"@openzeppelin/contracts/utils/Context.sol\":712:729  return msg.sender */\n      swap1\n      pop\n        /* \"@openzeppelin/contracts/utils/Context.sol\":640:736  function _msgSender() internal view virtual returns (address) {... */\n      swap1\n      jump\t// out\n        /* \"@openzeppelin/contracts/token/ERC20/ERC20.sol\":10457:10797  function _approve(address owner, address spender, uint256 amount) internal virtual {... */\n    tag_90:\n        /* \"@openzeppelin/contracts/token/ERC20/ERC20.sol\":10575:10576  0 */\n      0x00\n        /* \"@openzeppelin/contracts/token/ERC20/ERC20.sol\":10558:10577  owner != address(0) */\n      0xffffffffffffffffffffffffffffffffffffffff\n      and\n        /* \"@openzeppelin/contracts/token/ERC20/ERC20.sol\":10558:10563  owner */\n      dup4\n        /* \"@openzeppelin/contracts/token/ERC20/ERC20.sol\":10558:10577  owner != address(0) */\n      0xffffffffffffffffffffffffffffffffffffffff\n      and\n      eq\n      iszero\n        /* \"@openzeppelin/contracts/token/ERC20/ERC20.sol\":10550:10618  require(owner != address(0), \"ERC20: approve from the zero address\") */\n      tag_135\n      jumpi\n      mload(0x40)\n      0x08c379a000000000000000000000000000000000000000000000000000000000\n      dup2\n      mstore\n      0x04\n      add\n      tag_136\n      swap1\n      tag_137\n      jump\t// in\n    tag_136:\n      mload(0x40)\n      dup1\n      swap2\n      sub\n      swap1\n      revert\n    tag_135:\n        /* \"@openzeppelin/contracts/token/ERC20/ERC20.sol\":10655:10656  0 */\n      0x00\n        /* \"@openzeppelin/contracts/token/ERC20/ERC20.sol\":10636:10657  spender != address(0) */\n      0xffffffffffffffffffffffffffffffffffffffff\n      and\n        /* \"@openzeppelin/contracts/token/ERC20/ERC20.sol\":10636:10643  spender */\n      dup3\n        /* \"@openzeppelin/contracts/token/ERC20/ERC20.sol\":10636:10657  spender != address(0) */\n      0xffffffffffffffffffffffffffffffffffffffff\n      and\n      eq\n      iszero\n        /* \"@openzeppelin/contracts/token/ERC20/ERC20.sol\":10628:10696  require(spender != address(0), \"ERC20: approve to the zero address\") */\n      tag_138\n      jumpi\n      mload(0x40)\n      0x08c379a000000000000000000000000000000000000000000000000000000000\n      dup2\n      mstore\n      0x04\n      add\n      tag_139\n      swap1\n      tag_140\n      jump\t// in\n    tag_139:\n      mload(0x40)\n      dup1\n      swap2\n      sub\n      swap1\n      revert\n    tag_138:\n        /* \"@openzeppelin/contracts/token/ERC20/ERC20.sol\":10737:10743  amount */\n      dup1\n        /* \"@openzeppelin/contracts/token/ERC20/ERC20.sol\":10707:10718  _allowances */\n      0x01\n        /* \"@openzeppelin/contracts/token/ERC20/ERC20.sol\":10707:10725  _allowances[owner] */\n      0x00\n        /* \"@openzeppelin/contracts/token/ERC20/ERC20.sol\":10719:10724  owner */\n      dup6\n        /* \"@openzeppelin/contracts/token/ERC20/ERC20.sol\":10707:10725  _allowances[owner] */\n      0xffffffffffffffffffffffffffffffffffffffff\n      and\n      0xffffffffffffffffffffffffffffffffffffffff\n      and\n      dup2\n      mstore\n      0x20\n      add\n      swap1\n      dup2\n      mstore\n      0x20\n      add\n      0x00\n      keccak256\n        /* \"@openzeppelin/contracts/token/ERC20/ERC20.sol\":10707:10734  _allowances[owner][spender] */\n      0x00\n        /* \"@openzeppelin/contracts/token/ERC20/ERC20.sol\":10726:10733  spender */\n      dup5\n        /* \"@openzeppelin/contracts/token/ERC20/ERC20.sol\":10707:10734  _allowances[owner][spender] */\n      0xffffffffffffffffffffffffffffffffffffffff\n      and\n      0xffffffffffffffffffffffffffffffffffffffff\n      and\n      dup2\n      mstore\n      0x20\n      add\n      swap1\n      dup2\n      mstore\n      0x20\n      add\n      0x00\n      keccak256\n        /* \"@openzeppelin/contracts/token/ERC20/ERC20.sol\":10707:10743  _allowances[owner][spender] = amount */\n      dup2\n      swap1\n      sstore\n      pop\n        /* \"@openzeppelin/contracts/token/ERC20/ERC20.sol\":10774:10781  spender */\n      dup2\n        /* \"@openzeppelin/contracts/token/ERC20/ERC20.sol\":10758:10790  Approval(owner, spender, amount) */\n      0xffffffffffffffffffffffffffffffffffffffff\n      and\n        /* \"@openzeppelin/contracts/token/ERC20/ERC20.sol\":10767:10772  owner */\n      dup4\n        /* \"@openzeppelin/contracts/token/ERC20/ERC20.sol\":10758:10790  Approval(owner, spender, amount) */\n      0xffffffffffffffffffffffffffffffffffffffff\n      and\n      0x8c5be1e5ebec7d5bd14f71427d1e84f3dd0314c0f7b2291e5b200ac8c7c3b925\n        /* \"@openzeppelin/contracts/token/ERC20/ERC20.sol\":10783:10789  amount */\n      dup4\n        /* \"@openzeppelin/contracts/token/ERC20/ERC20.sol\":10758:10790  Approval(owner, spender, amount) */\n      mload(0x40)\n      tag_141\n      swap2\n      swap1\n      tag_33\n      jump\t// in\n    tag_141:\n      mload(0x40)\n      dup1\n      swap2\n      sub\n      swap1\n      log3\n        /* \"@openzeppelin/contracts/token/ERC20/ERC20.sol\":10457:10797  function _approve(address owner, address spender, uint256 amount) internal virtual {... */\n      pop\n      pop\n      pop\n      jump\t// out\n        /* \"@openzeppelin/contracts/token/ERC20/ERC20.sol\":11078:11489  function _spendAllowance(address owner, address spender, uint256 amount) internal virtual {... */\n    tag_95:\n        /* \"@openzeppelin/contracts/token/ERC20/ERC20.sol\":11178:11202  uint256 currentAllowance */\n      0x00\n        /* \"@openzeppelin/contracts/token/ERC20/ERC20.sol\":11205:11230  allowance(owner, spender) */\n      tag_143\n        /* \"@openzeppelin/contracts/token/ERC20/ERC20.sol\":11215:11220  owner */\n      dup5\n        /* \"@openzeppelin/contracts/token/ERC20/ERC20.sol\":11222:11229  spender */\n      dup5\n        /* \"@openzeppelin/contracts/token/ERC20/ERC20.sol\":11205:11214  allowance */\n      tag_77\n        /* \"@openzeppelin/contracts/token/ERC20/ERC20.sol\":11205:11230  allowance(owner, spender) */\n      jump\t// in\n    tag_143:\n        /* \"@openzeppelin/contracts/token/ERC20/ERC20.sol\":11178:11230  uint256 currentAllowance = allowance(owner, spender) */\n      swap1\n      pop\n        /* \"@openzeppelin/contracts/token/ERC20/ERC20.sol\":11264:11281  type(uint256).max */\n      0xffffffffffffffffffffffffffffffffffffffffffffffffffffffffffffffff\n        /* \"@openzeppelin/contracts/token/ERC20/ERC20.sol\":11244:11260  currentAllowance */\n      dup2\n        /* \"@openzeppelin/contracts/token/ERC20/ERC20.sol\":11244:11281  currentAllowance != type(uint256).max */\n      eq\n        /* \"@openzeppelin/contracts/token/ERC20/ERC20.sol\":11240:11483  if (currentAllowance != type(uint256).max) {... */\n      tag_144\n      jumpi\n        /* \"@openzeppelin/contracts/token/ERC20/ERC20.sol\":11325:11331  amount */\n      dup2\n        /* \"@openzeppelin/contracts/token/ERC20/ERC20.sol\":11305:11321  currentAllowance */\n      dup2\n        /* \"@openzeppelin/contracts/token/ERC20/ERC20.sol\":11305:11331  currentAllowance >= amount */\n      lt\n      iszero\n        /* \"@openzeppelin/contracts/token/ERC20/ERC20.sol\":11297:11365  require(currentAllowance >= amount, \"ERC20: insufficient allowance\") */\n      tag_145\n      jumpi\n      mload(0x40)\n      0x08c379a000000000000000000000000000000000000000000000000000000000\n      dup2\n      mstore\n      0x04\n      add\n      tag_146\n      swap1\n      tag_147\n      jump\t// in\n    tag_146:\n      mload(0x40)\n      dup1\n      swap2\n      sub\n      swap1\n      revert\n    tag_145:\n        /* \"@openzeppelin/contracts/token/ERC20/ERC20.sol\":11407:11458  _approve(owner, spender, currentAllowance - amount) */\n      tag_148\n        /* \"@openzeppelin/contracts/token/ERC20/ERC20.sol\":11416:11421  owner */\n      dup5\n        /* \"@openzeppelin/contracts/token/ERC20/ERC20.sol\":11423:11430  spender */\n      dup5\n        /* \"@openzeppelin/contracts/token/ERC20/ERC20.sol\":11451:11457  amount */\n      dup5\n        /* \"@openzeppelin/contracts/token/ERC20/ERC20.sol\":11432:11448  currentAllowance */\n      dup5\n        /* \"@openzeppelin/contracts/token/ERC20/ERC20.sol\":11432:11457  currentAllowance - amount */\n      sub\n        /* \"@openzeppelin/contracts/token/ERC20/ERC20.sol\":11407:11415  _approve */\n      tag_90\n        /* \"@openzeppelin/contracts/token/ERC20/ERC20.sol\":11407:11458  _approve(owner, spender, currentAllowance - amount) */\n      jump\t// in\n    tag_148:\n        /* \"@openzeppelin/contracts/token/ERC20/ERC20.sol\":11240:11483  if (currentAllowance != type(uint256).max) {... */\n    tag_144:\n        /* \"@openzeppelin/contracts/token/ERC20/ERC20.sol\":11078:11489  function _spendAllowance(address owner, address spender, uint256 amount) internal virtual {... */\n      pop\n      pop\n      pop\n      pop\n      jump\t// out\n        /* \"@openzeppelin/contracts/token/ERC20/ERC20.sol\":7456:8244  function _transfer(address from, address to, uint256 amount) internal virtual {... */\n    tag_97:\n        /* \"@openzeppelin/contracts/token/ERC20/ERC20.sol\":7568:7569  0 */\n      0x00\n        /* \"@openzeppelin/contracts/token/ERC20/ERC20.sol\":7552:7570  from != address(0) */\n      0xffffffffffffffffffffffffffffffffffffffff\n      and\n        /* \"@openzeppelin/contracts/token/ERC20/ERC20.sol\":7552:7556  from */\n      dup4\n        /* \"@openzeppelin/contracts/token/ERC20/ERC20.sol\":7552:7570  from != address(0) */\n      0xffffffffffffffffffffffffffffffffffffffff\n      and\n      eq\n      iszero\n        /* \"@openzeppelin/contracts/token/ERC20/ERC20.sol\":7544:7612  require(from != address(0), \"ERC20: transfer from the zero address\") */\n      tag_150\n      jumpi\n      mload(0x40)\n      0x08c379a000000000000000000000000000000000000000000000000000000000\n      dup2\n      mstore\n      0x04\n      add\n      tag_151\n      swap1\n      tag_152\n      jump\t// in\n    tag_151:\n      mload(0x40)\n      dup1\n      swap2\n      sub\n      swap1\n      revert\n    tag_150:\n        /* \"@openzeppelin/contracts/token/ERC20/ERC20.sol\":7644:7645  0 */\n      0x00\n        /* \"@openzeppelin/contracts/token/ERC20/ERC20.sol\":7630:7646  to != address(0) */\n      0xffffffffffffffffffffffffffffffffffffffff\n      and\n        /* \"@openzeppelin/contracts/token/ERC20/ERC20.sol\":7630:7632  to */\n      dup3\n        /* \"@openzeppelin/contracts/token/ERC20/ERC20.sol\":7630:7646  to != address(0) */\n      0xffffffffffffffffffffffffffffffffffffffff\n      and\n      eq\n      iszero\n        /* \"@openzeppelin/contracts/token/ERC20/ERC20.sol\":7622:7686  require(to != address(0), \"ERC20: transfer to the zero address\") */\n      tag_153\n      jumpi\n      mload(0x40)\n      0x08c379a000000000000000000000000000000000000000000000000000000000\n      dup2\n      mstore\n      0x04\n      add\n      tag_154\n      swap1\n      tag_155\n      jump\t// in\n    tag_154:\n      mload(0x40)\n      dup1\n      swap2\n      sub\n      swap1\n      revert\n    tag_153:\n        /* \"@openzeppelin/contracts/token/ERC20/ERC20.sol\":7697:7735  _beforeTokenTransfer(from, to, amount) */\n      tag_156\n        /* \"@openzeppelin/contracts/token/ERC20/ERC20.sol\":7718:7722  from */\n      dup4\n        /* \"@openzeppelin/contracts/token/ERC20/ERC20.sol\":7724:7726  to */\n      dup4\n        /* \"@openzeppelin/contracts/token/ERC20/ERC20.sol\":7728:7734  amount */\n      dup4\n        /* \"@openzeppelin/contracts/token/ERC20/ERC20.sol\":7697:7717  _beforeTokenTransfer */\n      tag_157\n        /* \"@openzeppelin/contracts/token/ERC20/ERC20.sol\":7697:7735  _beforeTokenTransfer(from, to, amount) */\n      jump\t// in\n    tag_156:\n        /* \"@openzeppelin/contracts/token/ERC20/ERC20.sol\":7746:7765  uint256 fromBalance */\n      0x00\n        /* \"@openzeppelin/contracts/token/ERC20/ERC20.sol\":7768:7777  _balances */\n      dup1\n        /* \"@openzeppelin/contracts/token/ERC20/ERC20.sol\":7768:7783  _balances[from] */\n      0x00\n        /* \"@openzeppelin/contracts/token/ERC20/ERC20.sol\":7778:7782  from */\n      dup6\n        /* \"@openzeppelin/contracts/token/ERC20/ERC20.sol\":7768:7783  _balances[from] */\n      0xffffffffffffffffffffffffffffffffffffffff\n      and\n      0xffffffffffffffffffffffffffffffffffffffff\n      and\n      dup2\n      mstore\n      0x20\n      add\n      swap1\n      dup2\n      mstore\n      0x20\n      add\n      0x00\n      keccak256\n      sload\n        /* \"@openzeppelin/contracts/token/ERC20/ERC20.sol\":7746:7783  uint256 fromBalance = _balances[from] */\n      swap1\n      pop\n        /* \"@openzeppelin/contracts/token/ERC20/ERC20.sol\":7816:7822  amount */\n      dup2\n        /* \"@openzeppelin/contracts/token/ERC20/ERC20.sol\":7801:7812  fromBalance */\n      dup2\n        /* \"@openzeppelin/contracts/token/ERC20/ERC20.sol\":7801:7822  fromBalance >= amount */\n      lt\n      iszero\n        /* \"@openzeppelin/contracts/token/ERC20/ERC20.sol\":7793:7865  require(fromBalance >= amount, \"ERC20: transfer amount exceeds balance\") */\n      tag_158\n      jumpi\n      mload(0x40)\n      0x08c379a000000000000000000000000000000000000000000000000000000000\n      dup2\n      mstore\n      0x04\n      add\n      tag_159\n      swap1\n      tag_160\n      jump\t// in\n    tag_159:\n      mload(0x40)\n      dup1\n      swap2\n      sub\n      swap1\n      revert\n    tag_158:\n        /* \"@openzeppelin/contracts/token/ERC20/ERC20.sol\":7931:7937  amount */\n      dup2\n        /* \"@openzeppelin/contracts/token/ERC20/ERC20.sol\":7917:7928  fromBalance */\n      dup2\n        /* \"@openzeppelin/contracts/token/ERC20/ERC20.sol\":7917:7937  fromBalance - amount */\n      sub\n        /* \"@openzeppelin/contracts/token/ERC20/ERC20.sol\":7899:7908  _balances */\n      0x00\n        /* \"@openzeppelin/contracts/token/ERC20/ERC20.sol\":7899:7914  _balances[from] */\n      dup1\n        /* \"@openzeppelin/contracts/token/ERC20/ERC20.sol\":7909:7913  from */\n      dup7\n        /* \"@openzeppelin/contracts/token/ERC20/ERC20.sol\":7899:7914  _balances[from] */\n      0xffffffffffffffffffffffffffffffffffffffff\n      and\n      0xffffffffffffffffffffffffffffffffffffffff\n      and\n      dup2\n      mstore\n      0x20\n      add\n      swap1\n      dup2\n      mstore\n      0x20\n      add\n      0x00\n      keccak256\n        /* \"@openzeppelin/contracts/token/ERC20/ERC20.sol\":7899:7937  _balances[from] = fromBalance - amount */\n      dup2\n      swap1\n      sstore\n      pop\n        /* \"@openzeppelin/contracts/token/ERC20/ERC20.sol\":8131:8137  amount */\n      dup2\n        /* \"@openzeppelin/contracts/token/ERC20/ERC20.sol\":8114:8123  _balances */\n      0x00\n        /* \"@openzeppelin/contracts/token/ERC20/ERC20.sol\":8114:8127  _balances[to] */\n      dup1\n        /* \"@openzeppelin/contracts/token/ERC20/ERC20.sol\":8124:8126  to */\n      dup6\n        /* \"@openzeppelin/contracts/token/ERC20/ERC20.sol\":8114:8127  _balances[to] */\n      0xffffffffffffffffffffffffffffffffffffffff\n      and\n      0xffffffffffffffffffffffffffffffffffffffff\n      and\n      dup2\n      mstore\n      0x20\n      add\n      swap1\n      dup2\n      mstore\n      0x20\n      add\n      0x00\n      keccak256\n      0x00\n        /* \"@openzeppelin/contracts/token/ERC20/ERC20.sol\":8114:8137  _balances[to] += amount */\n      dup3\n      dup3\n      sload\n      add\n      swap3\n      pop\n      pop\n      dup2\n      swap1\n      sstore\n      pop\n        /* \"@openzeppelin/contracts/token/ERC20/ERC20.sol\":8178:8180  to */\n      dup3\n        /* \"@openzeppelin/contracts/token/ERC20/ERC20.sol\":8163:8189  Transfer(from, to, amount) */\n      0xffffffffffffffffffffffffffffffffffffffff\n      and\n        /* \"@openzeppelin/contracts/token/ERC20/ERC20.sol\":8172:8176  from */\n      dup5\n        /* \"@openzeppelin/contracts/token/ERC20/ERC20.sol\":8163:8189  Transfer(from, to, amount) */\n      0xffffffffffffffffffffffffffffffffffffffff\n      and\n      0xddf252ad1be2c89b69c2b068fc378daa952ba7f163c4a11628f55a4df523b3ef\n        /* \"@openzeppelin/contracts/token/ERC20/ERC20.sol\":8182:8188  amount */\n      dup5\n        /* \"@openzeppelin/contracts/token/ERC20/ERC20.sol\":8163:8189  Transfer(from, to, amount) */\n      mload(0x40)\n      tag_161\n      swap2\n      swap1\n      tag_33\n      jump\t// in\n    tag_161:\n      mload(0x40)\n      dup1\n      swap2\n      sub\n      swap1\n      log3\n        /* \"@openzeppelin/contracts/token/ERC20/ERC20.sol\":8200:8237  _afterTokenTransfer(from, to, amount) */\n      tag_162\n        /* \"@openzeppelin/contracts/token/ERC20/ERC20.sol\":8220:8224  from */\n      dup5\n        /* \"@openzeppelin/contracts/token/ERC20/ERC20.sol\":8226:8228  to */\n      dup5\n        /* \"@openzeppelin/contracts/token/ERC20/ERC20.sol\":8230:8236  amount */\n      dup5\n        /* \"@openzeppelin/contracts/token/ERC20/ERC20.sol\":8200:8219  _afterTokenTransfer */\n      tag_163\n        /* \"@openzeppelin/contracts/token/ERC20/ERC20.sol\":8200:8237  _afterTokenTransfer(from, to, amount) */\n      jump\t// in\n    tag_162:\n        /* \"@openzeppelin/contracts/token/ERC20/ERC20.sol\":7456:8244  function _transfer(address from, address to, uint256 amount) internal virtual {... */\n      pop\n      pop\n      pop\n      pop\n      jump\t// out\n        /* \"@openzeppelin/contracts/token/ERC20/ERC20.sol\":8520:9055  function _mint(address account, uint256 amount) internal virtual {... */\n    tag_111:\n        /* \"@openzeppelin/contracts/token/ERC20/ERC20.sol\":8622:8623  0 */\n      0x00\n        /* \"@openzeppelin/contracts/token/ERC20/ERC20.sol\":8603:8624  account != address(0) */\n      0xffffffffffffffffffffffffffffffffffffffff\n      and\n        /* \"@openzeppelin/contracts/token/ERC20/ERC20.sol\":8603:8610  account */\n      dup3\n        /* \"@openzeppelin/contracts/token/ERC20/ERC20.sol\":8603:8624  account != address(0) */\n      0xffffffffffffffffffffffffffffffffffffffff\n      and\n      eq\n      iszero\n        /* \"@openzeppelin/contracts/token/ERC20/ERC20.sol\":8595:8660  require(account != address(0), \"ERC20: mint to the zero address\") */\n      tag_165\n      jumpi\n      mload(0x40)\n      0x08c379a000000000000000000000000000000000000000000000000000000000\n      dup2\n      mstore\n      0x04\n      add\n      tag_166\n      swap1\n      tag_167\n      jump\t// in\n    tag_166:\n      mload(0x40)\n      dup1\n      swap2\n      sub\n      swap1\n      revert\n    tag_165:\n        /* \"@openzeppelin/contracts/token/ERC20/ERC20.sol\":8671:8720  _beforeTokenTransfer(address(0), account, amount) */\n      tag_168\n        /* \"@openzeppelin/contracts/token/ERC20/ERC20.sol\":8700:8701  0 */\n      0x00\n        /* \"@openzeppelin/contracts/token/ERC20/ERC20.sol\":8704:8711  account */\n      dup4\n        /* \"@openzeppelin/contracts/token/ERC20/ERC20.sol\":8713:8719  amount */\n      dup4\n        /* \"@openzeppelin/contracts/token/ERC20/ERC20.sol\":8671:8691  _beforeTokenTransfer */\n      tag_157\n        /* \"@openzeppelin/contracts/token/ERC20/ERC20.sol\":8671:8720  _beforeTokenTransfer(address(0), account, amount) */\n      jump\t// in\n    tag_168:\n        /* \"@openzeppelin/contracts/token/ERC20/ERC20.sol\":8747:8753  amount */\n      dup1\n        /* \"@openzeppelin/contracts/token/ERC20/ERC20.sol\":8731:8743  _totalSupply */\n      0x02\n      0x00\n        /* \"@openzeppelin/contracts/token/ERC20/ERC20.sol\":8731:8753  _totalSupply += amount */\n      dup3\n      dup3\n      sload\n      tag_169\n      swap2\n      swap1\n      tag_104\n      jump\t// in\n    tag_169:\n      swap3\n      pop\n      pop\n      dup2\n      swap1\n      sstore\n      pop\n        /* \"@openzeppelin/contracts/token/ERC20/ERC20.sol\":8921:8927  amount */\n      dup1\n        /* \"@openzeppelin/contracts/token/ERC20/ERC20.sol\":8899:8908  _balances */\n      0x00\n        /* \"@openzeppelin/contracts/token/ERC20/ERC20.sol\":8899:8917  _balances[account] */\n      dup1\n        /* \"@openzeppelin/contracts/token/ERC20/ERC20.sol\":8909:8916  account */\n      dup5\n        /* \"@openzeppelin/contracts/token/ERC20/ERC20.sol\":8899:8917  _balances[account] */\n      0xffffffffffffffffffffffffffffffffffffffff\n      and\n      0xffffffffffffffffffffffffffffffffffffffff\n      and\n      dup2\n      mstore\n      0x20\n      add\n      swap1\n      dup2\n      mstore\n      0x20\n      add\n      0x00\n      keccak256\n      0x00\n        /* \"@openzeppelin/contracts/token/ERC20/ERC20.sol\":8899:8927  _balances[account] += amount */\n      dup3\n      dup3\n      sload\n      add\n      swap3\n      pop\n      pop\n      dup2\n      swap1\n      sstore\n      pop\n        /* \"@openzeppelin/contracts/token/ERC20/ERC20.sol\":8973:8980  account */\n      dup2\n        /* \"@openzeppelin/contracts/token/ERC20/ERC20.sol\":8952:8989  Transfer(address(0), account, amount) */\n      0xffffffffffffffffffffffffffffffffffffffff\n      and\n        /* \"@openzeppelin/contracts/token/ERC20/ERC20.sol\":8969:8970  0 */\n      0x00\n        /* \"@openzeppelin/contracts/token/ERC20/ERC20.sol\":8952:8989  Transfer(address(0), account, amount) */\n      0xffffffffffffffffffffffffffffffffffffffff\n      and\n      0xddf252ad1be2c89b69c2b068fc378daa952ba7f163c4a11628f55a4df523b3ef\n        /* \"@openzeppelin/contracts/token/ERC20/ERC20.sol\":8982:8988  amount */\n      dup4\n        /* \"@openzeppelin/contracts/token/ERC20/ERC20.sol\":8952:8989  Transfer(address(0), account, amount) */\n      mload(0x40)\n      tag_170\n      swap2\n      swap1\n      tag_33\n      jump\t// in\n    tag_170:\n      mload(0x40)\n      dup1\n      swap2\n      sub\n      swap1\n      log3\n        /* \"@openzeppelin/contracts/token/ERC20/ERC20.sol\":9000:9048  _afterTokenTransfer(address(0), account, amount) */\n      tag_171\n        /* \"@openzeppelin/contracts/token/ERC20/ERC20.sol\":9028:9029  0 */\n      0x00\n        /* \"@openzeppelin/contracts/token/ERC20/ERC20.sol\":9032:9039  account */\n      dup4\n        /* \"@openzeppelin/contracts/token/ERC20/ERC20.sol\":9041:9047  amount */\n      dup4\n        /* \"@openzeppelin/contracts/token/ERC20/ERC20.sol\":9000:9019  _afterTokenTransfer */\n      tag_163\n        /* \"@openzeppelin/contracts/token/ERC20/ERC20.sol\":9000:9048  _afterTokenTransfer(address(0), account, amount) */\n      jump\t// in\n    tag_171:\n        /* \"@openzeppelin/contracts/token/ERC20/ERC20.sol\":8520:9055  function _mint(address account, uint256 amount) internal virtual {... */\n      pop\n      pop\n      jump\t// out\n        /* \"@openzeppelin/contracts/token/ERC20/ERC20.sol\":9375:10034  function _burn(address account, uint256 amount) internal virtual {... */\n    tag_114:\n        /* \"@openzeppelin/contracts/token/ERC20/ERC20.sol\":9477:9478  0 */\n      0x00\n        /* \"@openzeppelin/contracts/token/ERC20/ERC20.sol\":9458:9479  account != address(0) */\n      0xffffffffffffffffffffffffffffffffffffffff\n      and\n        /* \"@openzeppelin/contracts/token/ERC20/ERC20.sol\":9458:9465  account */\n      dup3\n        /* \"@openzeppelin/contracts/token/ERC20/ERC20.sol\":9458:9479  account != address(0) */\n      0xffffffffffffffffffffffffffffffffffffffff\n      and\n      eq\n      iszero\n        /* \"@openzeppelin/contracts/token/ERC20/ERC20.sol\":9450:9517  require(account != address(0), \"ERC20: burn from the zero address\") */\n      tag_173\n      jumpi\n      mload(0x40)\n      0x08c379a000000000000000000000000000000000000000000000000000000000\n      dup2\n      mstore\n      0x04\n      add\n      tag_174\n      swap1\n      tag_175\n      jump\t// in\n    tag_174:\n      mload(0x40)\n      dup1\n      swap2\n      sub\n      swap1\n      revert\n    tag_173:\n        /* \"@openzeppelin/contracts/token/ERC20/ERC20.sol\":9528:9577  _beforeTokenTransfer(account, address(0), amount) */\n      tag_176\n        /* \"@openzeppelin/contracts/token/ERC20/ERC20.sol\":9549:9556  account */\n      dup3\n        /* \"@openzeppelin/contracts/token/ERC20/ERC20.sol\":9566:9567  0 */\n      0x00\n        /* \"@openzeppelin/contracts/token/ERC20/ERC20.sol\":9570:9576  amount */\n      dup4\n        /* \"@openzeppelin/contracts/token/ERC20/ERC20.sol\":9528:9548  _beforeTokenTransfer */\n      tag_157\n        /* \"@openzeppelin/contracts/token/ERC20/ERC20.sol\":9528:9577  _beforeTokenTransfer(account, address(0), amount) */\n      jump\t// in\n    tag_176:\n        /* \"@openzeppelin/contracts/token/ERC20/ERC20.sol\":9588:9610  uint256 accountBalance */\n      0x00\n        /* \"@openzeppelin/contracts/token/ERC20/ERC20.sol\":9613:9622  _balances */\n      dup1\n        /* \"@openzeppelin/contracts/token/ERC20/ERC20.sol\":9613:9631  _balances[account] */\n      0x00\n        /* \"@openzeppelin/contracts/token/ERC20/ERC20.sol\":9623:9630  account */\n      dup5\n        /* \"@openzeppelin/contracts/token/ERC20/ERC20.sol\":9613:9631  _balances[account] */\n      0xffffffffffffffffffffffffffffffffffffffff\n      and\n      0xffffffffffffffffffffffffffffffffffffffff\n      and\n      dup2\n      mstore\n      0x20\n      add\n      swap1\n      dup2\n      mstore\n      0x20\n      add\n      0x00\n      keccak256\n      sload\n        /* \"@openzeppelin/contracts/token/ERC20/ERC20.sol\":9588:9631  uint256 accountBalance = _balances[account] */\n      swap1\n      pop\n        /* \"@openzeppelin/contracts/token/ERC20/ERC20.sol\":9667:9673  amount */\n      dup2\n        /* \"@openzeppelin/contracts/token/ERC20/ERC20.sol\":9649:9663  accountBalance */\n      dup2\n        /* \"@openzeppelin/contracts/token/ERC20/ERC20.sol\":9649:9673  accountBalance >= amount */\n      lt\n      iszero\n        /* \"@openzeppelin/contracts/token/ERC20/ERC20.sol\":9641:9712  require(accountBalance >= amount, \"ERC20: burn amount exceeds balance\") */\n      tag_177\n      jumpi\n      mload(0x40)\n      0x08c379a000000000000000000000000000000000000000000000000000000000\n      dup2\n      mstore\n      0x04\n      add\n      tag_178\n      swap1\n      tag_179\n      jump\t// in\n    tag_178:\n      mload(0x40)\n      dup1\n      swap2\n      sub\n      swap1\n      revert\n    tag_177:\n        /* \"@openzeppelin/contracts/token/ERC20/ERC20.sol\":9784:9790  amount */\n      dup2\n        /* \"@openzeppelin/contracts/token/ERC20/ERC20.sol\":9767:9781  accountBalance */\n      dup2\n        /* \"@openzeppelin/contracts/token/ERC20/ERC20.sol\":9767:9790  accountBalance - amount */\n      sub\n        /* \"@openzeppelin/contracts/token/ERC20/ERC20.sol\":9746:9755  _balances */\n      0x00\n        /* \"@openzeppelin/contracts/token/ERC20/ERC20.sol\":9746:9764  _balances[account] */\n      dup1\n        /* \"@openzeppelin/contracts/token/ERC20/ERC20.sol\":9756:9763  account */\n      dup6\n        /* \"@openzeppelin/contracts/token/ERC20/ERC20.sol\":9746:9764  _balances[account] */\n      0xffffffffffffffffffffffffffffffffffffffff\n      and\n      0xffffffffffffffffffffffffffffffffffffffff\n      and\n      dup2\n      mstore\n      0x20\n      add\n      swap1\n      dup2\n      mstore\n      0x20\n      add\n      0x00\n      keccak256\n        /* \"@openzeppelin/contracts/token/ERC20/ERC20.sol\":9746:9790  _balances[account] = accountBalance - amount */\n      dup2\n      swap1\n      sstore\n      pop\n        /* \"@openzeppelin/contracts/token/ERC20/ERC20.sol\":9899:9905  amount */\n      dup2\n        /* \"@openzeppelin/contracts/token/ERC20/ERC20.sol\":9883:9895  _totalSupply */\n      0x02\n      0x00\n        /* \"@openzeppelin/contracts/token/ERC20/ERC20.sol\":9883:9905  _totalSupply -= amount */\n      dup3\n      dup3\n      sload\n      sub\n      swap3\n      pop\n      pop\n      dup2\n      swap1\n      sstore\n      pop\n        /* \"@openzeppelin/contracts/token/ERC20/ERC20.sol\":9957:9958  0 */\n      0x00\n        /* \"@openzeppelin/contracts/token/ERC20/ERC20.sol\":9931:9968  Transfer(account, address(0), amount) */\n      0xffffffffffffffffffffffffffffffffffffffff\n      and\n        /* \"@openzeppelin/contracts/token/ERC20/ERC20.sol\":9940:9947  account */\n      dup4\n        /* \"@openzeppelin/contracts/token/ERC20/ERC20.sol\":9931:9968  Transfer(account, address(0), amount) */\n      0xffffffffffffffffffffffffffffffffffffffff\n      and\n      0xddf252ad1be2c89b69c2b068fc378daa952ba7f163c4a11628f55a4df523b3ef\n        /* \"@openzeppelin/contracts/token/ERC20/ERC20.sol\":9961:9967  amount */\n      dup5\n        /* \"@openzeppelin/contracts/token/ERC20/ERC20.sol\":9931:9968  Transfer(account, address(0), amount) */\n      mload(0x40)\n      tag_180\n      swap2\n      swap1\n      tag_33\n      jump\t// in\n    tag_180:\n      mload(0x40)\n      dup1\n      swap2\n      sub\n      swap1\n      log3\n        /* \"@openzeppelin/contracts/token/ERC20/ERC20.sol\":9979:10027  _afterTokenTransfer(account, address(0), amount) */\n      tag_181\n        /* \"@openzeppelin/contracts/token/ERC20/ERC20.sol\":9999:10006  account */\n      dup4\n        /* \"@openzeppelin/contracts/token/ERC20/ERC20.sol\":10016:10017  0 */\n      0x00\n        /* \"@openzeppelin/contracts/token/ERC20/ERC20.sol\":10020:10026  amount */\n      dup5\n        /* \"@openzeppelin/contracts/token/ERC20/ERC20.sol\":9979:9998  _afterTokenTransfer */\n      tag_163\n        /* \"@openzeppelin/contracts/token/ERC20/ERC20.sol\":9979:10027  _afterTokenTransfer(account, address(0), amount) */\n      jump\t// in\n    tag_181:\n        /* \"@openzeppelin/contracts/token/ERC20/ERC20.sol\":9375:10034  function _burn(address account, uint256 amount) internal virtual {... */\n      pop\n      pop\n      pop\n      jump\t// out\n        /* \"@openzeppelin/contracts/token/ERC20/ERC20.sol\":12073:12164  function _beforeTokenTransfer(address from, address to, uint256 amount) internal virtual {} */\n    tag_157:\n      pop\n      pop\n      pop\n      jump\t// out\n        /* \"@openzeppelin/contracts/token/ERC20/ERC20.sol\":12752:12842  function _afterTokenTransfer(address from, address to, uint256 amount) internal virtual {} */\n    tag_163:\n      pop\n      pop\n      pop\n      jump\t// out\n        /* \"#utility.yul\":7:146   */\n    tag_185:\n      0x00\n        /* \"#utility.yul\":91:97   */\n      dup2\n        /* \"#utility.yul\":78:98   */\n      calldataload\n        /* \"#utility.yul\":69:98   */\n      swap1\n      pop\n        /* \"#utility.yul\":107:140   */\n      tag_187\n        /* \"#utility.yul\":134:139   */\n      dup2\n        /* \"#utility.yul\":107:140   */\n      tag_188\n      jump\t// in\n    tag_187:\n        /* \"#utility.yul\":59:146   */\n      swap3\n      swap2\n      pop\n      pop\n      jump\t// out\n        /* \"#utility.yul\":152:291   */\n    tag_189:\n      0x00\n        /* \"#utility.yul\":236:242   */\n      dup2\n        /* \"#utility.yul\":223:243   */\n      calldataload\n        /* \"#utility.yul\":214:243   */\n      swap1\n      pop\n        /* \"#utility.yul\":252:285   */\n      tag_191\n        /* \"#utility.yul\":279:284   */\n      dup2\n        /* \"#utility.yul\":252:285   */\n      tag_192\n      jump\t// in\n    tag_191:\n        /* \"#utility.yul\":204:291   */\n      swap3\n      swap2\n      pop\n      pop\n      jump\t// out\n        /* \"#utility.yul\":297:559   */\n    tag_56:\n      0x00\n        /* \"#utility.yul\":405:407   */\n      0x20\n        /* \"#utility.yul\":393:402   */\n      dup3\n        /* \"#utility.yul\":384:391   */\n      dup5\n        /* \"#utility.yul\":380:403   */\n      sub\n        /* \"#utility.yul\":376:408   */\n      slt\n        /* \"#utility.yul\":373:375   */\n      iszero\n      tag_194\n      jumpi\n        /* \"#utility.yul\":421:422   */\n      0x00\n        /* \"#utility.yul\":418:419   */\n      dup1\n        /* \"#utility.yul\":411:423   */\n      revert\n        /* \"#utility.yul\":373:375   */\n    tag_194:\n        /* \"#utility.yul\":464:465   */\n      0x00\n        /* \"#utility.yul\":489:542   */\n      tag_195\n        /* \"#utility.yul\":534:541   */\n      dup5\n        /* \"#utility.yul\":525:531   */\n      dup3\n        /* \"#utility.yul\":514:523   */\n      dup6\n        /* \"#utility.yul\":510:532   */\n      add\n        /* \"#utility.yul\":489:542   */\n      tag_185\n      jump\t// in\n    tag_195:\n        /* \"#utility.yul\":479:542   */\n      swap2\n      pop\n        /* \"#utility.yul\":435:552   */\n      pop\n        /* \"#utility.yul\":363:559   */\n      swap3\n      swap2\n      pop\n      pop\n      jump\t// out\n        /* \"#utility.yul\":565:972   */\n    tag_76:\n      0x00\n      dup1\n        /* \"#utility.yul\":690:692   */\n      0x40\n        /* \"#utility.yul\":678:687   */\n      dup4\n        /* \"#utility.yul\":669:676   */\n      dup6\n        /* \"#utility.yul\":665:688   */\n      sub\n        /* \"#utility.yul\":661:693   */\n      slt\n        /* \"#utility.yul\":658:660   */\n      iszero\n      tag_197\n      jumpi\n        /* \"#utility.yul\":706:707   */\n      0x00\n        /* \"#utility.yul\":703:704   */\n      dup1\n        /* \"#utility.yul\":696:708   */\n      revert\n        /* \"#utility.yul\":658:660   */\n    tag_197:\n        /* \"#utility.yul\":749:750   */\n      0x00\n        /* \"#utility.yul\":774:827   */\n      tag_198\n        /* \"#utility.yul\":819:826   */\n      dup6\n        /* \"#utility.yul\":810:816   */\n      dup3\n        /* \"#utility.yul\":799:808   */\n      dup7\n        /* \"#utility.yul\":795:817   */\n      add\n        /* \"#utility.yul\":774:827   */\n      tag_185\n      jump\t// in\n    tag_198:\n        /* \"#utility.yul\":764:827   */\n      swap3\n      pop\n        /* \"#utility.yul\":720:837   */\n      pop\n        /* \"#utility.yul\":876:878   */\n      0x20\n        /* \"#utility.yul\":902:955   */\n      tag_199\n        /* \"#utility.yul\":947:954   */\n      dup6\n        /* \"#utility.yul\":938:944   */\n      dup3\n        /* \"#utility.yul\":927:936   */\n      dup7\n        /* \"#utility.yul\":923:945   */\n      add\n        /* \"#utility.yul\":902:955   */\n      tag_185\n      jump\t// in\n    tag_199:\n        /* \"#utility.yul\":892:955   */\n      swap2\n      pop\n        /* \"#utility.yul\":847:965   */\n      pop\n        /* \"#utility.yul\":648:972   */\n      swap3\n      pop\n      swap3\n      swap1\n      pop\n      jump\t// out\n        /* \"#utility.yul\":978:1530   */\n    tag_36:\n      0x00\n      dup1\n      0x00\n        /* \"#utility.yul\":1120:1122   */\n      0x60\n        /* \"#utility.yul\":1108:1117   */\n      dup5\n        /* \"#utility.yul\":1099:1106   */\n      dup7\n        /* \"#utility.yul\":1095:1118   */\n      sub\n        /* \"#utility.yul\":1091:1123   */\n      slt\n        /* \"#utility.yul\":1088:1090   */\n      iszero\n      tag_201\n      jumpi\n        /* \"#utility.yul\":1136:1137   */\n      0x00\n        /* \"#utility.yul\":1133:1134   */\n      dup1\n        /* \"#utility.yul\":1126:1138   */\n      revert\n        /* \"#utility.yul\":1088:1090   */\n    tag_201:\n        /* \"#utility.yul\":1179:1180   */\n      0x00\n        /* \"#utility.yul\":1204:1257   */\n      tag_202\n        /* \"#utility.yul\":1249:1256   */\n      dup7\n        /* \"#utility.yul\":1240:1246   */\n      dup3\n        /* \"#utility.yul\":1229:1238   */\n      dup8\n        /* \"#utility.yul\":1225:1247   */\n      add\n        /* \"#utility.yul\":1204:1257   */\n      tag_185\n      jump\t// in\n    tag_202:\n        /* \"#utility.yul\":1194:1257   */\n      swap4\n      pop\n        /* \"#utility.yul\":1150:1267   */\n      pop\n        /* \"#utility.yul\":1306:1308   */\n      0x20\n        /* \"#utility.yul\":1332:1385   */\n      tag_203\n        /* \"#utility.yul\":1377:1384   */\n      dup7\n        /* \"#utility.yul\":1368:1374   */\n      dup3\n        /* \"#utility.yul\":1357:1366   */\n      dup8\n        /* \"#utility.yul\":1353:1375   */\n      add\n        /* \"#utility.yul\":1332:1385   */\n      tag_185\n      jump\t// in\n    tag_203:\n        /* \"#utility.yul\":1322:1385   */\n      swap3\n      pop\n        /* \"#utility.yul\":1277:1395   */\n      pop\n        /* \"#utility.yul\":1434:1436   */\n      0x40\n        /* \"#utility.yul\":1460:1513   */\n      tag_204\n        /* \"#utility.yul\":1505:1512   */\n      dup7\n        /* \"#utility.yul\":1496:1502   */\n      dup3\n        /* \"#utility.yul\":1485:1494   */\n      dup8\n        /* \"#utility.yul\":1481:1503   */\n      add\n        /* \"#utility.yul\":1460:1513   */\n      tag_189\n      jump\t// in\n    tag_204:\n        /* \"#utility.yul\":1450:1513   */\n      swap2\n      pop\n        /* \"#utility.yul\":1405:1523   */\n      pop\n        /* \"#utility.yul\":1078:1530   */\n      swap3\n      pop\n      swap3\n      pop\n      swap3\n      jump\t// out\n        /* \"#utility.yul\":1536:1943   */\n    tag_26:\n      0x00\n      dup1\n        /* \"#utility.yul\":1661:1663   */\n      0x40\n        /* \"#utility.yul\":1649:1658   */\n      dup4\n        /* \"#utility.yul\":1640:1647   */\n      dup6\n        /* \"#utility.yul\":1636:1659   */\n      sub\n        /* \"#utility.yul\":1632:1664   */\n      slt\n        /* \"#utility.yul\":1629:1631   */\n      iszero\n      tag_206\n      jumpi\n        /* \"#utility.yul\":1677:1678   */\n      0x00\n        /* \"#utility.yul\":1674:1675   */\n      dup1\n        /* \"#utility.yul\":1667:1679   */\n      revert\n        /* \"#utility.yul\":1629:1631   */\n    tag_206:\n        /* \"#utility.yul\":1720:1721   */\n      0x00\n        /* \"#utility.yul\":1745:1798   */\n      tag_207\n        /* \"#utility.yul\":1790:1797   */\n      dup6\n        /* \"#utility.yul\":1781:1787   */\n      dup3\n        /* \"#utility.yul\":1770:1779   */\n      dup7\n        /* \"#utility.yul\":1766:1788   */\n      add\n        /* \"#utility.yul\":1745:1798   */\n      tag_185\n      jump\t// in\n    tag_207:\n        /* \"#utility.yul\":1735:1798   */\n      swap3\n      pop\n        /* \"#utility.yul\":1691:1808   */\n      pop\n        /* \"#utility.yul\":1847:1849   */\n      0x20\n        /* \"#utility.yul\":1873:1926   */\n      tag_208\n        /* \"#utility.yul\":1918:1925   */\n      dup6\n        /* \"#utility.yul\":1909:1915   */\n      dup3\n        /* \"#utility.yul\":1898:1907   */\n      dup7\n        /* \"#utility.yul\":1894:1916   */\n      add\n        /* \"#utility.yul\":1873:1926   */\n      tag_189\n      jump\t// in\n    tag_208:\n        /* \"#utility.yul\":1863:1926   */\n      swap2\n      pop\n        /* \"#utility.yul\":1818:1936   */\n      pop\n        /* \"#utility.yul\":1619:1943   */\n      swap3\n      pop\n      swap3\n      swap1\n      pop\n      jump\t// out\n        /* \"#utility.yul\":1949:2211   */\n    tag_52:\n      0x00\n        /* \"#utility.yul\":2057:2059   */\n      0x20\n        /* \"#utility.yul\":2045:2054   */\n      dup3\n        /* \"#utility.yul\":2036:2043   */\n      dup5\n        /* \"#utility.yul\":2032:2055   */\n      sub\n        /* \"#utility.yul\":2028:2060   */\n      slt\n        /* \"#utility.yul\":2025:2027   */\n      iszero\n      tag_210\n      jumpi\n        /* \"#utility.yul\":2073:2074   */\n      0x00\n        /* \"#utility.yul\":2070:2071   */\n      dup1\n        /* \"#utility.yul\":2063:2075   */\n      revert\n        /* \"#utility.yul\":2025:2027   */\n    tag_210:\n        /* \"#utility.yul\":2116:2117   */\n      0x00\n        /* \"#utility.yul\":2141:2194   */\n      tag_211\n        /* \"#utility.yul\":2186:2193   */\n      dup5\n        /* \"#utility.yul\":2177:2183   */\n      dup3\n        /* \"#utility.yul\":2166:2175   */\n      dup6\n        /* \"#utility.yul\":2162:2184   */\n      add\n        /* \"#utility.yul\":2141:2194   */\n      tag_189\n      jump\t// in\n    tag_211:\n        /* \"#utility.yul\":2131:2194   */\n      swap2\n      pop\n        /* \"#utility.yul\":2087:2204   */\n      pop\n        /* \"#utility.yul\":2015:2211   */\n      swap3\n      swap2\n      pop\n      pop\n      jump\t// out\n        /* \"#utility.yul\":2217:2335   */\n    tag_212:\n        /* \"#utility.yul\":2304:2328   */\n      tag_214\n        /* \"#utility.yul\":2322:2327   */\n      dup2\n        /* \"#utility.yul\":2304:2328   */\n      tag_215\n      jump\t// in\n    tag_214:\n        /* \"#utility.yul\":2299:2302   */\n      dup3\n        /* \"#utility.yul\":2292:2329   */\n      mstore\n        /* \"#utility.yul\":2282:2335   */\n      pop\n      pop\n      jump\t// out\n        /* \"#utility.yul\":2341:2450   */\n    tag_216:\n        /* \"#utility.yul\":2422:2443   */\n      tag_218\n        /* \"#utility.yul\":2437:2442   */\n      dup2\n        /* \"#utility.yul\":2422:2443   */\n      tag_219\n      jump\t// in\n    tag_218:\n        /* \"#utility.yul\":2417:2420   */\n      dup3\n        /* \"#utility.yul\":2410:2444   */\n      mstore\n        /* \"#utility.yul\":2400:2450   */\n      pop\n      pop\n      jump\t// out\n        /* \"#utility.yul\":2456:2820   */\n    tag_220:\n      0x00\n        /* \"#utility.yul\":2572:2611   */\n      tag_222\n        /* \"#utility.yul\":2605:2610   */\n      dup3\n        /* \"#utility.yul\":2572:2611   */\n      tag_223\n      jump\t// in\n    tag_222:\n        /* \"#utility.yul\":2627:2698   */\n      tag_224\n        /* \"#utility.yul\":2691:2697   */\n      dup2\n        /* \"#utility.yul\":2686:2689   */\n      dup6\n        /* \"#utility.yul\":2627:2698   */\n      tag_225\n      jump\t// in\n    tag_224:\n        /* \"#utility.yul\":2620:2698   */\n      swap4\n      pop\n        /* \"#utility.yul\":2707:2759   */\n      tag_226\n        /* \"#utility.yul\":2752:2758   */\n      dup2\n        /* \"#utility.yul\":2747:2750   */\n      dup6\n        /* \"#utility.yul\":2740:2744   */\n      0x20\n        /* \"#utility.yul\":2733:2738   */\n      dup7\n        /* \"#utility.yul\":2729:2745   */\n      add\n        /* \"#utility.yul\":2707:2759   */\n      tag_227\n      jump\t// in\n    tag_226:\n        /* \"#utility.yul\":2784:2813   */\n      tag_228\n        /* \"#utility.yul\":2806:2812   */\n      dup2\n        /* \"#utility.yul\":2784:2813   */\n      tag_229\n      jump\t// in\n    tag_228:\n        /* \"#utility.yul\":2779:2782   */\n      dup5\n        /* \"#utility.yul\":2775:2814   */\n      add\n        /* \"#utility.yul\":2768:2814   */\n      swap2\n      pop\n        /* \"#utility.yul\":2548:2820   */\n      pop\n      swap3\n      swap2\n      pop\n      pop\n      jump\t// out\n        /* \"#utility.yul\":2826:3193   */\n    tag_230:\n      0x00\n        /* \"#utility.yul\":2989:3056   */\n      tag_232\n        /* \"#utility.yul\":3053:3055   */\n      0x23\n        /* \"#utility.yul\":3048:3051   */\n      dup4\n        /* \"#utility.yul\":2989:3056   */\n      tag_225\n      jump\t// in\n    tag_232:\n        /* \"#utility.yul\":2982:3056   */\n      swap2\n      pop\n        /* \"#utility.yul\":3086:3120   */\n      0x45524332303a207472616e7366657220746f20746865207a65726f2061646472\n        /* \"#utility.yul\":3082:3083   */\n      0x00\n        /* \"#utility.yul\":3077:3080   */\n      dup4\n        /* \"#utility.yul\":3073:3084   */\n      add\n        /* \"#utility.yul\":3066:3121   */\n      mstore\n        /* \"#utility.yul\":3152:3157   */\n      0x6573730000000000000000000000000000000000000000000000000000000000\n        /* \"#utility.yul\":3147:3149   */\n      0x20\n        /* \"#utility.yul\":3142:3145   */\n      dup4\n        /* \"#utility.yul\":3138:3150   */\n      add\n        /* \"#utility.yul\":3131:3158   */\n      mstore\n        /* \"#utility.yul\":3184:3186   */\n      0x40\n        /* \"#utility.yul\":3179:3182   */\n      dup3\n        /* \"#utility.yul\":3175:3187   */\n      add\n        /* \"#utility.yul\":3168:3187   */\n      swap1\n      pop\n        /* \"#utility.yul\":2972:3193   */\n      swap2\n      swap1\n      pop\n      jump\t// out\n        /* \"#utility.yul\":3199:3565   */\n    tag_233:\n      0x00\n        /* \"#utility.yul\":3362:3429   */\n      tag_235\n        /* \"#utility.yul\":3426:3428   */\n      0x22\n        /* \"#utility.yul\":3421:3424   */\n      dup4\n        /* \"#utility.yul\":3362:3429   */\n      tag_225\n      jump\t// in\n    tag_235:\n        /* \"#utility.yul\":3355:3429   */\n      swap2\n      pop\n        /* \"#utility.yul\":3459:3493   */\n      0x45524332303a206275726e20616d6f756e7420657863656564732062616c616e\n        /* \"#utility.yul\":3455:3456   */\n      0x00\n        /* \"#utility.yul\":3450:3453   */\n      dup4\n        /* \"#utility.yul\":3446:3457   */\n      add\n        /* \"#utility.yul\":3439:3494   */\n      mstore\n        /* \"#utility.yul\":3525:3529   */\n      0x6365000000000000000000000000000000000000000000000000000000000000\n        /* \"#utility.yul\":3520:3522   */\n      0x20\n        /* \"#utility.yul\":3515:3518   */\n      dup4\n        /* \"#utility.yul\":3511:3523   */\n      add\n        /* \"#utility.yul\":3504:3530   */\n      mstore\n        /* \"#utility.yul\":3556:3558   */\n      0x40\n        /* \"#utility.yul\":3551:3554   */\n      dup3\n        /* \"#utility.yul\":3547:3559   */\n      add\n        /* \"#utility.yul\":3540:3559   */\n      swap1\n      pop\n        /* \"#utility.yul\":3345:3565   */\n      swap2\n      swap1\n      pop\n      jump\t// out\n        /* \"#utility.yul\":3571:3892   */\n    tag_236:\n      0x00\n        /* \"#utility.yul\":3734:3801   */\n      tag_238\n        /* \"#utility.yul\":3798:3800   */\n      0x17\n        /* \"#utility.yul\":3793:3796   */\n      dup4\n        /* \"#utility.yul\":3734:3801   */\n      tag_225\n      jump\t// in\n    tag_238:\n        /* \"#utility.yul\":3727:3801   */\n      swap2\n      pop\n        /* \"#utility.yul\":3831:3856   */\n      0x43616c6c6572206973206e6f7420746865206f776e6572000000000000000000\n        /* \"#utility.yul\":3827:3828   */\n      0x00\n        /* \"#utility.yul\":3822:3825   */\n      dup4\n        /* \"#utility.yul\":3818:3829   */\n      add\n        /* \"#utility.yul\":3811:3857   */\n      mstore\n        /* \"#utility.yul\":3883:3885   */\n      0x20\n        /* \"#utility.yul\":3878:3881   */\n      dup3\n        /* \"#utility.yul\":3874:3886   */\n      add\n        /* \"#utility.yul\":3867:3886   */\n      swap1\n      pop\n        /* \"#utility.yul\":3717:3892   */\n      swap2\n      swap1\n      pop\n      jump\t// out\n        /* \"#utility.yul\":3898:4264   */\n    tag_239:\n      0x00\n        /* \"#utility.yul\":4061:4128   */\n      tag_241\n        /* \"#utility.yul\":4125:4127   */\n      0x22\n        /* \"#utility.yul\":4120:4123   */\n      dup4\n        /* \"#utility.yul\":4061:4128   */\n      tag_225\n      jump\t// in\n    tag_241:\n        /* \"#utility.yul\":4054:4128   */\n      swap2\n      pop\n        /* \"#utility.yul\":4158:4192   */\n      0x45524332303a20617070726f766520746f20746865207a65726f206164647265\n        /* \"#utility.yul\":4154:4155   */\n      0x00\n        /* \"#utility.yul\":4149:4152   */\n      dup4\n        /* \"#utility.yul\":4145:4156   */\n      add\n        /* \"#utility.yul\":4138:4193   */\n      mstore\n        /* \"#utility.yul\":4224:4228   */\n      0x7373000000000000000000000000000000000000000000000000000000000000\n        /* \"#utility.yul\":4219:4221   */\n      0x20\n        /* \"#utility.yul\":4214:4217   */\n      dup4\n        /* \"#utility.yul\":4210:4222   */\n      add\n        /* \"#utility.yul\":4203:4229   */\n      mstore\n        /* \"#utility.yul\":4255:4257   */\n      0x40\n        /* \"#utility.yul\":4250:4253   */\n      dup3\n        /* \"#utility.yul\":4246:4258   */\n      add\n        /* \"#utility.yul\":4239:4258   */\n      swap1\n      pop\n        /* \"#utility.yul\":4044:4264   */\n      swap2\n      swap1\n      pop\n      jump\t// out\n        /* \"#utility.yul\":4270:4597   */\n    tag_242:\n      0x00\n        /* \"#utility.yul\":4433:4500   */\n      tag_244\n        /* \"#utility.yul\":4497:4499   */\n      0x1d\n        /* \"#utility.yul\":4492:4495   */\n      dup4\n        /* \"#utility.yul\":4433:4500   */\n      tag_225\n      jump\t// in\n    tag_244:\n        /* \"#utility.yul\":4426:4500   */\n      swap2\n      pop\n        /* \"#utility.yul\":4530:4561   */\n      0x45524332303a20696e73756666696369656e7420616c6c6f77616e6365000000\n        /* \"#utility.yul\":4526:4527   */\n      0x00\n        /* \"#utility.yul\":4521:4524   */\n      dup4\n        /* \"#utility.yul\":4517:4528   */\n      add\n        /* \"#utility.yul\":4510:4562   */\n      mstore\n        /* \"#utility.yul\":4588:4590   */\n      0x20\n        /* \"#utility.yul\":4583:4586   */\n      dup3\n        /* \"#utility.yul\":4579:4591   */\n      add\n        /* \"#utility.yul\":4572:4591   */\n      swap1\n      pop\n        /* \"#utility.yul\":4416:4597   */\n      swap2\n      swap1\n      pop\n      jump\t// out\n        /* \"#utility.yul\":4603:4973   */\n    tag_245:\n      0x00\n        /* \"#utility.yul\":4766:4833   */\n      tag_247\n        /* \"#utility.yul\":4830:4832   */\n      0x26\n        /* \"#utility.yul\":4825:4828   */\n      dup4\n        /* \"#utility.yul\":4766:4833   */\n      tag_225\n      jump\t// in\n    tag_247:\n        /* \"#utility.yul\":4759:4833   */\n      swap2\n      pop\n        /* \"#utility.yul\":4863:4897   */\n      0x45524332303a207472616e7366657220616d6f756e7420657863656564732062\n        /* \"#utility.yul\":4859:4860   */\n      0x00\n        /* \"#utility.yul\":4854:4857   */\n      dup4\n        /* \"#utility.yul\":4850:4861   */\n      add\n        /* \"#utility.yul\":4843:4898   */\n      mstore\n        /* \"#utility.yul\":4929:4937   */\n      0x616c616e63650000000000000000000000000000000000000000000000000000\n        /* \"#utility.yul\":4924:4926   */\n      0x20\n        /* \"#utility.yul\":4919:4922   */\n      dup4\n        /* \"#utility.yul\":4915:4927   */\n      add\n        /* \"#utility.yul\":4908:4938   */\n      mstore\n        /* \"#utility.yul\":4964:4966   */\n      0x40\n        /* \"#utility.yul\":4959:4962   */\n      dup3\n        /* \"#utility.yul\":4955:4967   */\n      add\n        /* \"#utility.yul\":4948:4967   */\n      swap1\n      pop\n        /* \"#utility.yul\":4749:4973   */\n      swap2\n      swap1\n      pop\n      jump\t// out\n        /* \"#utility.yul\":4979:5344   */\n    tag_248:\n      0x00\n        /* \"#utility.yul\":5142:5209   */\n      tag_250\n        /* \"#utility.yul\":5206:5208   */\n      0x21\n        /* \"#utility.yul\":5201:5204   */\n      dup4\n        /* \"#utility.yul\":5142:5209   */\n      tag_225\n      jump\t// in\n    tag_250:\n        /* \"#utility.yul\":5135:5209   */\n      swap2\n      pop\n        /* \"#utility.yul\":5239:5273   */\n      0x45524332303a206275726e2066726f6d20746865207a65726f20616464726573\n        /* \"#utility.yul\":5235:5236   */\n      0x00\n        /* \"#utility.yul\":5230:5233   */\n      dup4\n        /* \"#utility.yul\":5226:5237   */\n      add\n        /* \"#utility.yul\":5219:5274   */\n      mstore\n        /* \"#utility.yul\":5305:5308   */\n      0x7300000000000000000000000000000000000000000000000000000000000000\n        /* \"#utility.yul\":5300:5302   */\n      0x20\n        /* \"#utility.yul\":5295:5298   */\n      dup4\n        /* \"#utility.yul\":5291:5303   */\n      add\n        /* \"#utility.yul\":5284:5309   */\n      mstore\n        /* \"#utility.yul\":5335:5337   */\n      0x40\n        /* \"#utility.yul\":5330:5333   */\n      dup3\n        /* \"#utility.yul\":5326:5338   */\n      add\n        /* \"#utility.yul\":5319:5338   */\n      swap1\n      pop\n        /* \"#utility.yul\":5125:5344   */\n      swap2\n      swap1\n      pop\n      jump\t// out\n        /* \"#utility.yul\":5350:5719   */\n    tag_251:\n      0x00\n        /* \"#utility.yul\":5513:5580   */\n      tag_253\n        /* \"#utility.yul\":5577:5579   */\n      0x25\n        /* \"#utility.yul\":5572:5575   */\n      dup4\n        /* \"#utility.yul\":5513:5580   */\n      tag_225\n      jump\t// in\n    tag_253:\n        /* \"#utility.yul\":5506:5580   */\n      swap2\n      pop\n        /* \"#utility.yul\":5610:5644   */\n      0x45524332303a207472616e736665722066726f6d20746865207a65726f206164\n        /* \"#utility.yul\":5606:5607   */\n      0x00\n        /* \"#utility.yul\":5601:5604   */\n      dup4\n        /* \"#utility.yul\":5597:5608   */\n      add\n        /* \"#utility.yul\":5590:5645   */\n      mstore\n        /* \"#utility.yul\":5676:5683   */\n      0x6472657373000000000000000000000000000000000000000000000000000000\n        /* \"#utility.yul\":5671:5673   */\n      0x20\n        /* \"#utility.yul\":5666:5669   */\n      dup4\n        /* \"#utility.yul\":5662:5674   */\n      add\n        /* \"#utility.yul\":5655:5684   */\n      mstore\n        /* \"#utility.yul\":5710:5712   */\n      0x40\n        /* \"#utility.yul\":5705:5708   */\n      dup3\n        /* \"#utility.yul\":5701:5713   */\n      add\n        /* \"#utility.yul\":5694:5713   */\n      swap1\n      pop\n        /* \"#utility.yul\":5496:5719   */\n      swap2\n      swap1\n      pop\n      jump\t// out\n        /* \"#utility.yul\":5725:6093   */\n    tag_254:\n      0x00\n        /* \"#utility.yul\":5888:5955   */\n      tag_256\n        /* \"#utility.yul\":5952:5954   */\n      0x24\n        /* \"#utility.yul\":5947:5950   */\n      dup4\n        /* \"#utility.yul\":5888:5955   */\n      tag_225\n      jump\t// in\n    tag_256:\n        /* \"#utility.yul\":5881:5955   */\n      swap2\n      pop\n        /* \"#utility.yul\":5985:6019   */\n      0x45524332303a20617070726f76652066726f6d20746865207a65726f20616464\n        /* \"#utility.yul\":5981:5982   */\n      0x00\n        /* \"#utility.yul\":5976:5979   */\n      dup4\n        /* \"#utility.yul\":5972:5983   */\n      add\n        /* \"#utility.yul\":5965:6020   */\n      mstore\n        /* \"#utility.yul\":6051:6057   */\n      0x7265737300000000000000000000000000000000000000000000000000000000\n        /* \"#utility.yul\":6046:6048   */\n      0x20\n        /* \"#utility.yul\":6041:6044   */\n      dup4\n        /* \"#utility.yul\":6037:6049   */\n      add\n        /* \"#utility.yul\":6030:6058   */\n      mstore\n        /* \"#utility.yul\":6084:6086   */\n      0x40\n        /* \"#utility.yul\":6079:6082   */\n      dup3\n        /* \"#utility.yul\":6075:6087   */\n      add\n        /* \"#utility.yul\":6068:6087   */\n      swap1\n      pop\n        /* \"#utility.yul\":5871:6093   */\n      swap2\n      swap1\n      pop\n      jump\t// out\n        /* \"#utility.yul\":6099:6468   */\n    tag_257:\n      0x00\n        /* \"#utility.yul\":6262:6329   */\n      tag_259\n        /* \"#utility.yul\":6326:6328   */\n      0x25\n        /* \"#utility.yul\":6321:6324   */\n      dup4\n        /* \"#utility.yul\":6262:6329   */\n      tag_225\n      jump\t// in\n    tag_259:\n        /* \"#utility.yul\":6255:6329   */\n      swap2\n      pop\n        /* \"#utility.yul\":6359:6393   */\n      0x45524332303a2064656372656173656420616c6c6f77616e63652062656c6f77\n        /* \"#utility.yul\":6355:6356   */\n      0x00\n        /* \"#utility.yul\":6350:6353   */\n      dup4\n        /* \"#utility.yul\":6346:6357   */\n      add\n        /* \"#utility.yul\":6339:6394   */\n      mstore\n        /* \"#utility.yul\":6425:6432   */\n      0x207a65726f000000000000000000000000000000000000000000000000000000\n        /* \"#utility.yul\":6420:6422   */\n      0x20\n        /* \"#utility.yul\":6415:6418   */\n      dup4\n        /* \"#utility.yul\":6411:6423   */\n      add\n        /* \"#utility.yul\":6404:6433   */\n      mstore\n        /* \"#utility.yul\":6459:6461   */\n      0x40\n        /* \"#utility.yul\":6454:6457   */\n      dup3\n        /* \"#utility.yul\":6450:6462   */\n      add\n        /* \"#utility.yul\":6443:6462   */\n      swap1\n      pop\n        /* \"#utility.yul\":6245:6468   */\n      swap2\n      swap1\n      pop\n      jump\t// out\n        /* \"#utility.yul\":6474:6803   */\n    tag_260:\n      0x00\n        /* \"#utility.yul\":6637:6704   */\n      tag_262\n        /* \"#utility.yul\":6701:6703   */\n      0x1f\n        /* \"#utility.yul\":6696:6699   */\n      dup4\n        /* \"#utility.yul\":6637:6704   */\n      tag_225\n      jump\t// in\n    tag_262:\n        /* \"#utility.yul\":6630:6704   */\n      swap2\n      pop\n        /* \"#utility.yul\":6734:6767   */\n      0x45524332303a206d696e7420746f20746865207a65726f206164647265737300\n        /* \"#utility.yul\":6730:6731   */\n      0x00\n        /* \"#utility.yul\":6725:6728   */\n      dup4\n        /* \"#utility.yul\":6721:6732   */\n      add\n        /* \"#utility.yul\":6714:6768   */\n      mstore\n        /* \"#utility.yul\":6794:6796   */\n      0x20\n        /* \"#utility.yul\":6789:6792   */\n      dup3\n        /* \"#utility.yul\":6785:6797   */\n      add\n        /* \"#utility.yul\":6778:6797   */\n      swap1\n      pop\n        /* \"#utility.yul\":6620:6803   */\n      swap2\n      swap1\n      pop\n      jump\t// out\n        /* \"#utility.yul\":6809:6927   */\n    tag_263:\n        /* \"#utility.yul\":6896:6920   */\n      tag_265\n        /* \"#utility.yul\":6914:6919   */\n      dup2\n        /* \"#utility.yul\":6896:6920   */\n      tag_266\n      jump\t// in\n    tag_265:\n        /* \"#utility.yul\":6891:6894   */\n      dup3\n        /* \"#utility.yul\":6884:6921   */\n      mstore\n        /* \"#utility.yul\":6874:6927   */\n      pop\n      pop\n      jump\t// out\n        /* \"#utility.yul\":6933:7045   */\n    tag_267:\n        /* \"#utility.yul\":7016:7038   */\n      tag_269\n        /* \"#utility.yul\":7032:7037   */\n      dup2\n        /* \"#utility.yul\":7016:7038   */\n      tag_270\n      jump\t// in\n    tag_269:\n        /* \"#utility.yul\":7011:7014   */\n      dup3\n        /* \"#utility.yul\":7004:7039   */\n      mstore\n        /* \"#utility.yul\":6994:7045   */\n      pop\n      pop\n      jump\t// out\n        /* \"#utility.yul\":7051:7273   */\n    tag_62:\n      0x00\n        /* \"#utility.yul\":7182:7184   */\n      0x20\n        /* \"#utility.yul\":7171:7180   */\n      dup3\n        /* \"#utility.yul\":7167:7185   */\n      add\n        /* \"#utility.yul\":7159:7185   */\n      swap1\n      pop\n        /* \"#utility.yul\":7195:7266   */\n      tag_272\n        /* \"#utility.yul\":7263:7264   */\n      0x00\n        /* \"#utility.yul\":7252:7261   */\n      dup4\n        /* \"#utility.yul\":7248:7265   */\n      add\n        /* \"#utility.yul\":7239:7245   */\n      dup5\n        /* \"#utility.yul\":7195:7266   */\n      tag_212\n      jump\t// in\n    tag_272:\n        /* \"#utility.yul\":7149:7273   */\n      swap3\n      swap2\n      pop\n      pop\n      jump\t// out\n        /* \"#utility.yul\":7279:7489   */\n    tag_29:\n      0x00\n        /* \"#utility.yul\":7404:7406   */\n      0x20\n        /* \"#utility.yul\":7393:7402   */\n      dup3\n        /* \"#utility.yul\":7389:7407   */\n      add\n        /* \"#utility.yul\":7381:7407   */\n      swap1\n      pop\n        /* \"#utility.yul\":7417:7482   */\n      tag_274\n        /* \"#utility.yul\":7479:7480   */\n      0x00\n        /* \"#utility.yul\":7468:7477   */\n      dup4\n        /* \"#utility.yul\":7464:7481   */\n      add\n        /* \"#utility.yul\":7455:7461   */\n      dup5\n        /* \"#utility.yul\":7417:7482   */\n      tag_216\n      jump\t// in\n    tag_274:\n        /* \"#utility.yul\":7371:7489   */\n      swap3\n      swap2\n      pop\n      pop\n      jump\t// out\n        /* \"#utility.yul\":7495:7808   */\n    tag_23:\n      0x00\n        /* \"#utility.yul\":7646:7648   */\n      0x20\n        /* \"#utility.yul\":7635:7644   */\n      dup3\n        /* \"#utility.yul\":7631:7649   */\n      add\n        /* \"#utility.yul\":7623:7649   */\n      swap1\n      pop\n        /* \"#utility.yul\":7695:7704   */\n      dup2\n        /* \"#utility.yul\":7689:7693   */\n      dup2\n        /* \"#utility.yul\":7685:7705   */\n      sub\n        /* \"#utility.yul\":7681:7682   */\n      0x00\n        /* \"#utility.yul\":7670:7679   */\n      dup4\n        /* \"#utility.yul\":7666:7683   */\n      add\n        /* \"#utility.yul\":7659:7706   */\n      mstore\n        /* \"#utility.yul\":7723:7801   */\n      tag_276\n        /* \"#utility.yul\":7796:7800   */\n      dup2\n        /* \"#utility.yul\":7787:7793   */\n      dup5\n        /* \"#utility.yul\":7723:7801   */\n      tag_220\n      jump\t// in\n    tag_276:\n        /* \"#utility.yul\":7715:7801   */\n      swap1\n      pop\n        /* \"#utility.yul\":7613:7808   */\n      swap3\n      swap2\n      pop\n      pop\n      jump\t// out\n        /* \"#utility.yul\":7814:8233   */\n    tag_155:\n      0x00\n        /* \"#utility.yul\":8018:8020   */\n      0x20\n        /* \"#utility.yul\":8007:8016   */\n      dup3\n        /* \"#utility.yul\":8003:8021   */\n      add\n        /* \"#utility.yul\":7995:8021   */\n      swap1\n      pop\n        /* \"#utility.yul\":8067:8076   */\n      dup2\n        /* \"#utility.yul\":8061:8065   */\n      dup2\n        /* \"#utility.yul\":8057:8077   */\n      sub\n        /* \"#utility.yul\":8053:8054   */\n      0x00\n        /* \"#utility.yul\":8042:8051   */\n      dup4\n        /* \"#utility.yul\":8038:8055   */\n      add\n        /* \"#utility.yul\":8031:8078   */\n      mstore\n        /* \"#utility.yul\":8095:8226   */\n      tag_278\n        /* \"#utility.yul\":8221:8225   */\n      dup2\n        /* \"#utility.yul\":8095:8226   */\n      tag_230\n      jump\t// in\n    tag_278:\n        /* \"#utility.yul\":8087:8226   */\n      swap1\n      pop\n        /* \"#utility.yul\":7985:8233   */\n      swap2\n      swap1\n      pop\n      jump\t// out\n        /* \"#utility.yul\":8239:8658   */\n    tag_179:\n      0x00\n        /* \"#utility.yul\":8443:8445   */\n      0x20\n        /* \"#utility.yul\":8432:8441   */\n      dup3\n        /* \"#utility.yul\":8428:8446   */\n      add\n        /* \"#utility.yul\":8420:8446   */\n      swap1\n      pop\n        /* \"#utility.yul\":8492:8501   */\n      dup2\n        /* \"#utility.yul\":8486:8490   */\n      dup2\n        /* \"#utility.yul\":8482:8502   */\n      sub\n        /* \"#utility.yul\":8478:8479   */\n      0x00\n        /* \"#utility.yul\":8467:8476   */\n      dup4\n        /* \"#utility.yul\":8463:8480   */\n      add\n        /* \"#utility.yul\":8456:8503   */\n      mstore\n        /* \"#utility.yul\":8520:8651   */\n      tag_280\n        /* \"#utility.yul\":8646:8650   */\n      dup2\n        /* \"#utility.yul\":8520:8651   */\n      tag_233\n      jump\t// in\n    tag_280:\n        /* \"#utility.yul\":8512:8651   */\n      swap1\n      pop\n        /* \"#utility.yul\":8410:8658   */\n      swap2\n      swap1\n      pop\n      jump\t// out\n        /* \"#utility.yul\":8664:9083   */\n    tag_108:\n      0x00\n        /* \"#utility.yul\":8868:8870   */\n      0x20\n        /* \"#utility.yul\":8857:8866   */\n      dup3\n        /* \"#utility.yul\":8853:8871   */\n      add\n        /* \"#utility.yul\":8845:8871   */\n      swap1\n      pop\n        /* \"#utility.yul\":8917:8926   */\n      dup2\n        /* \"#utility.yul\":8911:8915   */\n      dup2\n        /* \"#utility.yul\":8907:8927   */\n      sub\n        /* \"#utility.yul\":8903:8904   */\n      0x00\n        /* \"#utility.yul\":8892:8901   */\n      dup4\n        /* \"#utility.yul\":8888:8905   */\n      add\n        /* \"#utility.yul\":8881:8928   */\n      mstore\n        /* \"#utility.yul\":8945:9076   */\n      tag_282\n        /* \"#utility.yul\":9071:9075   */\n      dup2\n        /* \"#utility.yul\":8945:9076   */\n      tag_236\n      jump\t// in\n    tag_282:\n        /* \"#utility.yul\":8937:9076   */\n      swap1\n      pop\n        /* \"#utility.yul\":8835:9083   */\n      swap2\n      swap1\n      pop\n      jump\t// out\n        /* \"#utility.yul\":9089:9508   */\n    tag_140:\n      0x00\n        /* \"#utility.yul\":9293:9295   */\n      0x20\n        /* \"#utility.yul\":9282:9291   */\n      dup3\n        /* \"#utility.yul\":9278:9296   */\n      add\n        /* \"#utility.yul\":9270:9296   */\n      swap1\n      pop\n        /* \"#utility.yul\":9342:9351   */\n      dup2\n        /* \"#utility.yul\":9336:9340   */\n      dup2\n        /* \"#utility.yul\":9332:9352   */\n      sub\n        /* \"#utility.yul\":9328:9329   */\n      0x00\n        /* \"#utility.yul\":9317:9326   */\n      dup4\n        /* \"#utility.yul\":9313:9330   */\n      add\n        /* \"#utility.yul\":9306:9353   */\n      mstore\n        /* \"#utility.yul\":9370:9501   */\n      tag_284\n        /* \"#utility.yul\":9496:9500   */\n      dup2\n        /* \"#utility.yul\":9370:9501   */\n      tag_239\n      jump\t// in\n    tag_284:\n        /* \"#utility.yul\":9362:9501   */\n      swap1\n      pop\n        /* \"#utility.yul\":9260:9508   */\n      swap2\n      swap1\n      pop\n      jump\t// out\n        /* \"#utility.yul\":9514:9933   */\n    tag_147:\n      0x00\n        /* \"#utility.yul\":9718:9720   */\n      0x20\n        /* \"#utility.yul\":9707:9716   */\n      dup3\n        /* \"#utility.yul\":9703:9721   */\n      add\n        /* \"#utility.yul\":9695:9721   */\n      swap1\n      pop\n        /* \"#utility.yul\":9767:9776   */\n      dup2\n        /* \"#utility.yul\":9761:9765   */\n      dup2\n        /* \"#utility.yul\":9757:9777   */\n      sub\n        /* \"#utility.yul\":9753:9754   */\n      0x00\n        /* \"#utility.yul\":9742:9751   */\n      dup4\n        /* \"#utility.yul\":9738:9755   */\n      add\n        /* \"#utility.yul\":9731:9778   */\n      mstore\n        /* \"#utility.yul\":9795:9926   */\n      tag_286\n        /* \"#utility.yul\":9921:9925   */\n      dup2\n        /* \"#utility.yul\":9795:9926   */\n      tag_242\n      jump\t// in\n    tag_286:\n        /* \"#utility.yul\":9787:9926   */\n      swap1\n      pop\n        /* \"#utility.yul\":9685:9933   */\n      swap2\n      swap1\n      pop\n      jump\t// out\n        /* \"#utility.yul\":9939:10358   */\n    tag_160:\n      0x00\n        /* \"#utility.yul\":10143:10145   */\n      0x20\n        /* \"#utility.yul\":10132:10141   */\n      dup3\n        /* \"#utility.yul\":10128:10146   */\n      add\n        /* \"#utility.yul\":10120:10146   */\n      swap1\n      pop\n        /* \"#utility.yul\":10192:10201   */\n      dup2\n        /* \"#utility.yul\":10186:10190   */\n      dup2\n        /* \"#utility.yul\":10182:10202   */\n      sub\n        /* \"#utility.yul\":10178:10179   */\n      0x00\n        /* \"#utility.yul\":10167:10176   */\n      dup4\n        /* \"#utility.yul\":10163:10180   */\n      add\n        /* \"#utility.yul\":10156:10203   */\n      mstore\n        /* \"#utility.yul\":10220:10351   */\n      tag_288\n        /* \"#utility.yul\":10346:10350   */\n      dup2\n        /* \"#utility.yul\":10220:10351   */\n      tag_245\n      jump\t// in\n    tag_288:\n        /* \"#utility.yul\":10212:10351   */\n      swap1\n      pop\n        /* \"#utility.yul\":10110:10358   */\n      swap2\n      swap1\n      pop\n      jump\t// out\n        /* \"#utility.yul\":10364:10783   */\n    tag_175:\n      0x00\n        /* \"#utility.yul\":10568:10570   */\n      0x20\n        /* \"#utility.yul\":10557:10566   */\n      dup3\n        /* \"#utility.yul\":10553:10571   */\n      add\n        /* \"#utility.yul\":10545:10571   */\n      swap1\n      pop\n        /* \"#utility.yul\":10617:10626   */\n      dup2\n        /* \"#utility.yul\":10611:10615   */\n      dup2\n        /* \"#utility.yul\":10607:10627   */\n      sub\n        /* \"#utility.yul\":10603:10604   */\n      0x00\n        /* \"#utility.yul\":10592:10601   */\n      dup4\n        /* \"#utility.yul\":10588:10605   */\n      add\n        /* \"#utility.yul\":10581:10628   */\n      mstore\n        /* \"#utility.yul\":10645:10776   */\n      tag_290\n        /* \"#utility.yul\":10771:10775   */\n      dup2\n        /* \"#utility.yul\":10645:10776   */\n      tag_248\n      jump\t// in\n    tag_290:\n        /* \"#utility.yul\":10637:10776   */\n      swap1\n      pop\n        /* \"#utility.yul\":10535:10783   */\n      swap2\n      swap1\n      pop\n      jump\t// out\n        /* \"#utility.yul\":10789:11208   */\n    tag_152:\n      0x00\n        /* \"#utility.yul\":10993:10995   */\n      0x20\n        /* \"#utility.yul\":10982:10991   */\n      dup3\n        /* \"#utility.yul\":10978:10996   */\n      add\n        /* \"#utility.yul\":10970:10996   */\n      swap1\n      pop\n        /* \"#utility.yul\":11042:11051   */\n      dup2\n        /* \"#utility.yul\":11036:11040   */\n      dup2\n        /* \"#utility.yul\":11032:11052   */\n      sub\n        /* \"#utility.yul\":11028:11029   */\n      0x00\n        /* \"#utility.yul\":11017:11026   */\n      dup4\n        /* \"#utility.yul\":11013:11030   */\n      add\n        /* \"#utility.yul\":11006:11053   */\n      mstore\n        /* \"#utility.yul\":11070:11201   */\n      tag_292\n        /* \"#utility.yul\":11196:11200   */\n      dup2\n        /* \"#utility.yul\":11070:11201   */\n      tag_251\n      jump\t// in\n    tag_292:\n        /* \"#utility.yul\":11062:11201   */\n      swap1\n      pop\n        /* \"#utility.yul\":10960:11208   */\n      swap2\n      swap1\n      pop\n      jump\t// out\n        /* \"#utility.yul\":11214:11633   */\n    tag_137:\n      0x00\n        /* \"#utility.yul\":11418:11420   */\n      0x20\n        /* \"#utility.yul\":11407:11416   */\n      dup3\n        /* \"#utility.yul\":11403:11421   */\n      add\n        /* \"#utility.yul\":11395:11421   */\n      swap1\n      pop\n        /* \"#utility.yul\":11467:11476   */\n      dup2\n        /* \"#utility.yul\":11461:11465   */\n      dup2\n        /* \"#utility.yul\":11457:11477   */\n      sub\n        /* \"#utility.yul\":11453:11454   */\n      0x00\n        /* \"#utility.yul\":11442:11451   */\n      dup4\n        /* \"#utility.yul\":11438:11455   */\n      add\n        /* \"#utility.yul\":11431:11478   */\n      mstore\n        /* \"#utility.yul\":11495:11626   */\n      tag_294\n        /* \"#utility.yul\":11621:11625   */\n      dup2\n        /* \"#utility.yul\":11495:11626   */\n      tag_254\n      jump\t// in\n    tag_294:\n        /* \"#utility.yul\":11487:11626   */\n      swap1\n      pop\n        /* \"#utility.yul\":11385:11633   */\n      swap2\n      swap1\n      pop\n      jump\t// out\n        /* \"#utility.yul\":11639:12058   */\n    tag_127:\n      0x00\n        /* \"#utility.yul\":11843:11845   */\n      0x20\n        /* \"#utility.yul\":11832:11841   */\n      dup3\n        /* \"#utility.yul\":11828:11846   */\n      add\n        /* \"#utility.yul\":11820:11846   */\n      swap1\n      pop\n        /* \"#utility.yul\":11892:11901   */\n      dup2\n        /* \"#utility.yul\":11886:11890   */\n      dup2\n        /* \"#utility.yul\":11882:11902   */\n      sub\n        /* \"#utility.yul\":11878:11879   */\n      0x00\n        /* \"#utility.yul\":11867:11876   */\n      dup4\n        /* \"#utility.yul\":11863:11880   */\n      add\n        /* \"#utility.yul\":11856:11903   */\n      mstore\n        /* \"#utility.yul\":11920:12051   */\n      tag_296\n        /* \"#utility.yul\":12046:12050   */\n      dup2\n        /* \"#utility.yul\":11920:12051   */\n      tag_257\n      jump\t// in\n    tag_296:\n        /* \"#utility.yul\":11912:12051   */\n      swap1\n      pop\n        /* \"#utility.yul\":11810:12058   */\n      swap2\n      swap1\n      pop\n      jump\t// out\n        /* \"#utility.yul\":12064:12483   */\n    tag_167:\n      0x00\n        /* \"#utility.yul\":12268:12270   */\n      0x20\n        /* \"#utility.yul\":12257:12266   */\n      dup3\n        /* \"#utility.yul\":12253:12271   */\n      add\n        /* \"#utility.yul\":12245:12271   */\n      swap1\n      pop\n        /* \"#utility.yul\":12317:12326   */\n      dup2\n        /* \"#utility.yul\":12311:12315   */\n      dup2\n        /* \"#utility.yul\":12307:12327   */\n      sub\n        /* \"#utility.yul\":12303:12304   */\n      0x00\n        /* \"#utility.yul\":12292:12301   */\n      dup4\n        /* \"#utility.yul\":12288:12305   */\n      add\n        /* \"#utility.yul\":12281:12328   */\n      mstore\n        /* \"#utility.yul\":12345:12476   */\n      tag_298\n        /* \"#utility.yul\":12471:12475   */\n      dup2\n        /* \"#utility.yul\":12345:12476   */\n      tag_260\n      jump\t// in\n    tag_298:\n        /* \"#utility.yul\":12337:12476   */\n      swap1\n      pop\n        /* \"#utility.yul\":12235:12483   */\n      swap2\n      swap1\n      pop\n      jump\t// out\n        /* \"#utility.yul\":12489:12711   */\n    tag_33:\n      0x00\n        /* \"#utility.yul\":12620:12622   */\n      0x20\n        /* \"#utility.yul\":12609:12618   */\n      dup3\n        /* \"#utility.yul\":12605:12623   */\n      add\n        /* \"#utility.yul\":12597:12623   */\n      swap1\n      pop\n        /* \"#utility.yul\":12633:12704   */\n      tag_300\n        /* \"#utility.yul\":12701:12702   */\n      0x00\n        /* \"#utility.yul\":12690:12699   */\n      dup4\n        /* \"#utility.yul\":12686:12703   */\n      add\n        /* \"#utility.yul\":12677:12683   */\n      dup5\n        /* \"#utility.yul\":12633:12704   */\n      tag_263\n      jump\t// in\n    tag_300:\n        /* \"#utility.yul\":12587:12711   */\n      swap3\n      swap2\n      pop\n      pop\n      jump\t// out\n        /* \"#utility.yul\":12717:12931   */\n    tag_42:\n      0x00\n        /* \"#utility.yul\":12844:12846   */\n      0x20\n        /* \"#utility.yul\":12833:12842   */\n      dup3\n        /* \"#utility.yul\":12829:12847   */\n      add\n        /* \"#utility.yul\":12821:12847   */\n      swap1\n      pop\n        /* \"#utility.yul\":12857:12924   */\n      tag_302\n        /* \"#utility.yul\":12921:12922   */\n      0x00\n        /* \"#utility.yul\":12910:12919   */\n      dup4\n        /* \"#utility.yul\":12906:12923   */\n      add\n        /* \"#utility.yul\":12897:12903   */\n      dup5\n        /* \"#utility.yul\":12857:12924   */\n      tag_267\n      jump\t// in\n    tag_302:\n        /* \"#utility.yul\":12811:12931   */\n      swap3\n      swap2\n      pop\n      pop\n      jump\t// out\n        /* \"#utility.yul\":12937:13036   */\n    tag_223:\n      0x00\n        /* \"#utility.yul\":13023:13028   */\n      dup2\n        /* \"#utility.yul\":13017:13029   */\n      mload\n        /* \"#utility.yul\":13007:13029   */\n      swap1\n      pop\n        /* \"#utility.yul\":12996:13036   */\n      swap2\n      swap1\n      pop\n      jump\t// out\n        /* \"#utility.yul\":13042:13211   */\n    tag_225:\n      0x00\n        /* \"#utility.yul\":13160:13166   */\n      dup3\n        /* \"#utility.yul\":13155:13158   */\n      dup3\n        /* \"#utility.yul\":13148:13167   */\n      mstore\n        /* \"#utility.yul\":13200:13204   */\n      0x20\n        /* \"#utility.yul\":13195:13198   */\n      dup3\n        /* \"#utility.yul\":13191:13205   */\n      add\n        /* \"#utility.yul\":13176:13205   */\n      swap1\n      pop\n        /* \"#utility.yul\":13138:13211   */\n      swap3\n      swap2\n      pop\n      pop\n      jump\t// out\n        /* \"#utility.yul\":13217:13522   */\n    tag_104:\n      0x00\n        /* \"#utility.yul\":13276:13296   */\n      tag_306\n        /* \"#utility.yul\":13294:13295   */\n      dup3\n        /* \"#utility.yul\":13276:13296   */\n      tag_266\n      jump\t// in\n    tag_306:\n        /* \"#utility.yul\":13271:13296   */\n      swap2\n      pop\n        /* \"#utility.yul\":13310:13330   */\n      tag_307\n        /* \"#utility.yul\":13328:13329   */\n      dup4\n        /* \"#utility.yul\":13310:13330   */\n      tag_266\n      jump\t// in\n    tag_307:\n        /* \"#utility.yul\":13305:13330   */\n      swap3\n      pop\n        /* \"#utility.yul\":13464:13465   */\n      dup3\n        /* \"#utility.yul\":13396:13462   */\n      0xffffffffffffffffffffffffffffffffffffffffffffffffffffffffffffffff\n        /* \"#utility.yul\":13392:13466   */\n      sub\n        /* \"#utility.yul\":13389:13390   */\n      dup3\n        /* \"#utility.yul\":13386:13467   */\n      gt\n        /* \"#utility.yul\":13383:13385   */\n      iszero\n      tag_308\n      jumpi\n        /* \"#utility.yul\":13470:13488   */\n      tag_309\n      tag_310\n      jump\t// in\n    tag_309:\n        /* \"#utility.yul\":13383:13385   */\n    tag_308:\n        /* \"#utility.yul\":13514:13515   */\n      dup3\n        /* \"#utility.yul\":13511:13512   */\n      dup3\n        /* \"#utility.yul\":13507:13516   */\n      add\n        /* \"#utility.yul\":13500:13516   */\n      swap1\n      pop\n        /* \"#utility.yul\":13261:13522   */\n      swap3\n      swap2\n      pop\n      pop\n      jump\t// out\n        /* \"#utility.yul\":13528:13624   */\n    tag_215:\n      0x00\n        /* \"#utility.yul\":13594:13618   */\n      tag_312\n        /* \"#utility.yul\":13612:13617   */\n      dup3\n        /* \"#utility.yul\":13594:13618   */\n      tag_313\n      jump\t// in\n    tag_312:\n        /* \"#utility.yul\":13583:13618   */\n      swap1\n      pop\n        /* \"#utility.yul\":13573:13624   */\n      swap2\n      swap1\n      pop\n      jump\t// out\n        /* \"#utility.yul\":13630:13720   */\n    tag_219:\n      0x00\n        /* \"#utility.yul\":13707:13712   */\n      dup2\n        /* \"#utility.yul\":13700:13713   */\n      iszero\n        /* \"#utility.yul\":13693:13714   */\n      iszero\n        /* \"#utility.yul\":13682:13714   */\n      swap1\n      pop\n        /* \"#utility.yul\":13672:13720   */\n      swap2\n      swap1\n      pop\n      jump\t// out\n        /* \"#utility.yul\":13726:13852   */\n    tag_313:\n      0x00\n        /* \"#utility.yul\":13803:13845   */\n      0xffffffffffffffffffffffffffffffffffffffff\n        /* \"#utility.yul\":13796:13801   */\n      dup3\n        /* \"#utility.yul\":13792:13846   */\n      and\n        /* \"#utility.yul\":13781:13846   */\n      swap1\n      pop\n        /* \"#utility.yul\":13771:13852   */\n      swap2\n      swap1\n      pop\n      jump\t// out\n        /* \"#utility.yul\":13858:13935   */\n    tag_266:\n      0x00\n        /* \"#utility.yul\":13924:13929   */\n      dup2\n        /* \"#utility.yul\":13913:13929   */\n      swap1\n      pop\n        /* \"#utility.yul\":13903:13935   */\n      swap2\n      swap1\n      pop\n      jump\t// out\n        /* \"#utility.yul\":13941:14027   */\n    tag_270:\n      0x00\n        /* \"#utility.yul\":14016:14020   */\n      0xff\n        /* \"#utility.yul\":14009:14014   */\n      dup3\n        /* \"#utility.yul\":14005:14021   */\n      and\n        /* \"#utility.yul\":13994:14021   */\n      swap1\n      pop\n        /* \"#utility.yul\":13984:14027   */\n      swap2\n      swap1\n      pop\n      jump\t// out\n        /* \"#utility.yul\":14033:14340   */\n    tag_227:\n        /* \"#utility.yul\":14101:14102   */\n      0x00\n        /* \"#utility.yul\":14111:14224   */\n    tag_319:\n        /* \"#utility.yul\":14125:14131   */\n      dup4\n        /* \"#utility.yul\":14122:14123   */\n      dup2\n        /* \"#utility.yul\":14119:14132   */\n      lt\n        /* \"#utility.yul\":14111:14224   */\n      iszero\n      tag_321\n      jumpi\n        /* \"#utility.yul\":14210:14211   */\n      dup1\n        /* \"#utility.yul\":14205:14208   */\n      dup3\n        /* \"#utility.yul\":14201:14212   */\n      add\n        /* \"#utility.yul\":14195:14213   */\n      mload\n        /* \"#utility.yul\":14191:14192   */\n      dup2\n        /* \"#utility.yul\":14186:14189   */\n      dup5\n        /* \"#utility.yul\":14182:14193   */\n      add\n        /* \"#utility.yul\":14175:14214   */\n      mstore\n        /* \"#utility.yul\":14147:14149   */\n      0x20\n        /* \"#utility.yul\":14144:14145   */\n      dup2\n        /* \"#utility.yul\":14140:14150   */\n      add\n        /* \"#utility.yul\":14135:14150   */\n      swap1\n      pop\n        /* \"#utility.yul\":14111:14224   */\n      jump(tag_319)\n    tag_321:\n        /* \"#utility.yul\":14242:14248   */\n      dup4\n        /* \"#utility.yul\":14239:14240   */\n      dup2\n        /* \"#utility.yul\":14236:14249   */\n      gt\n        /* \"#utility.yul\":14233:14235   */\n      iszero\n      tag_322\n      jumpi\n        /* \"#utility.yul\":14322:14323   */\n      0x00\n        /* \"#utility.yul\":14313:14319   */\n      dup5\n        /* \"#utility.yul\":14308:14311   */\n      dup5\n        /* \"#utility.yul\":14304:14320   */\n      add\n        /* \"#utility.yul\":14297:14324   */\n      mstore\n        /* \"#utility.yul\":14233:14235   */\n    tag_322:\n        /* \"#utility.yul\":14082:14340   */\n      pop\n      pop\n      pop\n      pop\n      jump\t// out\n        /* \"#utility.yul\":14346:14666   */\n    tag_81:\n      0x00\n        /* \"#utility.yul\":14427:14428   */\n      0x02\n        /* \"#utility.yul\":14421:14425   */\n      dup3\n        /* \"#utility.yul\":14417:14429   */\n      div\n        /* \"#utility.yul\":14407:14429   */\n      swap1\n      pop\n        /* \"#utility.yul\":14474:14475   */\n      0x01\n        /* \"#utility.yul\":14468:14472   */\n      dup3\n        /* \"#utility.yul\":14464:14476   */\n      and\n        /* \"#utility.yul\":14495:14513   */\n      dup1\n        /* \"#utility.yul\":14485:14487   */\n      tag_324\n      jumpi\n        /* \"#utility.yul\":14551:14555   */\n      0x7f\n        /* \"#utility.yul\":14543:14549   */\n      dup3\n        /* \"#utility.yul\":14539:14556   */\n      and\n        /* \"#utility.yul\":14529:14556   */\n      swap2\n      pop\n        /* \"#utility.yul\":14485:14487   */\n    tag_324:\n        /* \"#utility.yul\":14613:14615   */\n      0x20\n        /* \"#utility.yul\":14605:14611   */\n      dup3\n        /* \"#utility.yul\":14602:14616   */\n      lt\n        /* \"#utility.yul\":14582:14600   */\n      dup2\n        /* \"#utility.yul\":14579:14617   */\n      eq\n        /* \"#utility.yul\":14576:14578   */\n      iszero\n      tag_325\n      jumpi\n        /* \"#utility.yul\":14632:14650   */\n      tag_326\n      tag_327\n      jump\t// in\n    tag_326:\n        /* \"#utility.yul\":14576:14578   */\n    tag_325:\n        /* \"#utility.yul\":14397:14666   */\n      pop\n      swap2\n      swap1\n      pop\n      jump\t// out\n        /* \"#utility.yul\":14672:14852   */\n    tag_310:\n        /* \"#utility.yul\":14720:14797   */\n      0x4e487b7100000000000000000000000000000000000000000000000000000000\n        /* \"#utility.yul\":14717:14718   */\n      0x00\n        /* \"#utility.yul\":14710:14798   */\n      mstore\n        /* \"#utility.yul\":14817:14821   */\n      0x11\n        /* \"#utility.yul\":14814:14815   */\n      0x04\n        /* \"#utility.yul\":14807:14822   */\n      mstore\n        /* \"#utility.yul\":14841:14845   */\n      0x24\n        /* \"#utility.yul\":14838:14839   */\n      0x00\n        /* \"#utility.yul\":14831:14846   */\n      revert\n        /* \"#utility.yul\":14858:15038   */\n    tag_327:\n        /* \"#utility.yul\":14906:14983   */\n      0x4e487b7100000000000000000000000000000000000000000000000000000000\n        /* \"#utility.yul\":14903:14904   */\n      0x00\n        /* \"#utility.yul\":14896:14984   */\n      mstore\n        /* \"#utility.yul\":15003:15007   */\n      0x22\n        /* \"#utility.yul\":15000:15001   */\n      0x04\n        /* \"#utility.yul\":14993:15008   */\n      mstore\n        /* \"#utility.yul\":15027:15031   */\n      0x24\n        /* \"#utility.yul\":15024:15025   */\n      0x00\n        /* \"#utility.yul\":15017:15032   */\n      revert\n        /* \"#utility.yul\":15044:15146   */\n    tag_229:\n      0x00\n        /* \"#utility.yul\":15136:15138   */\n      0x1f\n        /* \"#utility.yul\":15132:15139   */\n      not\n        /* \"#utility.yul\":15127:15129   */\n      0x1f\n        /* \"#utility.yul\":15120:15125   */\n      dup4\n        /* \"#utility.yul\":15116:15130   */\n      add\n        /* \"#utility.yul\":15112:15140   */\n      and\n        /* \"#utility.yul\":15102:15140   */\n      swap1\n      pop\n        /* \"#utility.yul\":15092:15146   */\n      swap2\n      swap1\n      pop\n      jump\t// out\n        /* \"#utility.yul\":15152:15274   */\n    tag_188:\n        /* \"#utility.yul\":15225:15249   */\n      tag_332\n        /* \"#utility.yul\":15243:15248   */\n      dup2\n        /* \"#utility.yul\":15225:15249   */\n      tag_215\n      jump\t// in\n    tag_332:\n        /* \"#utility.yul\":15218:15223   */\n      dup2\n        /* \"#utility.yul\":15215:15250   */\n      eq\n        /* \"#utility.yul\":15205:15207   */\n      tag_333\n      jumpi\n        /* \"#utility.yul\":15264:15265   */\n      0x00\n        /* \"#utility.yul\":15261:15262   */\n      dup1\n        /* \"#utility.yul\":15254:15266   */\n      revert\n        /* \"#utility.yul\":15205:15207   */\n    tag_333:\n        /* \"#utility.yul\":15195:15274   */\n      pop\n      jump\t// out\n        /* \"#utility.yul\":15280:15402   */\n    tag_192:\n        /* \"#utility.yul\":15353:15377   */\n      tag_335\n        /* \"#utility.yul\":15371:15376   */\n      dup2\n        /* \"#utility.yul\":15353:15377   */\n      tag_266\n      jump\t// in\n    tag_335:\n        /* \"#utility.yul\":15346:15351   */\n      dup2\n        /* \"#utility.yul\":15343:15378   */\n      eq\n        /* \"#utility.yul\":15333:15335   */\n      tag_336\n      jumpi\n        /* \"#utility.yul\":15392:15393   */\n      0x00\n        /* \"#utility.yul\":15389:15390   */\n      dup1\n        /* \"#utility.yul\":15382:15394   */\n      revert\n        /* \"#utility.yul\":15333:15335   */\n    tag_336:\n        /* \"#utility.yul\":15323:15402   */\n      pop\n      jump\t// out\n\n    auxdata: 0xa2646970667358221220b1fa9142220f8fd426ed3d3db81ea20ca38fad9abd1db0e996c6d4f81de13cdc64736f6c63430008000033\n}\n",
				"bytecode": {
					"linkReferences": {},
					"object": "60806040523480156200001157600080fd5b5060405162001c2e38038062001c2e8339818101604052810190620000379190620001d8565b8181816003908051906020019062000051929190620000b6565b5080600490805190602001906200006a929190620000b6565b50505033600560006101000a81548173ffffffffffffffffffffffffffffffffffffffff021916908373ffffffffffffffffffffffffffffffffffffffff16021790555050506200037c565b828054620000c490620002e8565b90600052602060002090601f016020900481019282620000e8576000855562000134565b82601f106200010357805160ff191683800117855562000134565b8280016001018555821562000134579182015b828111156200013357825182559160200191906001019062000116565b5b50905062000143919062000147565b5090565b5b808211156200016257600081600090555060010162000148565b5090565b60006200017d62000177846200027f565b6200024b565b9050828152602081018484840111156200019657600080fd5b620001a3848285620002b2565b509392505050565b600082601f830112620001bd57600080fd5b8151620001cf84826020860162000166565b91505092915050565b60008060408385031215620001ec57600080fd5b600083015167ffffffffffffffff8111156200020757600080fd5b6200021585828601620001ab565b925050602083015167ffffffffffffffff8111156200023357600080fd5b6200024185828601620001ab565b9150509250929050565b6000604051905081810181811067ffffffffffffffff821117156200027557620002746200034d565b5b8060405250919050565b600067ffffffffffffffff8211156200029d576200029c6200034d565b5b601f19601f8301169050602081019050919050565b60005b83811015620002d2578082015181840152602081019050620002b5565b83811115620002e2576000848401525b50505050565b600060028204905060018216806200030157607f821691505b602082108114156200031857620003176200031e565b5b50919050565b7f4e487b7100000000000000000000000000000000000000000000000000000000600052602260045260246000fd5b7f4e487b7100000000000000000000000000000000000000000000000000000000600052604160045260246000fd5b6118a2806200038c6000396000f3fe608060405234801561001057600080fd5b50600436106100ea5760003560e01c806342966c681161008c57806395d89b411161006657806395d89b411461025f578063a457c2d71461027d578063a9059cbb146102ad578063dd62ed3e146102dd576100ea565b806342966c68146101f557806370a08231146102115780638da5cb5b14610241576100ea565b806323b872dd116100c857806323b872dd1461015b578063313ce5671461018b57806339509351146101a957806340c10f19146101d9576100ea565b806306fdde03146100ef578063095ea7b31461010d57806318160ddd1461013d575b600080fd5b6100f761030d565b60405161010491906114eb565b60405180910390f35b61012760048036038101906101229190610feb565b61039f565b60405161013491906114d0565b60405180910390f35b6101456103c2565b604051610152919061166d565b60405180910390f35b61017560048036038101906101709190610f9c565b6103cc565b60405161018291906114d0565b60405180910390f35b6101936103fb565b6040516101a09190611688565b60405180910390f35b6101c360048036038101906101be9190610feb565b610404565b6040516101d091906114d0565b60405180910390f35b6101f360048036038101906101ee9190610feb565b61043b565b005b61020f600480360381019061020a9190611027565b6104d9565b005b61022b60048036038101906102269190610f37565b6104e6565b604051610238919061166d565b60405180910390f35b61024961052e565b60405161025691906114b5565b60405180910390f35b610267610554565b60405161027491906114eb565b60405180910390f35b61029760048036038101906102929190610feb565b6105e6565b6040516102a491906114d0565b60405180910390f35b6102c760048036038101906102c29190610feb565b61065d565b6040516102d491906114d0565b60405180910390f35b6102f760048036038101906102f29190610f60565b610680565b604051610304919061166d565b60405180910390f35b60606003805461031c9061179d565b80601f01602080910402602001604051908101604052809291908181526020018280546103489061179d565b80156103955780601f1061036a57610100808354040283529160200191610395565b820191906000526020600020905b81548152906001019060200180831161037857829003601f168201915b5050505050905090565b6000806103aa610707565b90506103b781858561070f565b600191505092915050565b6000600254905090565b6000806103d7610707565b90506103e48582856108da565b6103ef858585610966565b60019150509392505050565b60006012905090565b60008061040f610707565b90506104308185856104218589610680565b61042b91906116bf565b61070f565b600191505092915050565b600560009054906101000a900473ffffffffffffffffffffffffffffffffffffffff1673ffffffffffffffffffffffffffffffffffffffff163373ffffffffffffffffffffffffffffffffffffffff16146104cb576040517f08c379a00000000000000000000000000000000000000000000000000000000081526004016104c29061154d565b60405180910390fd5b6104d58282610bde565b5050565b6104e33382610d35565b50565b60008060008373ffffffffffffffffffffffffffffffffffffffff1673ffffffffffffffffffffffffffffffffffffffff168152602001908152602001600020549050919050565b600560009054906101000a900473ffffffffffffffffffffffffffffffffffffffff1681565b6060600480546105639061179d565b80601f016020809104026020016040519081016040528092919081815260200182805461058f9061179d565b80156105dc5780601f106105b1576101008083540402835291602001916105dc565b820191906000526020600020905b8154815290600101906020018083116105bf57829003601f168201915b5050505050905090565b6000806105f1610707565b905060006105ff8286610680565b905083811015610644576040517f08c379a000000000000000000000000000000000000000000000000000000000815260040161063b9061162d565b60405180910390fd5b610651828686840361070f565b60019250505092915050565b600080610668610707565b9050610675818585610966565b600191505092915050565b6000600160008473ffffffffffffffffffffffffffffffffffffffff1673ffffffffffffffffffffffffffffffffffffffff16815260200190815260200160002060008373ffffffffffffffffffffffffffffffffffffffff1673ffffffffffffffffffffffffffffffffffffffff16815260200190815260200160002054905092915050565b600033905090565b600073ffffffffffffffffffffffffffffffffffffffff168373ffffffffffffffffffffffffffffffffffffffff16141561077f576040517f08c379a00000000000000000000000000000000000000000000000000000000081526004016107769061160d565b60405180910390fd5b600073ffffffffffffffffffffffffffffffffffffffff168273ffffffffffffffffffffffffffffffffffffffff1614156107ef576040517f08c379a00000000000000000000000000000000000000000000000000000000081526004016107e69061156d565b60405180910390fd5b80600160008573ffffffffffffffffffffffffffffffffffffffff1673ffffffffffffffffffffffffffffffffffffffff16815260200190815260200160002060008473ffffffffffffffffffffffffffffffffffffffff1673ffffffffffffffffffffffffffffffffffffffff168152602001908152602001600020819055508173ffffffffffffffffffffffffffffffffffffffff168373ffffffffffffffffffffffffffffffffffffffff167f8c5be1e5ebec7d5bd14f71427d1e84f3dd0314c0f7b2291e5b200ac8c7c3b925836040516108cd919061166d565b60405180910390a3505050565b60006108e68484610680565b90507fffffffffffffffffffffffffffffffffffffffffffffffffffffffffffffffff81146109605781811015610952576040517f08c379a00000000000000000000000000000000000000000000000000000000081526004016109499061158d565b60405180910390fd5b61095f848484840361070f565b5b50505050565b600073ffffffffffffffffffffffffffffffffffffffff168373ffffffffffffffffffffffffffffffffffffffff1614156109d6576040517f08c379a00000000000000000000000000000000000000000000000000000000081526004016109cd906115ed565b60405180910390fd5b600073ffffffffffffffffffffffffffffffffffffffff168273ffffffffffffffffffffffffffffffffffffffff161415610a46576040517f08c379a0000000000000000000000000000000000000000000000000000000008152600401610a3d9061150d565b60405180910390fd5b610a51838383610f03565b60008060008573ffffffffffffffffffffffffffffffffffffffff1673ffffffffffffffffffffffffffffffffffffffff16815260200190815260200160002054905081811015610ad7576040517f08c379a0000000000000000000000000000000000000000000000000000000008152600401610ace906115ad565b60405180910390fd5b8181036000808673ffffffffffffffffffffffffffffffffffffffff1673ffffffffffffffffffffffffffffffffffffffff16815260200190815260200160002081905550816000808573ffffffffffffffffffffffffffffffffffffffff1673ffffffffffffffffffffffffffffffffffffffff168152602001908152602001600020600082825401925050819055508273ffffffffffffffffffffffffffffffffffffffff168473ffffffffffffffffffffffffffffffffffffffff167fddf252ad1be2c89b69c2b068fc378daa952ba7f163c4a11628f55a4df523b3ef84604051610bc5919061166d565b60405180910390a3610bd8848484610f08565b50505050565b600073ffffffffffffffffffffffffffffffffffffffff168273ffffffffffffffffffffffffffffffffffffffff161415610c4e576040517f08c379a0000000000000000000000000000000000000000000000000000000008152600401610c459061164d565b60405180910390fd5b610c5a60008383610f03565b8060026000828254610c6c91906116bf565b92505081905550806000808473ffffffffffffffffffffffffffffffffffffffff1673ffffffffffffffffffffffffffffffffffffffff168152602001908152602001600020600082825401925050819055508173ffffffffffffffffffffffffffffffffffffffff16600073ffffffffffffffffffffffffffffffffffffffff167fddf252ad1be2c89b69c2b068fc378daa952ba7f163c4a11628f55a4df523b3ef83604051610d1d919061166d565b60405180910390a3610d3160008383610f08565b5050565b600073ffffffffffffffffffffffffffffffffffffffff168273ffffffffffffffffffffffffffffffffffffffff161415610da5576040517f08c379a0000000000000000000000000000000000000000000000000000000008152600401610d9c906115cd565b60405180910390fd5b610db182600083610f03565b60008060008473ffffffffffffffffffffffffffffffffffffffff1673ffffffffffffffffffffffffffffffffffffffff16815260200190815260200160002054905081811015610e37576040517f08c379a0000000000000000000000000000000000000000000000000000000008152600401610e2e9061152d565b60405180910390fd5b8181036000808573ffffffffffffffffffffffffffffffffffffffff1673ffffffffffffffffffffffffffffffffffffffff1681526020019081526020016000208190555081600260008282540392505081905550600073ffffffffffffffffffffffffffffffffffffffff168373ffffffffffffffffffffffffffffffffffffffff167fddf252ad1be2c89b69c2b068fc378daa952ba7f163c4a11628f55a4df523b3ef84604051610eea919061166d565b60405180910390a3610efe83600084610f08565b505050565b505050565b505050565b600081359050610f1c8161183e565b92915050565b600081359050610f3181611855565b92915050565b600060208284031215610f4957600080fd5b6000610f5784828501610f0d565b91505092915050565b60008060408385031215610f7357600080fd5b6000610f8185828601610f0d565b9250506020610f9285828601610f0d565b9150509250929050565b600080600060608486031215610fb157600080fd5b6000610fbf86828701610f0d565b9350506020610fd086828701610f0d565b9250506040610fe186828701610f22565b9150509250925092565b60008060408385031215610ffe57600080fd5b600061100c85828601610f0d565b925050602061101d85828601610f22565b9150509250929050565b60006020828403121561103957600080fd5b600061104784828501610f22565b91505092915050565b61105981611715565b82525050565b61106881611727565b82525050565b6000611079826116a3565b61108381856116ae565b935061109381856020860161176a565b61109c8161182d565b840191505092915050565b60006110b46023836116ae565b91507f45524332303a207472616e7366657220746f20746865207a65726f206164647260008301527f65737300000000000000000000000000000000000000000000000000000000006020830152604082019050919050565b600061111a6022836116ae565b91507f45524332303a206275726e20616d6f756e7420657863656564732062616c616e60008301527f63650000000000000000000000000000000000000000000000000000000000006020830152604082019050919050565b60006111806017836116ae565b91507f43616c6c6572206973206e6f7420746865206f776e65720000000000000000006000830152602082019050919050565b60006111c06022836116ae565b91507f45524332303a20617070726f766520746f20746865207a65726f20616464726560008301527f73730000000000000000000000000000000000000000000000000000000000006020830152604082019050919050565b6000611226601d836116ae565b91507f45524332303a20696e73756666696369656e7420616c6c6f77616e63650000006000830152602082019050919050565b60006112666026836116ae565b91507f45524332303a207472616e7366657220616d6f756e742065786365656473206260008301527f616c616e636500000000000000000000000000000000000000000000000000006020830152604082019050919050565b60006112cc6021836116ae565b91507f45524332303a206275726e2066726f6d20746865207a65726f2061646472657360008301527f73000000000000000000000000000000000000000000000000000000000000006020830152604082019050919050565b60006113326025836116ae565b91507f45524332303a207472616e736665722066726f6d20746865207a65726f20616460008301527f64726573730000000000000000000000000000000000000000000000000000006020830152604082019050919050565b60006113986024836116ae565b91507f45524332303a20617070726f76652066726f6d20746865207a65726f2061646460008301527f72657373000000000000000000000000000000000000000000000000000000006020830152604082019050919050565b60006113fe6025836116ae565b91507f45524332303a2064656372656173656420616c6c6f77616e63652062656c6f7760008301527f207a65726f0000000000000000000000000000000000000000000000000000006020830152604082019050919050565b6000611464601f836116ae565b91507f45524332303a206d696e7420746f20746865207a65726f2061646472657373006000830152602082019050919050565b6114a081611753565b82525050565b6114af8161175d565b82525050565b60006020820190506114ca6000830184611050565b92915050565b60006020820190506114e5600083018461105f565b92915050565b60006020820190508181036000830152611505818461106e565b905092915050565b60006020820190508181036000830152611526816110a7565b9050919050565b600060208201905081810360008301526115468161110d565b9050919050565b6000602082019050818103600083015261156681611173565b9050919050565b60006020820190508181036000830152611586816111b3565b9050919050565b600060208201905081810360008301526115a681611219565b9050919050565b600060208201905081810360008301526115c681611259565b9050919050565b600060208201905081810360008301526115e6816112bf565b9050919050565b6000602082019050818103600083015261160681611325565b9050919050565b600060208201905081810360008301526116268161138b565b9050919050565b60006020820190508181036000830152611646816113f1565b9050919050565b6000602082019050818103600083015261166681611457565b9050919050565b60006020820190506116826000830184611497565b92915050565b600060208201905061169d60008301846114a6565b92915050565b600081519050919050565b600082825260208201905092915050565b60006116ca82611753565b91506116d583611753565b9250827fffffffffffffffffffffffffffffffffffffffffffffffffffffffffffffffff0382111561170a576117096117cf565b5b828201905092915050565b600061172082611733565b9050919050565b60008115159050919050565b600073ffffffffffffffffffffffffffffffffffffffff82169050919050565b6000819050919050565b600060ff82169050919050565b60005b8381101561178857808201518184015260208101905061176d565b83811115611797576000848401525b50505050565b600060028204905060018216806117b557607f821691505b602082108114156117c9576117c86117fe565b5b50919050565b7f4e487b7100000000000000000000000000000000000000000000000000000000600052601160045260246000fd5b7f4e487b7100000000000000000000000000000000000000000000000000000000600052602260045260246000fd5b6000601f19601f8301169050919050565b61184781611715565b811461185257600080fd5b50565b61185e81611753565b811461186957600080fd5b5056fea2646970667358221220b1fa9142220f8fd426ed3d3db81ea20ca38fad9abd1db0e996c6d4f81de13cdc64736f6c63430008000033",
					"opcodes": "PUSH1 0x80 PUSH1 0x40 MSTORE CALLVALUE DUP1 ISZERO PUSH3 0x11 JUMPI PUSH1 0x0 DUP1 REVERT JUMPDEST POP PUSH1 0x40 MLOAD PUSH3 0x1C2E CODESIZE SUB DUP1 PUSH3 0x1C2E DUP4 CODECOPY DUP2 DUP2 ADD PUSH1 0x40 MSTORE DUP2 ADD SWAP1 PUSH3 0x37 SWAP2 SWAP1 PUSH3 0x1D8 JUMP JUMPDEST DUP2 DUP2 DUP2 PUSH1 0x3 SWAP1 DUP1 MLOAD SWAP1 PUSH1 0x20 ADD SWAP1 PUSH3 0x51 SWAP3 SWAP2 SWAP1 PUSH3 0xB6 JUMP JUMPDEST POP DUP1 PUSH1 0x4 SWAP1 DUP1 MLOAD SWAP1 PUSH1 0x20 ADD SWAP1 PUSH3 0x6A SWAP3 SWAP2 SWAP1 PUSH3 0xB6 JUMP JUMPDEST POP POP POP CALLER PUSH1 0x5 PUSH1 0x0 PUSH2 0x100 EXP DUP2 SLOAD DUP2 PUSH20 0xFFFFFFFFFFFFFFFFFFFFFFFFFFFFFFFFFFFFFFFF MUL NOT AND SWAP1 DUP4 PUSH20 0xFFFFFFFFFFFFFFFFFFFFFFFFFFFFFFFFFFFFFFFF AND MUL OR SWAP1 SSTORE POP POP POP PUSH3 0x37C JUMP JUMPDEST DUP3 DUP1 SLOAD PUSH3 0xC4 SWAP1 PUSH3 0x2E8 JUMP JUMPDEST SWAP1 PUSH1 0x0 MSTORE PUSH1 0x20 PUSH1 0x0 KECCAK256 SWAP1 PUSH1 0x1F ADD PUSH1 0x20 SWAP1 DIV DUP2 ADD SWAP3 DUP3 PUSH3 0xE8 JUMPI PUSH1 0x0 DUP6 SSTORE PUSH3 0x134 JUMP JUMPDEST DUP3 PUSH1 0x1F LT PUSH3 0x103 JUMPI DUP1 MLOAD PUSH1 0xFF NOT AND DUP4 DUP1 ADD OR DUP6 SSTORE PUSH3 0x134 JUMP JUMPDEST DUP3 DUP1 ADD PUSH1 0x1 ADD DUP6 SSTORE DUP3 ISZERO PUSH3 0x134 JUMPI SWAP2 DUP3 ADD JUMPDEST DUP3 DUP2 GT ISZERO PUSH3 0x133 JUMPI DUP3 MLOAD DUP3 SSTORE SWAP2 PUSH1 0x20 ADD SWAP2 SWAP1 PUSH1 0x1 ADD SWAP1 PUSH3 0x116 JUMP JUMPDEST JUMPDEST POP SWAP1 POP PUSH3 0x143 SWAP2 SWAP1 PUSH3 0x147 JUMP JUMPDEST POP SWAP1 JUMP JUMPDEST JUMPDEST DUP1 DUP3 GT ISZERO PUSH3 0x162 JUMPI PUSH1 0x0 DUP2 PUSH1 0x0 SWAP1 SSTORE POP PUSH1 0x1 ADD PUSH3 0x148 JUMP JUMPDEST POP SWAP1 JUMP JUMPDEST PUSH1 0x0 PUSH3 0x17D PUSH3 0x177 DUP5 PUSH3 0x27F JUMP JUMPDEST PUSH3 0x24B JUMP JUMPDEST SWAP1 POP DUP3 DUP2 MSTORE PUSH1 0x20 DUP2 ADD DUP5 DUP5 DUP5 ADD GT ISZERO PUSH3 0x196 JUMPI PUSH1 0x0 DUP1 REVERT JUMPDEST PUSH3 0x1A3 DUP5 DUP3 DUP6 PUSH3 0x2B2 JUMP JUMPDEST POP SWAP4 SWAP3 POP POP POP JUMP JUMPDEST PUSH1 0x0 DUP3 PUSH1 0x1F DUP4 ADD SLT PUSH3 0x1BD JUMPI PUSH1 0x0 DUP1 REVERT JUMPDEST DUP2 MLOAD PUSH3 0x1CF DUP5 DUP3 PUSH1 0x20 DUP7 ADD PUSH3 0x166 JUMP JUMPDEST SWAP2 POP POP SWAP3 SWAP2 POP POP JUMP JUMPDEST PUSH1 0x0 DUP1 PUSH1 0x40 DUP4 DUP6 SUB SLT ISZERO PUSH3 0x1EC JUMPI PUSH1 0x0 DUP1 REVERT JUMPDEST PUSH1 0x0 DUP4 ADD MLOAD PUSH8 0xFFFFFFFFFFFFFFFF DUP2 GT ISZERO PUSH3 0x207 JUMPI PUSH1 0x0 DUP1 REVERT JUMPDEST PUSH3 0x215 DUP6 DUP3 DUP7 ADD PUSH3 0x1AB JUMP JUMPDEST SWAP3 POP POP PUSH1 0x20 DUP4 ADD MLOAD PUSH8 0xFFFFFFFFFFFFFFFF DUP2 GT ISZERO PUSH3 0x233 JUMPI PUSH1 0x0 DUP1 REVERT JUMPDEST PUSH3 0x241 DUP6 DUP3 DUP7 ADD PUSH3 0x1AB JUMP JUMPDEST SWAP2 POP POP SWAP3 POP SWAP3 SWAP1 POP JUMP JUMPDEST PUSH1 0x0 PUSH1 0x40 MLOAD SWAP1 POP DUP2 DUP2 ADD DUP2 DUP2 LT PUSH8 0xFFFFFFFFFFFFFFFF DUP3 GT OR ISZERO PUSH3 0x275 JUMPI PUSH3 0x274 PUSH3 0x34D JUMP JUMPDEST JUMPDEST DUP1 PUSH1 0x40 MSTORE POP SWAP2 SWAP1 POP JUMP JUMPDEST PUSH1 0x0 PUSH8 0xFFFFFFFFFFFFFFFF DUP3 GT ISZERO PUSH3 0x29D JUMPI PUSH3 0x29C PUSH3 0x34D JUMP JUMPDEST JUMPDEST PUSH1 0x1F NOT PUSH1 0x1F DUP4 ADD AND SWAP1 POP PUSH1 0x20 DUP2 ADD SWAP1 POP SWAP2 SWAP1 POP JUMP JUMPDEST PUSH1 0x0 JUMPDEST DUP4 DUP2 LT ISZERO PUSH3 0x2D2 JUMPI DUP1 DUP3 ADD MLOAD DUP2 DUP5 ADD MSTORE PUSH1 0x20 DUP2 ADD SWAP1 POP PUSH3 0x2B5 JUMP JUMPDEST DUP4 DUP2 GT ISZERO PUSH3 0x2E2 JUMPI PUSH1 0x0 DUP5 DUP5 ADD MSTORE JUMPDEST POP POP POP POP JUMP JUMPDEST PUSH1 0x0 PUSH1 0x2 DUP3 DIV SWAP1 POP PUSH1 0x1 DUP3 AND DUP1 PUSH3 0x301 JUMPI PUSH1 0x7F DUP3 AND SWAP2 POP JUMPDEST PUSH1 0x20 DUP3 LT DUP2 EQ ISZERO PUSH3 0x318 JUMPI PUSH3 0x317 PUSH3 0x31E JUMP JUMPDEST JUMPDEST POP SWAP2 SWAP1 POP JUMP JUMPDEST PUSH32 0x4E487B7100000000000000000000000000000000000000000000000000000000 PUSH1 0x0 MSTORE PUSH1 0x22 PUSH1 0x4 MSTORE PUSH1 0x24 PUSH1 0x0 REVERT JUMPDEST PUSH32 0x4E487B7100000000000000000000000000000000000000000000000000000000 PUSH1 0x0 MSTORE PUSH1 0x41 PUSH1 0x4 MSTORE PUSH1 0x24 PUSH1 0x0 REVERT JUMPDEST PUSH2 0x18A2 DUP1 PUSH3 0x38C PUSH1 0x0 CODECOPY PUSH1 0x0 RETURN INVALID PUSH1 0x80 PUSH1 0x40 MSTORE CALLVALUE DUP1 ISZERO PUSH2 0x10 JUMPI PUSH1 0x0 DUP1 REVERT JUMPDEST POP PUSH1 0x4 CALLDATASIZE LT PUSH2 0xEA JUMPI PUSH1 0x0 CALLDATALOAD PUSH1 0xE0 SHR DUP1 PUSH4 0x42966C68 GT PUSH2 0x8C JUMPI DUP1 PUSH4 0x95D89B41 GT PUSH2 0x66 JUMPI DUP1 PUSH4 0x95D89B41 EQ PUSH2 0x25F JUMPI DUP1 PUSH4 0xA457C2D7 EQ PUSH2 0x27D JUMPI DUP1 PUSH4 0xA9059CBB EQ PUSH2 0x2AD JUMPI DUP1 PUSH4 0xDD62ED3E EQ PUSH2 0x2DD JUMPI PUSH2 0xEA JUMP JUMPDEST DUP1 PUSH4 0x42966C68 EQ PUSH2 0x1F5 JUMPI DUP1 PUSH4 0x70A08231 EQ PUSH2 0x211 JUMPI DUP1 PUSH4 0x8DA5CB5B EQ PUSH2 0x241 JUMPI PUSH2 0xEA JUMP JUMPDEST DUP1 PUSH4 0x23B872DD GT PUSH2 0xC8 JUMPI DUP1 PUSH4 0x23B872DD EQ PUSH2 0x15B JUMPI DUP1 PUSH4 0x313CE567 EQ PUSH2 0x18B JUMPI DUP1 PUSH4 0x39509351 EQ PUSH2 0x1A9 JUMPI DUP1 PUSH4 0x40C10F19 EQ PUSH2 0x1D9 JUMPI PUSH2 0xEA JUMP JUMPDEST DUP1 PUSH4 0x6FDDE03 EQ PUSH2 0xEF JUMPI DUP1 PUSH4 0x95EA7B3 EQ PUSH2 0x10D JUMPI DUP1 PUSH4 0x18160DDD EQ PUSH2 0x13D JUMPI JUMPDEST PUSH1 0x0 DUP1 REVERT JUMPDEST PUSH2 0xF7 PUSH2 0x30D JUMP JUMPDEST PUSH1 0x40 MLOAD PUSH2 0x104 SWAP2 SWAP1 PUSH2 0x14EB JUMP JUMPDEST PUSH1 0x40 MLOAD DUP1 SWAP2 SUB SWAP1 RETURN JUMPDEST PUSH2 0x127 PUSH1 0x4 DUP1 CALLDATASIZE SUB DUP2 ADD SWAP1 PUSH2 0x122 SWAP2 SWAP1 PUSH2 0xFEB JUMP JUMPDEST PUSH2 0x39F JUMP JUMPDEST PUSH1 0x40 MLOAD PUSH2 0x134 SWAP2 SWAP1 PUSH2 0x14D0 JUMP JUMPDEST PUSH1 0x40 MLOAD DUP1 SWAP2 SUB SWAP1 RETURN JUMPDEST PUSH2 0x145 PUSH2 0x3C2 JUMP JUMPDEST PUSH1 0x40 MLOAD PUSH2 0x152 SWAP2 SWAP1 PUSH2 0x166D JUMP JUMPDEST PUSH1 0x40 MLOAD DUP1 SWAP2 SUB SWAP1 RETURN JUMPDEST PUSH2 0x175 PUSH1 0x4 DUP1 CALLDATASIZE SUB DUP2 ADD SWAP1 PUSH2 0x170 SWAP2 SWAP1 PUSH2 0xF9C JUMP JUMPDEST PUSH2 0x3CC JUMP JUMPDEST PUSH1 0x40 MLOAD PUSH2 0x182 SWAP2 SWAP1 PUSH2 0x14D0 JUMP JUMPDEST PUSH1 0x40 MLOAD DUP1 SWAP2 SUB SWAP1 RETURN JUMPDEST PUSH2 0x193 PUSH2 0x3FB JUMP JUMPDEST PUSH1 0x40 MLOAD PUSH2 0x1A0 SWAP2 SWAP1 PUSH2 0x1688 JUMP JUMPDEST PUSH1 0x40 MLOAD DUP1 SWAP2 SUB SWAP1 RETURN JUMPDEST PUSH2 0x1C3 PUSH1 0x4 DUP1 CALLDATASIZE SUB DUP2 ADD SWAP1 PUSH2 0x1BE SWAP2 SWAP1 PUSH2 0xFEB JUMP JUMPDEST PUSH2 0x404 JUMP JUMPDEST PUSH1 0x40 MLOAD PUSH2 0x1D0 SWAP2 SWAP1 PUSH2 0x14D0 JUMP JUMPDEST PUSH1 0x40 MLOAD DUP1 SWAP2 SUB SWAP1 RETURN JUMPDEST PUSH2 0x1F3 PUSH1 0x4 DUP1 CALLDATASIZE SUB DUP2 ADD SWAP1 PUSH2 0x1EE SWAP2 SWAP1 PUSH2 0xFEB JUMP JUMPDEST PUSH2 0x43B JUMP JUMPDEST STOP JUMPDEST PUSH2 0x20F PUSH1 0x4 DUP1 CALLDATASIZE SUB DUP2 ADD SWAP1 PUSH2 0x20A SWAP2 SWAP1 PUSH2 0x1027 JUMP JUMPDEST PUSH2 0x4D9 JUMP JUMPDEST STOP JUMPDEST PUSH2 0x22B PUSH1 0x4 DUP1 CALLDATASIZE SUB DUP2 ADD SWAP1 PUSH2 0x226 SWAP2 SWAP1 PUSH2 0xF37 JUMP JUMPDEST PUSH2 0x4E6 JUMP JUMPDEST PUSH1 0x40 MLOAD PUSH2 0x238 SWAP2 SWAP1 PUSH2 0x166D JUMP JUMPDEST PUSH1 0x40 MLOAD DUP1 SWAP2 SUB SWAP1 RETURN JUMPDEST PUSH2 0x249 PUSH2 0x52E JUMP JUMPDEST PUSH1 0x40 MLOAD PUSH2 0x256 SWAP2 SWAP1 PUSH2 0x14B5 JUMP JUMPDEST PUSH1 0x40 MLOAD DUP1 SWAP2 SUB SWAP1 RETURN JUMPDEST PUSH2 0x267 PUSH2 0x554 JUMP JUMPDEST PUSH1 0x40 MLOAD PUSH2 0x274 SWAP2 SWAP1 PUSH2 0x14EB JUMP JUMPDEST PUSH1 0x40 MLOAD DUP1 SWAP2 SUB SWAP1 RETURN JUMPDEST PUSH2 0x297 PUSH1 0x4 DUP1 CALLDATASIZE SUB DUP2 ADD SWAP1 PUSH2 0x292 SWAP2 SWAP1 PUSH2 0xFEB JUMP JUMPDEST PUSH2 0x5E6 JUMP JUMPDEST PUSH1 0x40 MLOAD PUSH2 0x2A4 SWAP2 SWAP1 PUSH2 0x14D0 JUMP JUMPDEST PUSH1 0x40 MLOAD DUP1 SWAP2 SUB SWAP1 RETURN JUMPDEST PUSH2 0x2C7 PUSH1 0x4 DUP1 CALLDATASIZE SUB DUP2 ADD SWAP1 PUSH2 0x2C2 SWAP2 SWAP1 PUSH2 0xFEB JUMP JUMPDEST PUSH2 0x65D JUMP JUMPDEST PUSH1 0x40 MLOAD PUSH2 0x2D4 SWAP2 SWAP1 PUSH2 0x14D0 JUMP JUMPDEST PUSH1 0x40 MLOAD DUP1 SWAP2 SUB SWAP1 RETURN JUMPDEST PUSH2 0x2F7 PUSH1 0x4 DUP1 CALLDATASIZE SUB DUP2 ADD SWAP1 PUSH2 0x2F2 SWAP2 SWAP1 PUSH2 0xF60 JUMP JUMPDEST PUSH2 0x680 JUMP JUMPDEST PUSH1 0x40 MLOAD PUSH2 0x304 SWAP2 SWAP1 PUSH2 0x166D JUMP JUMPDEST PUSH1 0x40 MLOAD DUP1 SWAP2 SUB SWAP1 RETURN JUMPDEST PUSH1 0x60 PUSH1 0x3 DUP1 SLOAD PUSH2 0x31C SWAP1 PUSH2 0x179D JUMP JUMPDEST DUP1 PUSH1 0x1F ADD PUSH1 0x20 DUP1 SWAP2 DIV MUL PUSH1 0x20 ADD PUSH1 0x40 MLOAD SWAP1 DUP2 ADD PUSH1 0x40 MSTORE DUP1 SWAP3 SWAP2 SWAP1 DUP2 DUP2 MSTORE PUSH1 0x20 ADD DUP3 DUP1 SLOAD PUSH2 0x348 SWAP1 PUSH2 0x179D JUMP JUMPDEST DUP1 ISZERO PUSH2 0x395 JUMPI DUP1 PUSH1 0x1F LT PUSH2 0x36A JUMPI PUSH2 0x100 DUP1 DUP4 SLOAD DIV MUL DUP4 MSTORE SWAP2 PUSH1 0x20 ADD SWAP2 PUSH2 0x395 JUMP JUMPDEST DUP3 ADD SWAP2 SWAP1 PUSH1 0x0 MSTORE PUSH1 0x20 PUSH1 0x0 KECCAK256 SWAP1 JUMPDEST DUP2 SLOAD DUP2 MSTORE SWAP1 PUSH1 0x1 ADD SWAP1 PUSH1 0x20 ADD DUP1 DUP4 GT PUSH2 0x378 JUMPI DUP3 SWAP1 SUB PUSH1 0x1F AND DUP3 ADD SWAP2 JUMPDEST POP POP POP POP POP SWAP1 POP SWAP1 JUMP JUMPDEST PUSH1 0x0 DUP1 PUSH2 0x3AA PUSH2 0x707 JUMP JUMPDEST SWAP1 POP PUSH2 0x3B7 DUP2 DUP6 DUP6 PUSH2 0x70F JUMP JUMPDEST PUSH1 0x1 SWAP2 POP POP SWAP3 SWAP2 POP POP JUMP JUMPDEST PUSH1 0x0 PUSH1 0x2 SLOAD SWAP1 POP SWAP1 JUMP JUMPDEST PUSH1 0x0 DUP1 PUSH2 0x3D7 PUSH2 0x707 JUMP JUMPDEST SWAP1 POP PUSH2 0x3E4 DUP6 DUP3 DUP6 PUSH2 0x8DA JUMP JUMPDEST PUSH2 0x3EF DUP6 DUP6 DUP6 PUSH2 0x966 JUMP JUMPDEST PUSH1 0x1 SWAP2 POP POP SWAP4 SWAP3 POP POP POP JUMP JUMPDEST PUSH1 0x0 PUSH1 0x12 SWAP1 POP SWAP1 JUMP JUMPDEST PUSH1 0x0 DUP1 PUSH2 0x40F PUSH2 0x707 JUMP JUMPDEST SWAP1 POP PUSH2 0x430 DUP2 DUP6 DUP6 PUSH2 0x421 DUP6 DUP10 PUSH2 0x680 JUMP JUMPDEST PUSH2 0x42B SWAP2 SWAP1 PUSH2 0x16BF JUMP JUMPDEST PUSH2 0x70F JUMP JUMPDEST PUSH1 0x1 SWAP2 POP POP SWAP3 SWAP2 POP POP JUMP JUMPDEST PUSH1 0x5 PUSH1 0x0 SWAP1 SLOAD SWAP1 PUSH2 0x100 EXP SWAP1 DIV PUSH20 0xFFFFFFFFFFFFFFFFFFFFFFFFFFFFFFFFFFFFFFFF AND PUSH20 0xFFFFFFFFFFFFFFFFFFFFFFFFFFFFFFFFFFFFFFFF AND CALLER PUSH20 0xFFFFFFFFFFFFFFFFFFFFFFFFFFFFFFFFFFFFFFFF AND EQ PUSH2 0x4CB JUMPI PUSH1 0x40 MLOAD PUSH32 0x8C379A000000000000000000000000000000000000000000000000000000000 DUP2 MSTORE PUSH1 0x4 ADD PUSH2 0x4C2 SWAP1 PUSH2 0x154D JUMP JUMPDEST PUSH1 0x40 MLOAD DUP1 SWAP2 SUB SWAP1 REVERT JUMPDEST PUSH2 0x4D5 DUP3 DUP3 PUSH2 0xBDE JUMP JUMPDEST POP POP JUMP JUMPDEST PUSH2 0x4E3 CALLER DUP3 PUSH2 0xD35 JUMP JUMPDEST POP JUMP JUMPDEST PUSH1 0x0 DUP1 PUSH1 0x0 DUP4 PUSH20 0xFFFFFFFFFFFFFFFFFFFFFFFFFFFFFFFFFFFFFFFF AND PUSH20 0xFFFFFFFFFFFFFFFFFFFFFFFFFFFFFFFFFFFFFFFF AND DUP2 MSTORE PUSH1 0x20 ADD SWAP1 DUP2 MSTORE PUSH1 0x20 ADD PUSH1 0x0 KECCAK256 SLOAD SWAP1 POP SWAP2 SWAP1 POP JUMP JUMPDEST PUSH1 0x5 PUSH1 0x0 SWAP1 SLOAD SWAP1 PUSH2 0x100 EXP SWAP1 DIV PUSH20 0xFFFFFFFFFFFFFFFFFFFFFFFFFFFFFFFFFFFFFFFF AND DUP2 JUMP JUMPDEST PUSH1 0x60 PUSH1 0x4 DUP1 SLOAD PUSH2 0x563 SWAP1 PUSH2 0x179D JUMP JUMPDEST DUP1 PUSH1 0x1F ADD PUSH1 0x20 DUP1 SWAP2 DIV MUL PUSH1 0x20 ADD PUSH1 0x40 MLOAD SWAP1 DUP2 ADD PUSH1 0x40 MSTORE DUP1 SWAP3 SWAP2 SWAP1 DUP2 DUP2 MSTORE PUSH1 0x20 ADD DUP3 DUP1 SLOAD PUSH2 0x58F SWAP1 PUSH2 0x179D JUMP JUMPDEST DUP1 ISZERO PUSH2 0x5DC JUMPI DUP1 PUSH1 0x1F LT PUSH2 0x5B1 JUMPI PUSH2 0x100 DUP1 DUP4 SLOAD DIV MUL DUP4 MSTORE SWAP2 PUSH1 0x20 ADD SWAP2 PUSH2 0x5DC JUMP JUMPDEST DUP3 ADD SWAP2 SWAP1 PUSH1 0x0 MSTORE PUSH1 0x20 PUSH1 0x0 KECCAK256 SWAP1 JUMPDEST DUP2 SLOAD DUP2 MSTORE SWAP1 PUSH1 0x1 ADD SWAP1 PUSH1 0x20 ADD DUP1 DUP4 GT PUSH2 0x5BF JUMPI DUP3 SWAP1 SUB PUSH1 0x1F AND DUP3 ADD SWAP2 JUMPDEST POP POP POP POP POP SWAP1 POP SWAP1 JUMP JUMPDEST PUSH1 0x0 DUP1 PUSH2 0x5F1 PUSH2 0x707 JUMP JUMPDEST SWAP1 POP PUSH1 0x0 PUSH2 0x5FF DUP3 DUP7 PUSH2 0x680 JUMP JUMPDEST SWAP1 POP DUP4 DUP2 LT ISZERO PUSH2 0x644 JUMPI PUSH1 0x40 MLOAD PUSH32 0x8C379A000000000000000000000000000000000000000000000000000000000 DUP2 MSTORE PUSH1 0x4 ADD PUSH2 0x63B SWAP1 PUSH2 0x162D JUMP JUMPDEST PUSH1 0x40 MLOAD DUP1 SWAP2 SUB SWAP1 REVERT JUMPDEST PUSH2 0x651 DUP3 DUP7 DUP7 DUP5 SUB PUSH2 0x70F JUMP JUMPDEST PUSH1 0x1 SWAP3 POP POP POP SWAP3 SWAP2 POP POP JUMP JUMPDEST PUSH1 0x0 DUP1 PUSH2 0x668 PUSH2 0x707 JUMP JUMPDEST SWAP1 POP PUSH2 0x675 DUP2 DUP6 DUP6 PUSH2 0x966 JUMP JUMPDEST PUSH1 0x1 SWAP2 POP POP SWAP3 SWAP2 POP POP JUMP JUMPDEST PUSH1 0x0 PUSH1 0x1 PUSH1 0x0 DUP5 PUSH20 0xFFFFFFFFFFFFFFFFFFFFFFFFFFFFFFFFFFFFFFFF AND PUSH20 0xFFFFFFFFFFFFFFFFFFFFFFFFFFFFFFFFFFFFFFFF AND DUP2 MSTORE PUSH1 0x20 ADD SWAP1 DUP2 MSTORE PUSH1 0x20 ADD PUSH1 0x0 KECCAK256 PUSH1 0x0 DUP4 PUSH20 0xFFFFFFFFFFFFFFFFFFFFFFFFFFFFFFFFFFFFFFFF AND PUSH20 0xFFFFFFFFFFFFFFFFFFFFFFFFFFFFFFFFFFFFFFFF AND DUP2 MSTORE PUSH1 0x20 ADD SWAP1 DUP2 MSTORE PUSH1 0x20 ADD PUSH1 0x0 KECCAK256 SLOAD SWAP1 POP SWAP3 SWAP2 POP POP JUMP JUMPDEST PUSH1 0x0 CALLER SWAP1 POP SWAP1 JUMP JUMPDEST PUSH1 0x0 PUSH20 0xFFFFFFFFFFFFFFFFFFFFFFFFFFFFFFFFFFFFFFFF AND DUP4 PUSH20 0xFFFFFFFFFFFFFFFFFFFFFFFFFFFFFFFFFFFFFFFF AND EQ ISZERO PUSH2 0x77F JUMPI PUSH1 0x40 MLOAD PUSH32 0x8C379A000000000000000000000000000000000000000000000000000000000 DUP2 MSTORE PUSH1 0x4 ADD PUSH2 0x776 SWAP1 PUSH2 0x160D JUMP JUMPDEST PUSH1 0x40 MLOAD DUP1 SWAP2 SUB SWAP1 REVERT JUMPDEST PUSH1 0x0 PUSH20 0xFFFFFFFFFFFFFFFFFFFFFFFFFFFFFFFFFFFFFFFF AND DUP3 PUSH20 0xFFFFFFFFFFFFFFFFFFFFFFFFFFFFFFFFFFFFFFFF AND EQ ISZERO PUSH2 0x7EF JUMPI PUSH1 0x40 MLOAD PUSH32 0x8C379A000000000000000000000000000000000000000000000000000000000 DUP2 MSTORE PUSH1 0x4 ADD PUSH2 0x7E6 SWAP1 PUSH2 0x156D JUMP JUMPDEST PUSH1 0x40 MLOAD DUP1 SWAP2 SUB SWAP1 REVERT JUMPDEST DUP1 PUSH1 0x1 PUSH1 0x0 DUP6 PUSH20 0xFFFFFFFFFFFFFFFFFFFFFFFFFFFFFFFFFFFFFFFF AND PUSH20 0xFFFFFFFFFFFFFFFFFFFFFFFFFFFFFFFFFFFFFFFF AND DUP2 MSTORE PUSH1 0x20 ADD SWAP1 DUP2 MSTORE PUSH1 0x20 ADD PUSH1 0x0 KECCAK256 PUSH1 0x0 DUP5 PUSH20 0xFFFFFFFFFFFFFFFFFFFFFFFFFFFFFFFFFFFFFFFF AND PUSH20 0xFFFFFFFFFFFFFFFFFFFFFFFFFFFFFFFFFFFFFFFF AND DUP2 MSTORE PUSH1 0x20 ADD SWAP1 DUP2 MSTORE PUSH1 0x20 ADD PUSH1 0x0 KECCAK256 DUP2 SWAP1 SSTORE POP DUP2 PUSH20 0xFFFFFFFFFFFFFFFFFFFFFFFFFFFFFFFFFFFFFFFF AND DUP4 PUSH20 0xFFFFFFFFFFFFFFFFFFFFFFFFFFFFFFFFFFFFFFFF AND PUSH32 0x8C5BE1E5EBEC7D5BD14F71427D1E84F3DD0314C0F7B2291E5B200AC8C7C3B925 DUP4 PUSH1 0x40 MLOAD PUSH2 0x8CD SWAP2 SWAP1 PUSH2 0x166D JUMP JUMPDEST PUSH1 0x40 MLOAD DUP1 SWAP2 SUB SWAP1 LOG3 POP POP POP JUMP JUMPDEST PUSH1 0x0 PUSH2 0x8E6 DUP5 DUP5 PUSH2 0x680 JUMP JUMPDEST SWAP1 POP PUSH32 0xFFFFFFFFFFFFFFFFFFFFFFFFFFFFFFFFFFFFFFFFFFFFFFFFFFFFFFFFFFFFFFFF DUP2 EQ PUSH2 0x960 JUMPI DUP2 DUP2 LT ISZERO PUSH2 0x952 JUMPI PUSH1 0x40 MLOAD PUSH32 0x8C379A000000000000000000000000000000000000000000000000000000000 DUP2 MSTORE PUSH1 0x4 ADD PUSH2 0x949 SWAP1 PUSH2 0x158D JUMP JUMPDEST PUSH1 0x40 MLOAD DUP1 SWAP2 SUB SWAP1 REVERT JUMPDEST PUSH2 0x95F DUP5 DUP5 DUP5 DUP5 SUB PUSH2 0x70F JUMP JUMPDEST JUMPDEST POP POP POP POP JUMP JUMPDEST PUSH1 0x0 PUSH20 0xFFFFFFFFFFFFFFFFFFFFFFFFFFFFFFFFFFFFFFFF AND DUP4 PUSH20 0xFFFFFFFFFFFFFFFFFFFFFFFFFFFFFFFFFFFFFFFF AND EQ ISZERO PUSH2 0x9D6 JUMPI PUSH1 0x40 MLOAD PUSH32 0x8C379A000000000000000000000000000000000000000000000000000000000 DUP2 MSTORE PUSH1 0x4 ADD PUSH2 0x9CD SWAP1 PUSH2 0x15ED JUMP JUMPDEST PUSH1 0x40 MLOAD DUP1 SWAP2 SUB SWAP1 REVERT JUMPDEST PUSH1 0x0 PUSH20 0xFFFFFFFFFFFFFFFFFFFFFFFFFFFFFFFFFFFFFFFF AND DUP3 PUSH20 0xFFFFFFFFFFFFFFFFFFFFFFFFFFFFFFFFFFFFFFFF AND EQ ISZERO PUSH2 0xA46 JUMPI PUSH1 0x40 MLOAD PUSH32 0x8C379A000000000000000000000000000000000000000000000000000000000 DUP2 MSTORE PUSH1 0x4 ADD PUSH2 0xA3D SWAP1 PUSH2 0x150D JUMP JUMPDEST PUSH1 0x40 MLOAD DUP1 SWAP2 SUB SWAP1 REVERT JUMPDEST PUSH2 0xA51 DUP4 DUP4 DUP4 PUSH2 0xF03 JUMP JUMPDEST PUSH1 0x0 DUP1 PUSH1 0x0 DUP6 PUSH20 0xFFFFFFFFFFFFFFFFFFFFFFFFFFFFFFFFFFFFFFFF AND PUSH20 0xFFFFFFFFFFFFFFFFFFFFFFFFFFFFFFFFFFFFFFFF AND DUP2 MSTORE PUSH1 0x20 ADD SWAP1 DUP2 MSTORE PUSH1 0x20 ADD PUSH1 0x0 KECCAK256 SLOAD SWAP1 POP DUP2 DUP2 LT ISZERO PUSH2 0xAD7 JUMPI PUSH1 0x40 MLOAD PUSH32 0x8C379A000000000000000000000000000000000000000000000000000000000 DUP2 MSTORE PUSH1 0x4 ADD PUSH2 0xACE SWAP1 PUSH2 0x15AD JUMP JUMPDEST PUSH1 0x40 MLOAD DUP1 SWAP2 SUB SWAP1 REVERT JUMPDEST DUP2 DUP2 SUB PUSH1 0x0 DUP1 DUP7 PUSH20 0xFFFFFFFFFFFFFFFFFFFFFFFFFFFFFFFFFFFFFFFF AND PUSH20 0xFFFFFFFFFFFFFFFFFFFFFFFFFFFFFFFFFFFFFFFF AND DUP2 MSTORE PUSH1 0x20 ADD SWAP1 DUP2 MSTORE PUSH1 0x20 ADD PUSH1 0x0 KECCAK256 DUP2 SWAP1 SSTORE POP DUP2 PUSH1 0x0 DUP1 DUP6 PUSH20 0xFFFFFFFFFFFFFFFFFFFFFFFFFFFFFFFFFFFFFFFF AND PUSH20 0xFFFFFFFFFFFFFFFFFFFFFFFFFFFFFFFFFFFFFFFF AND DUP2 MSTORE PUSH1 0x20 ADD SWAP1 DUP2 MSTORE PUSH1 0x20 ADD PUSH1 0x0 KECCAK256 PUSH1 0x0 DUP3 DUP3 SLOAD ADD SWAP3 POP POP DUP2 SWAP1 SSTORE POP DUP3 PUSH20 0xFFFFFFFFFFFFFFFFFFFFFFFFFFFFFFFFFFFFFFFF AND DUP5 PUSH20 0xFFFFFFFFFFFFFFFFFFFFFFFFFFFFFFFFFFFFFFFF AND PUSH32 0xDDF252AD1BE2C89B69C2B068FC378DAA952BA7F163C4A11628F55A4DF523B3EF DUP5 PUSH1 0x40 MLOAD PUSH2 0xBC5 SWAP2 SWAP1 PUSH2 0x166D JUMP JUMPDEST PUSH1 0x40 MLOAD DUP1 SWAP2 SUB SWAP1 LOG3 PUSH2 0xBD8 DUP5 DUP5 DUP5 PUSH2 0xF08 JUMP JUMPDEST POP POP POP POP JUMP JUMPDEST PUSH1 0x0 PUSH20 0xFFFFFFFFFFFFFFFFFFFFFFFFFFFFFFFFFFFFFFFF AND DUP3 PUSH20 0xFFFFFFFFFFFFFFFFFFFFFFFFFFFFFFFFFFFFFFFF AND EQ ISZERO PUSH2 0xC4E JUMPI PUSH1 0x40 MLOAD PUSH32 0x8C379A000000000000000000000000000000000000000000000000000000000 DUP2 MSTORE PUSH1 0x4 ADD PUSH2 0xC45 SWAP1 PUSH2 0x164D JUMP JUMPDEST PUSH1 0x40 MLOAD DUP1 SWAP2 SUB SWAP1 REVERT JUMPDEST PUSH2 0xC5A PUSH1 0x0 DUP4 DUP4 PUSH2 0xF03 JUMP JUMPDEST DUP1 PUSH1 0x2 PUSH1 0x0 DUP3 DUP3 SLOAD PUSH2 0xC6C SWAP2 SWAP1 PUSH2 0x16BF JUMP JUMPDEST SWAP3 POP POP DUP2 SWAP1 SSTORE POP DUP1 PUSH1 0x0 DUP1 DUP5 PUSH20 0xFFFFFFFFFFFFFFFFFFFFFFFFFFFFFFFFFFFFFFFF AND PUSH20 0xFFFFFFFFFFFFFFFFFFFFFFFFFFFFFFFFFFFFFFFF AND DUP2 MSTORE PUSH1 0x20 ADD SWAP1 DUP2 MSTORE PUSH1 0x20 ADD PUSH1 0x0 KECCAK256 PUSH1 0x0 DUP3 DUP3 SLOAD ADD SWAP3 POP POP DUP2 SWAP1 SSTORE POP DUP2 PUSH20 0xFFFFFFFFFFFFFFFFFFFFFFFFFFFFFFFFFFFFFFFF AND PUSH1 0x0 PUSH20 0xFFFFFFFFFFFFFFFFFFFFFFFFFFFFFFFFFFFFFFFF AND PUSH32 0xDDF252AD1BE2C89B69C2B068FC378DAA952BA7F163C4A11628F55A4DF523B3EF DUP4 PUSH1 0x40 MLOAD PUSH2 0xD1D SWAP2 SWAP1 PUSH2 0x166D JUMP JUMPDEST PUSH1 0x40 MLOAD DUP1 SWAP2 SUB SWAP1 LOG3 PUSH2 0xD31 PUSH1 0x0 DUP4 DUP4 PUSH2 0xF08 JUMP JUMPDEST POP POP JUMP JUMPDEST PUSH1 0x0 PUSH20 0xFFFFFFFFFFFFFFFFFFFFFFFFFFFFFFFFFFFFFFFF AND DUP3 PUSH20 0xFFFFFFFFFFFFFFFFFFFFFFFFFFFFFFFFFFFFFFFF AND EQ ISZERO PUSH2 0xDA5 JUMPI PUSH1 0x40 MLOAD PUSH32 0x8C379A000000000000000000000000000000000000000000000000000000000 DUP2 MSTORE PUSH1 0x4 ADD PUSH2 0xD9C SWAP1 PUSH2 0x15CD JUMP JUMPDEST PUSH1 0x40 MLOAD DUP1 SWAP2 SUB SWAP1 REVERT JUMPDEST PUSH2 0xDB1 DUP3 PUSH1 0x0 DUP4 PUSH2 0xF03 JUMP JUMPDEST PUSH1 0x0 DUP1 PUSH1 0x0 DUP5 PUSH20 0xFFFFFFFFFFFFFFFFFFFFFFFFFFFFFFFFFFFFFFFF AND PUSH20 0xFFFFFFFFFFFFFFFFFFFFFFFFFFFFFFFFFFFFFFFF AND DUP2 MSTORE PUSH1 0x20 ADD SWAP1 DUP2 MSTORE PUSH1 0x20 ADD PUSH1 0x0 KECCAK256 SLOAD SWAP1 POP DUP2 DUP2 LT ISZERO PUSH2 0xE37 JUMPI PUSH1 0x40 MLOAD PUSH32 0x8C379A000000000000000000000000000000000000000000000000000000000 DUP2 MSTORE PUSH1 0x4 ADD PUSH2 0xE2E SWAP1 PUSH2 0x152D JUMP JUMPDEST PUSH1 0x40 MLOAD DUP1 SWAP2 SUB SWAP1 REVERT JUMPDEST DUP2 DUP2 SUB PUSH1 0x0 DUP1 DUP6 PUSH20 0xFFFFFFFFFFFFFFFFFFFFFFFFFFFFFFFFFFFFFFFF AND PUSH20 0xFFFFFFFFFFFFFFFFFFFFFFFFFFFFFFFFFFFFFFFF AND DUP2 MSTORE PUSH1 0x20 ADD SWAP1 DUP2 MSTORE PUSH1 0x20 ADD PUSH1 0x0 KECCAK256 DUP2 SWAP1 SSTORE POP DUP2 PUSH1 0x2 PUSH1 0x0 DUP3 DUP3 SLOAD SUB SWAP3 POP POP DUP2 SWAP1 SSTORE POP PUSH1 0x0 PUSH20 0xFFFFFFFFFFFFFFFFFFFFFFFFFFFFFFFFFFFFFFFF AND DUP4 PUSH20 0xFFFFFFFFFFFFFFFFFFFFFFFFFFFFFFFFFFFFFFFF AND PUSH32 0xDDF252AD1BE2C89B69C2B068FC378DAA952BA7F163C4A11628F55A4DF523B3EF DUP5 PUSH1 0x40 MLOAD PUSH2 0xEEA SWAP2 SWAP1 PUSH2 0x166D JUMP JUMPDEST PUSH1 0x40 MLOAD DUP1 SWAP2 SUB SWAP1 LOG3 PUSH2 0xEFE DUP4 PUSH1 0x0 DUP5 PUSH2 0xF08 JUMP JUMPDEST POP POP POP JUMP JUMPDEST POP POP POP JUMP JUMPDEST POP POP POP JUMP JUMPDEST PUSH1 0x0 DUP2 CALLDATALOAD SWAP1 POP PUSH2 0xF1C DUP2 PUSH2 0x183E JUMP JUMPDEST SWAP3 SWAP2 POP POP JUMP JUMPDEST PUSH1 0x0 DUP2 CALLDATALOAD SWAP1 POP PUSH2 0xF31 DUP2 PUSH2 0x1855 JUMP JUMPDEST SWAP3 SWAP2 POP POP JUMP JUMPDEST PUSH1 0x0 PUSH1 0x20 DUP3 DUP5 SUB SLT ISZERO PUSH2 0xF49 JUMPI PUSH1 0x0 DUP1 REVERT JUMPDEST PUSH1 0x0 PUSH2 0xF57 DUP5 DUP3 DUP6 ADD PUSH2 0xF0D JUMP JUMPDEST SWAP2 POP POP SWAP3 SWAP2 POP POP JUMP JUMPDEST PUSH1 0x0 DUP1 PUSH1 0x40 DUP4 DUP6 SUB SLT ISZERO PUSH2 0xF73 JUMPI PUSH1 0x0 DUP1 REVERT JUMPDEST PUSH1 0x0 PUSH2 0xF81 DUP6 DUP3 DUP7 ADD PUSH2 0xF0D JUMP JUMPDEST SWAP3 POP POP PUSH1 0x20 PUSH2 0xF92 DUP6 DUP3 DUP7 ADD PUSH2 0xF0D JUMP JUMPDEST SWAP2 POP POP SWAP3 POP SWAP3 SWAP1 POP JUMP JUMPDEST PUSH1 0x0 DUP1 PUSH1 0x0 PUSH1 0x60 DUP5 DUP7 SUB SLT ISZERO PUSH2 0xFB1 JUMPI PUSH1 0x0 DUP1 REVERT JUMPDEST PUSH1 0x0 PUSH2 0xFBF DUP7 DUP3 DUP8 ADD PUSH2 0xF0D JUMP JUMPDEST SWAP4 POP POP PUSH1 0x20 PUSH2 0xFD0 DUP7 DUP3 DUP8 ADD PUSH2 0xF0D JUMP JUMPDEST SWAP3 POP POP PUSH1 0x40 PUSH2 0xFE1 DUP7 DUP3 DUP8 ADD PUSH2 0xF22 JUMP JUMPDEST SWAP2 POP POP SWAP3 POP SWAP3 POP SWAP3 JUMP JUMPDEST PUSH1 0x0 DUP1 PUSH1 0x40 DUP4 DUP6 SUB SLT ISZERO PUSH2 0xFFE JUMPI PUSH1 0x0 DUP1 REVERT JUMPDEST PUSH1 0x0 PUSH2 0x100C DUP6 DUP3 DUP7 ADD PUSH2 0xF0D JUMP JUMPDEST SWAP3 POP POP PUSH1 0x20 PUSH2 0x101D DUP6 DUP3 DUP7 ADD PUSH2 0xF22 JUMP JUMPDEST SWAP2 POP POP SWAP3 POP SWAP3 SWAP1 POP JUMP JUMPDEST PUSH1 0x0 PUSH1 0x20 DUP3 DUP5 SUB SLT ISZERO PUSH2 0x1039 JUMPI PUSH1 0x0 DUP1 REVERT JUMPDEST PUSH1 0x0 PUSH2 0x1047 DUP5 DUP3 DUP6 ADD PUSH2 0xF22 JUMP JUMPDEST SWAP2 POP POP SWAP3 SWAP2 POP POP JUMP JUMPDEST PUSH2 0x1059 DUP2 PUSH2 0x1715 JUMP JUMPDEST DUP3 MSTORE POP POP JUMP JUMPDEST PUSH2 0x1068 DUP2 PUSH2 0x1727 JUMP JUMPDEST DUP3 MSTORE POP POP JUMP JUMPDEST PUSH1 0x0 PUSH2 0x1079 DUP3 PUSH2 0x16A3 JUMP JUMPDEST PUSH2 0x1083 DUP2 DUP6 PUSH2 0x16AE JUMP JUMPDEST SWAP4 POP PUSH2 0x1093 DUP2 DUP6 PUSH1 0x20 DUP7 ADD PUSH2 0x176A JUMP JUMPDEST PUSH2 0x109C DUP2 PUSH2 0x182D JUMP JUMPDEST DUP5 ADD SWAP2 POP POP SWAP3 SWAP2 POP POP JUMP JUMPDEST PUSH1 0x0 PUSH2 0x10B4 PUSH1 0x23 DUP4 PUSH2 0x16AE JUMP JUMPDEST SWAP2 POP PUSH32 0x45524332303A207472616E7366657220746F20746865207A65726F2061646472 PUSH1 0x0 DUP4 ADD MSTORE PUSH32 0x6573730000000000000000000000000000000000000000000000000000000000 PUSH1 0x20 DUP4 ADD MSTORE PUSH1 0x40 DUP3 ADD SWAP1 POP SWAP2 SWAP1 POP JUMP JUMPDEST PUSH1 0x0 PUSH2 0x111A PUSH1 0x22 DUP4 PUSH2 0x16AE JUMP JUMPDEST SWAP2 POP PUSH32 0x45524332303A206275726E20616D6F756E7420657863656564732062616C616E PUSH1 0x0 DUP4 ADD MSTORE PUSH32 0x6365000000000000000000000000000000000000000000000000000000000000 PUSH1 0x20 DUP4 ADD MSTORE PUSH1 0x40 DUP3 ADD SWAP1 POP SWAP2 SWAP1 POP JUMP JUMPDEST PUSH1 0x0 PUSH2 0x1180 PUSH1 0x17 DUP4 PUSH2 0x16AE JUMP JUMPDEST SWAP2 POP PUSH32 0x43616C6C6572206973206E6F7420746865206F776E6572000000000000000000 PUSH1 0x0 DUP4 ADD MSTORE PUSH1 0x20 DUP3 ADD SWAP1 POP SWAP2 SWAP1 POP JUMP JUMPDEST PUSH1 0x0 PUSH2 0x11C0 PUSH1 0x22 DUP4 PUSH2 0x16AE JUMP JUMPDEST SWAP2 POP PUSH32 0x45524332303A20617070726F766520746F20746865207A65726F206164647265 PUSH1 0x0 DUP4 ADD MSTORE PUSH32 0x7373000000000000000000000000000000000000000000000000000000000000 PUSH1 0x20 DUP4 ADD MSTORE PUSH1 0x40 DUP3 ADD SWAP1 POP SWAP2 SWAP1 POP JUMP JUMPDEST PUSH1 0x0 PUSH2 0x1226 PUSH1 0x1D DUP4 PUSH2 0x16AE JUMP JUMPDEST SWAP2 POP PUSH32 0x45524332303A20696E73756666696369656E7420616C6C6F77616E6365000000 PUSH1 0x0 DUP4 ADD MSTORE PUSH1 0x20 DUP3 ADD SWAP1 POP SWAP2 SWAP1 POP JUMP JUMPDEST PUSH1 0x0 PUSH2 0x1266 PUSH1 0x26 DUP4 PUSH2 0x16AE JUMP JUMPDEST SWAP2 POP PUSH32 0x45524332303A207472616E7366657220616D6F756E7420657863656564732062 PUSH1 0x0 DUP4 ADD MSTORE PUSH32 0x616C616E63650000000000000000000000000000000000000000000000000000 PUSH1 0x20 DUP4 ADD MSTORE PUSH1 0x40 DUP3 ADD SWAP1 POP SWAP2 SWAP1 POP JUMP JUMPDEST PUSH1 0x0 PUSH2 0x12CC PUSH1 0x21 DUP4 PUSH2 0x16AE JUMP JUMPDEST SWAP2 POP PUSH32 0x45524332303A206275726E2066726F6D20746865207A65726F20616464726573 PUSH1 0x0 DUP4 ADD MSTORE PUSH32 0x7300000000000000000000000000000000000000000000000000000000000000 PUSH1 0x20 DUP4 ADD MSTORE PUSH1 0x40 DUP3 ADD SWAP1 POP SWAP2 SWAP1 POP JUMP JUMPDEST PUSH1 0x0 PUSH2 0x1332 PUSH1 0x25 DUP4 PUSH2 0x16AE JUMP JUMPDEST SWAP2 POP PUSH32 0x45524332303A207472616E736665722066726F6D20746865207A65726F206164 PUSH1 0x0 DUP4 ADD MSTORE PUSH32 0x6472657373000000000000000000000000000000000000000000000000000000 PUSH1 0x20 DUP4 ADD MSTORE PUSH1 0x40 DUP3 ADD SWAP1 POP SWAP2 SWAP1 POP JUMP JUMPDEST PUSH1 0x0 PUSH2 0x1398 PUSH1 0x24 DUP4 PUSH2 0x16AE JUMP JUMPDEST SWAP2 POP PUSH32 0x45524332303A20617070726F76652066726F6D20746865207A65726F20616464 PUSH1 0x0 DUP4 ADD MSTORE PUSH32 0x7265737300000000000000000000000000000000000000000000000000000000 PUSH1 0x20 DUP4 ADD MSTORE PUSH1 0x40 DUP3 ADD SWAP1 POP SWAP2 SWAP1 POP JUMP JUMPDEST PUSH1 0x0 PUSH2 0x13FE PUSH1 0x25 DUP4 PUSH2 0x16AE JUMP JUMPDEST SWAP2 POP PUSH32 0x45524332303A2064656372656173656420616C6C6F77616E63652062656C6F77 PUSH1 0x0 DUP4 ADD MSTORE PUSH32 0x207A65726F000000000000000000000000000000000000000000000000000000 PUSH1 0x20 DUP4 ADD MSTORE PUSH1 0x40 DUP3 ADD SWAP1 POP SWAP2 SWAP1 POP JUMP JUMPDEST PUSH1 0x0 PUSH2 0x1464 PUSH1 0x1F DUP4 PUSH2 0x16AE JUMP JUMPDEST SWAP2 POP PUSH32 0x45524332303A206D696E7420746F20746865207A65726F206164647265737300 PUSH1 0x0 DUP4 ADD MSTORE PUSH1 0x20 DUP3 ADD SWAP1 POP SWAP2 SWAP1 POP JUMP JUMPDEST PUSH2 0x14A0 DUP2 PUSH2 0x1753 JUMP JUMPDEST DUP3 MSTORE POP POP JUMP JUMPDEST PUSH2 0x14AF DUP2 PUSH2 0x175D JUMP JUMPDEST DUP3 MSTORE POP POP JUMP JUMPDEST PUSH1 0x0 PUSH1 0x20 DUP3 ADD SWAP1 POP PUSH2 0x14CA PUSH1 0x0 DUP4 ADD DUP5 PUSH2 0x1050 JUMP JUMPDEST SWAP3 SWAP2 POP POP JUMP JUMPDEST PUSH1 0x0 PUSH1 0x20 DUP3 ADD SWAP1 POP PUSH2 0x14E5 PUSH1 0x0 DUP4 ADD DUP5 PUSH2 0x105F JUMP JUMPDEST SWAP3 SWAP2 POP POP JUMP JUMPDEST PUSH1 0x0 PUSH1 0x20 DUP3 ADD SWAP1 POP DUP2 DUP2 SUB PUSH1 0x0 DUP4 ADD MSTORE PUSH2 0x1505 DUP2 DUP5 PUSH2 0x106E JUMP JUMPDEST SWAP1 POP SWAP3 SWAP2 POP POP JUMP JUMPDEST PUSH1 0x0 PUSH1 0x20 DUP3 ADD SWAP1 POP DUP2 DUP2 SUB PUSH1 0x0 DUP4 ADD MSTORE PUSH2 0x1526 DUP2 PUSH2 0x10A7 JUMP JUMPDEST SWAP1 POP SWAP2 SWAP1 POP JUMP JUMPDEST PUSH1 0x0 PUSH1 0x20 DUP3 ADD SWAP1 POP DUP2 DUP2 SUB PUSH1 0x0 DUP4 ADD MSTORE PUSH2 0x1546 DUP2 PUSH2 0x110D JUMP JUMPDEST SWAP1 POP SWAP2 SWAP1 POP JUMP JUMPDEST PUSH1 0x0 PUSH1 0x20 DUP3 ADD SWAP1 POP DUP2 DUP2 SUB PUSH1 0x0 DUP4 ADD MSTORE PUSH2 0x1566 DUP2 PUSH2 0x1173 JUMP JUMPDEST SWAP1 POP SWAP2 SWAP1 POP JUMP JUMPDEST PUSH1 0x0 PUSH1 0x20 DUP3 ADD SWAP1 POP DUP2 DUP2 SUB PUSH1 0x0 DUP4 ADD MSTORE PUSH2 0x1586 DUP2 PUSH2 0x11B3 JUMP JUMPDEST SWAP1 POP SWAP2 SWAP1 POP JUMP JUMPDEST PUSH1 0x0 PUSH1 0x20 DUP3 ADD SWAP1 POP DUP2 DUP2 SUB PUSH1 0x0 DUP4 ADD MSTORE PUSH2 0x15A6 DUP2 PUSH2 0x1219 JUMP JUMPDEST SWAP1 POP SWAP2 SWAP1 POP JUMP JUMPDEST PUSH1 0x0 PUSH1 0x20 DUP3 ADD SWAP1 POP DUP2 DUP2 SUB PUSH1 0x0 DUP4 ADD MSTORE PUSH2 0x15C6 DUP2 PUSH2 0x1259 JUMP JUMPDEST SWAP1 POP SWAP2 SWAP1 POP JUMP JUMPDEST PUSH1 0x0 PUSH1 0x20 DUP3 ADD SWAP1 POP DUP2 DUP2 SUB PUSH1 0x0 DUP4 ADD MSTORE PUSH2 0x15E6 DUP2 PUSH2 0x12BF JUMP JUMPDEST SWAP1 POP SWAP2 SWAP1 POP JUMP JUMPDEST PUSH1 0x0 PUSH1 0x20 DUP3 ADD SWAP1 POP DUP2 DUP2 SUB PUSH1 0x0 DUP4 ADD MSTORE PUSH2 0x1606 DUP2 PUSH2 0x1325 JUMP JUMPDEST SWAP1 POP SWAP2 SWAP1 POP JUMP JUMPDEST PUSH1 0x0 PUSH1 0x20 DUP3 ADD SWAP1 POP DUP2 DUP2 SUB PUSH1 0x0 DUP4 ADD MSTORE PUSH2 0x1626 DUP2 PUSH2 0x138B JUMP JUMPDEST SWAP1 POP SWAP2 SWAP1 POP JUMP JUMPDEST PUSH1 0x0 PUSH1 0x20 DUP3 ADD SWAP1 POP DUP2 DUP2 SUB PUSH1 0x0 DUP4 ADD MSTORE PUSH2 0x1646 DUP2 PUSH2 0x13F1 JUMP JUMPDEST SWAP1 POP SWAP2 SWAP1 POP JUMP JUMPDEST PUSH1 0x0 PUSH1 0x20 DUP3 ADD SWAP1 POP DUP2 DUP2 SUB PUSH1 0x0 DUP4 ADD MSTORE PUSH2 0x1666 DUP2 PUSH2 0x1457 JUMP JUMPDEST SWAP1 POP SWAP2 SWAP1 POP JUMP JUMPDEST PUSH1 0x0 PUSH1 0x20 DUP3 ADD SWAP1 POP PUSH2 0x1682 PUSH1 0x0 DUP4 ADD DUP5 PUSH2 0x1497 JUMP JUMPDEST SWAP3 SWAP2 POP POP JUMP JUMPDEST PUSH1 0x0 PUSH1 0x20 DUP3 ADD SWAP1 POP PUSH2 0x169D PUSH1 0x0 DUP4 ADD DUP5 PUSH2 0x14A6 JUMP JUMPDEST SWAP3 SWAP2 POP POP JUMP JUMPDEST PUSH1 0x0 DUP2 MLOAD SWAP1 POP SWAP2 SWAP1 POP JUMP JUMPDEST PUSH1 0x0 DUP3 DUP3 MSTORE PUSH1 0x20 DUP3 ADD SWAP1 POP SWAP3 SWAP2 POP POP JUMP JUMPDEST PUSH1 0x0 PUSH2 0x16CA DUP3 PUSH2 0x1753 JUMP JUMPDEST SWAP2 POP PUSH2 0x16D5 DUP4 PUSH2 0x1753 JUMP JUMPDEST SWAP3 POP DUP3 PUSH32 0xFFFFFFFFFFFFFFFFFFFFFFFFFFFFFFFFFFFFFFFFFFFFFFFFFFFFFFFFFFFFFFFF SUB DUP3 GT ISZERO PUSH2 0x170A JUMPI PUSH2 0x1709 PUSH2 0x17CF JUMP JUMPDEST JUMPDEST DUP3 DUP3 ADD SWAP1 POP SWAP3 SWAP2 POP POP JUMP JUMPDEST PUSH1 0x0 PUSH2 0x1720 DUP3 PUSH2 0x1733 JUMP JUMPDEST SWAP1 POP SWAP2 SWAP1 POP JUMP JUMPDEST PUSH1 0x0 DUP2 ISZERO ISZERO SWAP1 POP SWAP2 SWAP1 POP JUMP JUMPDEST PUSH1 0x0 PUSH20 0xFFFFFFFFFFFFFFFFFFFFFFFFFFFFFFFFFFFFFFFF DUP3 AND SWAP1 POP SWAP2 SWAP1 POP JUMP JUMPDEST PUSH1 0x0 DUP2 SWAP1 POP SWAP2 SWAP1 POP JUMP JUMPDEST PUSH1 0x0 PUSH1 0xFF DUP3 AND SWAP1 POP SWAP2 SWAP1 POP JUMP JUMPDEST PUSH1 0x0 JUMPDEST DUP4 DUP2 LT ISZERO PUSH2 0x1788 JUMPI DUP1 DUP3 ADD MLOAD DUP2 DUP5 ADD MSTORE PUSH1 0x20 DUP2 ADD SWAP1 POP PUSH2 0x176D JUMP JUMPDEST DUP4 DUP2 GT ISZERO PUSH2 0x1797 JUMPI PUSH1 0x0 DUP5 DUP5 ADD MSTORE JUMPDEST POP POP POP POP JUMP JUMPDEST PUSH1 0x0 PUSH1 0x2 DUP3 DIV SWAP1 POP PUSH1 0x1 DUP3 AND DUP1 PUSH2 0x17B5 JUMPI PUSH1 0x7F DUP3 AND SWAP2 POP JUMPDEST PUSH1 0x20 DUP3 LT DUP2 EQ ISZERO PUSH2 0x17C9 JUMPI PUSH2 0x17C8 PUSH2 0x17FE JUMP JUMPDEST JUMPDEST POP SWAP2 SWAP1 POP JUMP JUMPDEST PUSH32 0x4E487B7100000000000000000000000000000000000000000000000000000000 PUSH1 0x0 MSTORE PUSH1 0x11 PUSH1 0x4 MSTORE PUSH1 0x24 PUSH1 0x0 REVERT JUMPDEST PUSH32 0x4E487B7100000000000000000000000000000000000000000000000000000000 PUSH1 0x0 MSTORE PUSH1 0x22 PUSH1 0x4 MSTORE PUSH1 0x24 PUSH1 0x0 REVERT JUMPDEST PUSH1 0x0 PUSH1 0x1F NOT PUSH1 0x1F DUP4 ADD AND SWAP1 POP SWAP2 SWAP1 POP JUMP JUMPDEST PUSH2 0x1847 DUP2 PUSH2 0x1715 JUMP JUMPDEST DUP2 EQ PUSH2 0x1852 JUMPI PUSH1 0x0 DUP1 REVERT JUMPDEST POP JUMP JUMPDEST PUSH2 0x185E DUP2 PUSH2 0x1753 JUMP JUMPDEST DUP2 EQ PUSH2 0x1869 JUMPI PUSH1 0x0 DUP1 REVERT JUMPDEST POP JUMP INVALID LOG2 PUSH5 0x6970667358 0x22 SLT KECCAK256 0xB1 STATICCALL SWAP2 TIMESTAMP 0x22 0xF DUP16 0xD4 0x26 0xED RETURNDATASIZE RETURNDATASIZE 0xB8 0x1E LOG2 0xC LOG3 DUP16 0xAD SWAP11 0xBD SAR 0xB0 0xE9 SWAP7 0xC6 0xD4 0xF8 SAR 0xE1 EXTCODECOPY 0xDC PUSH5 0x736F6C6343 STOP ADDMOD STOP STOP CALLER "
				},
				"gasEstimates": {
					"creation": {
						"codeDepositCost": "1261200",
						"executionCost": "infinite",
						"totalCost": "infinite"
					},
					"external": {
						"allowance(address,address)": "infinite",
						"approve(address,uint256)": "infinite",
						"balanceOf(address)": "1586",
						"burn(uint256)": "infinite",
						"decimals()": "388",
						"decreaseAllowance(address,uint256)": "infinite",
						"increaseAllowance(address,uint256)": "infinite",
						"mint(address,uint256)": "infinite",
						"name()": "infinite",
						"owner()": "1281",
						"symbol()": "infinite",
						"totalSupply()": "1205",
						"transfer(address,uint256)": "infinite",
						"transferFrom(address,address,uint256)": "infinite"
					}
				},
				"methodIdentifiers": {
					"allowance(address,address)": "dd62ed3e",
					"approve(address,uint256)": "095ea7b3",
					"balanceOf(address)": "70a08231",
					"burn(uint256)": "42966c68",
					"decimals()": "313ce567",
					"decreaseAllowance(address,uint256)": "a457c2d7",
					"increaseAllowance(address,uint256)": "39509351",
					"mint(address,uint256)": "40c10f19",
					"name()": "06fdde03",
					"owner()": "8da5cb5b",
					"symbol()": "95d89b41",
					"totalSupply()": "18160ddd",
					"transfer(address,uint256)": "a9059cbb",
					"transferFrom(address,address,uint256)": "23b872dd"
				}
			},
			"storageLayout": {
				"storage": [
					{
						"astId": 15,
						"contract": "contracts/MyToken.sol:MyToken",
						"label": "_balances",
						"offset": 0,
						"slot": "0",
						"type": "t_mapping(t_address,t_uint256)"
					},
					{
						"astId": 21,
						"contract": "contracts/MyToken.sol:MyToken",
						"label": "_allowances",
						"offset": 0,
						"slot": "1",
						"type": "t_mapping(t_address,t_mapping(t_address,t_uint256))"
					},
					{
						"astId": 23,
						"contract": "contracts/MyToken.sol:MyToken",
						"label": "_totalSupply",
						"offset": 0,
						"slot": "2",
						"type": "t_uint256"
					},
					{
						"astId": 25,
						"contract": "contracts/MyToken.sol:MyToken",
						"label": "_name",
						"offset": 0,
						"slot": "3",
						"type": "t_string_storage"
					},
					{
						"astId": 27,
						"contract": "contracts/MyToken.sol:MyToken",
						"label": "_symbol",
						"offset": 0,
						"slot": "4",
						"type": "t_string_storage"
					},
					{
						"astId": 718,
						"contract": "contracts/MyToken.sol:MyToken",
						"label": "owner",
						"offset": 0,
						"slot": "5",
						"type": "t_address"
					}
				],
				"types": {
					"t_address": {
						"encoding": "inplace",
						"label": "address",
						"numberOfBytes": "20"
					},
					"t_mapping(t_address,t_mapping(t_address,t_uint256))": {
						"encoding": "mapping",
						"key": "t_address",
						"label": "mapping(address => mapping(address => uint256))",
						"numberOfBytes": "32",
						"value": "t_mapping(t_address,t_uint256)"
					},
					"t_mapping(t_address,t_uint256)": {
						"encoding": "mapping",
						"key": "t_address",
						"label": "mapping(address => uint256)",
						"numberOfBytes": "32",
						"value": "t_uint256"
					},
					"t_string_storage": {
						"encoding": "bytes",
						"label": "string",
						"numberOfBytes": "32"
					},
					"t_uint256": {
						"encoding": "inplace",
						"label": "uint256",
						"numberOfBytes": "32"
					}
				}
			},
			"userdoc": {
				"kind": "user",
				"methods": {},
				"version": 1
			}
		}
	}
}